{
	"GettingStarted/StreamsUpkeep.sol": {
		"StreamsUpkeep": {
			"abi": [
				{
					"inputs": [
						{
							"internalType": "address",
							"name": "_verifier",
							"type": "address"
						}
					],
					"stateMutability": "nonpayable",
					"type": "constructor"
				},
				{
					"inputs": [
						{
							"internalType": "string",
							"name": "feedParamKey",
							"type": "string"
						},
						{
							"internalType": "string[]",
							"name": "feeds",
							"type": "string[]"
						},
						{
							"internalType": "string",
							"name": "timeParamKey",
							"type": "string"
						},
						{
							"internalType": "uint256",
							"name": "time",
							"type": "uint256"
						},
						{
							"internalType": "bytes",
							"name": "extraData",
							"type": "bytes"
						}
					],
					"name": "StreamsLookup",
					"type": "error"
				},
				{
					"anonymous": false,
					"inputs": [
						{
							"indexed": true,
							"internalType": "int192",
							"name": "price",
							"type": "int192"
						}
					],
					"name": "PriceUpdate",
					"type": "event"
				},
				{
					"stateMutability": "payable",
					"type": "fallback"
				},
				{
					"inputs": [],
					"name": "DATASTREAMS_FEEDLABEL",
					"outputs": [
						{
							"internalType": "string",
							"name": "",
							"type": "string"
						}
					],
					"stateMutability": "view",
					"type": "function"
				},
				{
					"inputs": [],
					"name": "DATASTREAMS_QUERYLABEL",
					"outputs": [
						{
							"internalType": "string",
							"name": "",
							"type": "string"
						}
					],
					"stateMutability": "view",
					"type": "function"
				},
				{
					"inputs": [],
					"name": "FEE_ADDRESS",
					"outputs": [
						{
							"internalType": "address",
							"name": "",
							"type": "address"
						}
					],
					"stateMutability": "view",
					"type": "function"
				},
				{
					"inputs": [
						{
							"internalType": "bytes[]",
							"name": "values",
							"type": "bytes[]"
						},
						{
							"internalType": "bytes",
							"name": "extraData",
							"type": "bytes"
						}
					],
					"name": "checkCallback",
					"outputs": [
						{
							"internalType": "bool",
							"name": "",
							"type": "bool"
						},
						{
							"internalType": "bytes",
							"name": "",
							"type": "bytes"
						}
					],
					"stateMutability": "pure",
					"type": "function"
				},
				{
					"inputs": [
						{
							"internalType": "uint256",
							"name": "",
							"type": "uint256"
						},
						{
							"internalType": "bytes",
							"name": "",
							"type": "bytes"
						}
					],
					"name": "checkErrorHandler",
					"outputs": [
						{
							"internalType": "bool",
							"name": "upkeepNeeded",
							"type": "bool"
						},
						{
							"internalType": "bytes",
							"name": "performData",
							"type": "bytes"
						}
					],
					"stateMutability": "pure",
					"type": "function"
				},
				{
					"inputs": [
						{
							"components": [
								{
									"internalType": "uint256",
									"name": "index",
									"type": "uint256"
								},
								{
									"internalType": "uint256",
									"name": "timestamp",
									"type": "uint256"
								},
								{
									"internalType": "bytes32",
									"name": "txHash",
									"type": "bytes32"
								},
								{
									"internalType": "uint256",
									"name": "blockNumber",
									"type": "uint256"
								},
								{
									"internalType": "bytes32",
									"name": "blockHash",
									"type": "bytes32"
								},
								{
									"internalType": "address",
									"name": "source",
									"type": "address"
								},
								{
									"internalType": "bytes32[]",
									"name": "topics",
									"type": "bytes32[]"
								},
								{
									"internalType": "bytes",
									"name": "data",
									"type": "bytes"
								}
							],
							"internalType": "struct Log",
							"name": "log",
							"type": "tuple"
						},
						{
							"internalType": "bytes",
							"name": "",
							"type": "bytes"
						}
					],
					"name": "checkLog",
					"outputs": [
						{
							"internalType": "bool",
							"name": "upkeepNeeded",
							"type": "bool"
						},
						{
							"internalType": "bytes",
							"name": "performData",
							"type": "bytes"
						}
					],
					"stateMutability": "nonpayable",
					"type": "function"
				},
				{
					"inputs": [
						{
							"internalType": "uint256",
							"name": "",
							"type": "uint256"
						}
					],
					"name": "feedIds",
					"outputs": [
						{
							"internalType": "string",
							"name": "",
							"type": "string"
						}
					],
					"stateMutability": "view",
					"type": "function"
				},
				{
					"inputs": [],
					"name": "last_retrieved_price",
					"outputs": [
						{
							"internalType": "int192",
							"name": "",
							"type": "int192"
						}
					],
					"stateMutability": "view",
					"type": "function"
				},
				{
					"inputs": [
						{
							"internalType": "bytes",
							"name": "performData",
							"type": "bytes"
						}
					],
					"name": "performUpkeep",
					"outputs": [],
					"stateMutability": "nonpayable",
					"type": "function"
				},
				{
					"inputs": [],
					"name": "verifier",
					"outputs": [
						{
							"internalType": "contract IVerifierProxy",
							"name": "",
							"type": "address"
						}
					],
					"stateMutability": "view",
					"type": "function"
				}
			],
			"devdoc": {
				"kind": "dev",
				"methods": {
					"checkCallback(bytes[],bytes)": {
						"params": {
							"extraData": "context data from streams lookup process.",
							"values": "an array of bytes returned from data streams endpoint."
						},
						"returns": {
							"_0": "boolean to indicate whether the keeper should call performUpkeep or not.",
							"_1": "bytes that the keeper should call performUpkeep with, if upkeep is needed. If you would like to encode data to decode later, try `abi.encode`."
						}
					},
					"checkErrorHandler(uint256,bytes)": {
						"returns": {
							"performData": "bytes that the keeper should call performUpkeep with, if upkeep is needed. If you would like to encode data to decode later, try `abi.encode`.",
							"upkeepNeeded": "boolean to indicate whether the keeper should call performUpkeep or not."
						}
					},
					"performUpkeep(bytes)": {
						"details": "The input to this method should not be trusted, and the caller of the method should not even be restricted to any single registry. Anyone should be able call it, and the input should be validated, there is no guarantee that the data passed in is the performData returned from checkUpkeep. This could happen due to malicious keepers, racing keepers, or simply a state change while the performUpkeep transaction is waiting for confirmation. Always validate the data passed in.",
						"params": {
							"performData": "is the data which was passed back from the checkData simulation. If it is encoded, it can easily be decoded into other types by calling `abi.decode`. This data should not be trusted, and should be validated against the contract's current state."
						}
					}
				},
				"version": 1
			},
			"evm": {
				"assembly": "    /* \"GettingStarted/StreamsUpkeep.sol\":3156:8520  contract StreamsUpkeep is ILogAutomation, StreamsLookupCompatibleInterface {... */\n  mstore(0x40, 0x80)\n    /* \"GettingStarted/StreamsUpkeep.sol\":4650:4762  string[] public feedIds = [... */\n  mload(0x40)\n  dup1\n  0x20\n  add\n  0x40\n  mstore\n  dup1\n  mload(0x40)\n  dup1\n  0x80\n  add\n  0x40\n  mstore\n  dup1\n  0x42\n  dup2\n  mstore\n  0x20\n  add\n  data_1a934627dd17cd609e68b9ab6643d023cc6e64af04072261d91199a9026d67df\n  0x42\n  swap2\n  codecopy\n  dup2\n  mstore\n  pop\n  0x03\n  swap1\n  0x01\n  tag_1\n  swap3\n  swap2\n  swap1\n  tag_2\n  jump\t// in\ntag_1:\n  pop\n    /* \"GettingStarted/StreamsUpkeep.sol\":4771:4857  constructor(address _verifier) {... */\n  callvalue\n  dup1\n  iszero\n  tag_3\n  jumpi\n  0x00\n  dup1\n  revert\ntag_3:\n  pop\n  mload(0x40)\n  sub(codesize, bytecodeSize)\n  dup1\n  bytecodeSize\n  dup4\n  codecopy\n  dup2\n  dup2\n  add\n  0x40\n  mstore\n  dup2\n  add\n  swap1\n  tag_4\n  swap2\n  swap1\n  tag_5\n  jump\t// in\ntag_4:\n    /* \"GettingStarted/StreamsUpkeep.sol\":4839:4848  _verifier */\n  dup1\n    /* \"GettingStarted/StreamsUpkeep.sol\":4813:4821  verifier */\n  0x00\n  dup1\n    /* \"GettingStarted/StreamsUpkeep.sol\":4813:4849  verifier = IVerifierProxy(_verifier) */\n  0x0100\n  exp\n  dup2\n  sload\n  dup2\n  0xffffffffffffffffffffffffffffffffffffffff\n  mul\n  not\n  and\n  swap1\n  dup4\n  0xffffffffffffffffffffffffffffffffffffffff\n  and\n  mul\n  or\n  swap1\n  sstore\n  pop\n    /* \"GettingStarted/StreamsUpkeep.sol\":4771:4857  constructor(address _verifier) {... */\n  pop\n    /* \"GettingStarted/StreamsUpkeep.sol\":3156:8520  contract StreamsUpkeep is ILogAutomation, StreamsLookupCompatibleInterface {... */\n  jump(tag_8)\ntag_2:\n  dup3\n  dup1\n  sload\n  dup3\n  dup3\n  sstore\n  swap1\n  0x00\n  mstore\n  keccak256(0x00, 0x20)\n  swap1\n  dup2\n  add\n  swap3\n  dup3\n  iszero\n  tag_9\n  jumpi\n  swap2\n  0x20\n  mul\n  dup3\n  add\ntag_10:\n  dup3\n  dup2\n  gt\n  iszero\n  tag_11\n  jumpi\n  dup3\n  mload\n  dup3\n  swap1\n  dup2\n  tag_12\n  swap2\n  swap1\n  tag_13\n  jump\t// in\ntag_12:\n  pop\n  swap2\n  0x20\n  add\n  swap2\n  swap1\n  0x01\n  add\n  swap1\n  jump(tag_10)\ntag_11:\ntag_9:\n  pop\n  swap1\n  pop\n  tag_14\n  swap2\n  swap1\n  tag_15\n  jump\t// in\ntag_14:\n  pop\n  swap1\n  jump\t// out\ntag_15:\ntag_16:\n  dup1\n  dup3\n  gt\n  iszero\n  tag_17\n  jumpi\n  0x00\n  dup2\n  dup2\n  tag_18\n  swap2\n  swap1\n  tag_19\n  jump\t// in\ntag_18:\n  pop\n  0x01\n  add\n  jump(tag_16)\ntag_17:\n  pop\n  swap1\n  jump\t// out\ntag_19:\n  pop\n  dup1\n  sload\n  tag_20\n  swap1\n  tag_21\n  jump\t// in\ntag_20:\n  0x00\n  dup3\n  sstore\n  dup1\n  0x1f\n  lt\n  tag_23\n  jumpi\n  pop\n  jump(tag_22)\ntag_23:\n  0x1f\n  add\n  0x20\n  swap1\n  div\n  swap1\n  0x00\n  mstore\n  keccak256(0x00, 0x20)\n  swap1\n  dup2\n  add\n  swap1\n  tag_24\n  swap2\n  swap1\n  tag_25\n  jump\t// in\ntag_24:\ntag_22:\n  pop\n  jump\t// out\ntag_25:\ntag_26:\n  dup1\n  dup3\n  gt\n  iszero\n  tag_27\n  jumpi\n  0x00\n  dup2\n  0x00\n  swap1\n  sstore\n  pop\n  0x01\n  add\n  jump(tag_26)\ntag_27:\n  pop\n  swap1\n  jump\t// out\n    /* \"#utility.yul\":88:205   */\ntag_29:\n    /* \"#utility.yul\":197:198   */\n  0x00\n    /* \"#utility.yul\":194:195   */\n  dup1\n    /* \"#utility.yul\":187:199   */\n  revert\n    /* \"#utility.yul\":334:460   */\ntag_31:\n    /* \"#utility.yul\":371:378   */\n  0x00\n    /* \"#utility.yul\":411:453   */\n  0xffffffffffffffffffffffffffffffffffffffff\n    /* \"#utility.yul\":404:409   */\n  dup3\n    /* \"#utility.yul\":400:454   */\n  and\n    /* \"#utility.yul\":389:454   */\n  swap1\n  pop\n    /* \"#utility.yul\":334:460   */\n  swap2\n  swap1\n  pop\n  jump\t// out\n    /* \"#utility.yul\":466:562   */\ntag_32:\n    /* \"#utility.yul\":503:510   */\n  0x00\n    /* \"#utility.yul\":532:556   */\n  tag_60\n    /* \"#utility.yul\":550:555   */\n  dup3\n    /* \"#utility.yul\":532:556   */\n  tag_31\n  jump\t// in\ntag_60:\n    /* \"#utility.yul\":521:556   */\n  swap1\n  pop\n    /* \"#utility.yul\":466:562   */\n  swap2\n  swap1\n  pop\n  jump\t// out\n    /* \"#utility.yul\":568:690   */\ntag_33:\n    /* \"#utility.yul\":641:665   */\n  tag_62\n    /* \"#utility.yul\":659:664   */\n  dup2\n    /* \"#utility.yul\":641:665   */\n  tag_32\n  jump\t// in\ntag_62:\n    /* \"#utility.yul\":634:639   */\n  dup2\n    /* \"#utility.yul\":631:666   */\n  eq\n    /* \"#utility.yul\":621:684   */\n  tag_63\n  jumpi\n    /* \"#utility.yul\":680:681   */\n  0x00\n    /* \"#utility.yul\":677:678   */\n  dup1\n    /* \"#utility.yul\":670:682   */\n  revert\n    /* \"#utility.yul\":621:684   */\ntag_63:\n    /* \"#utility.yul\":568:690   */\n  pop\n  jump\t// out\n    /* \"#utility.yul\":696:839   */\ntag_34:\n    /* \"#utility.yul\":753:758   */\n  0x00\n    /* \"#utility.yul\":784:790   */\n  dup2\n    /* \"#utility.yul\":778:791   */\n  mload\n    /* \"#utility.yul\":769:791   */\n  swap1\n  pop\n    /* \"#utility.yul\":800:833   */\n  tag_65\n    /* \"#utility.yul\":827:832   */\n  dup2\n    /* \"#utility.yul\":800:833   */\n  tag_33\n  jump\t// in\ntag_65:\n    /* \"#utility.yul\":696:839   */\n  swap3\n  swap2\n  pop\n  pop\n  jump\t// out\n    /* \"#utility.yul\":845:1196   */\ntag_5:\n    /* \"#utility.yul\":915:921   */\n  0x00\n    /* \"#utility.yul\":964:966   */\n  0x20\n    /* \"#utility.yul\":952:961   */\n  dup3\n    /* \"#utility.yul\":943:950   */\n  dup5\n    /* \"#utility.yul\":939:962   */\n  sub\n    /* \"#utility.yul\":935:967   */\n  slt\n    /* \"#utility.yul\":932:1051   */\n  iszero\n  tag_67\n  jumpi\n    /* \"#utility.yul\":970:1049   */\n  tag_68\n  tag_29\n  jump\t// in\ntag_68:\n    /* \"#utility.yul\":932:1051   */\ntag_67:\n    /* \"#utility.yul\":1090:1091   */\n  0x00\n    /* \"#utility.yul\":1115:1179   */\n  tag_69\n    /* \"#utility.yul\":1171:1178   */\n  dup5\n    /* \"#utility.yul\":1162:1168   */\n  dup3\n    /* \"#utility.yul\":1151:1160   */\n  dup6\n    /* \"#utility.yul\":1147:1169   */\n  add\n    /* \"#utility.yul\":1115:1179   */\n  tag_34\n  jump\t// in\ntag_69:\n    /* \"#utility.yul\":1105:1179   */\n  swap2\n  pop\n    /* \"#utility.yul\":1061:1189   */\n  pop\n    /* \"#utility.yul\":845:1196   */\n  swap3\n  swap2\n  pop\n  pop\n  jump\t// out\n    /* \"#utility.yul\":1202:1301   */\ntag_35:\n    /* \"#utility.yul\":1254:1260   */\n  0x00\n    /* \"#utility.yul\":1288:1293   */\n  dup2\n    /* \"#utility.yul\":1282:1294   */\n  mload\n    /* \"#utility.yul\":1272:1294   */\n  swap1\n  pop\n    /* \"#utility.yul\":1202:1301   */\n  swap2\n  swap1\n  pop\n  jump\t// out\n    /* \"#utility.yul\":1307:1487   */\ntag_36:\n    /* \"#utility.yul\":1355:1432   */\n  0x4e487b7100000000000000000000000000000000000000000000000000000000\n    /* \"#utility.yul\":1352:1353   */\n  0x00\n    /* \"#utility.yul\":1345:1433   */\n  mstore\n    /* \"#utility.yul\":1452:1456   */\n  0x41\n    /* \"#utility.yul\":1449:1450   */\n  0x04\n    /* \"#utility.yul\":1442:1457   */\n  mstore\n    /* \"#utility.yul\":1476:1480   */\n  0x24\n    /* \"#utility.yul\":1473:1474   */\n  0x00\n    /* \"#utility.yul\":1466:1481   */\n  revert\n    /* \"#utility.yul\":1493:1673   */\ntag_37:\n    /* \"#utility.yul\":1541:1618   */\n  0x4e487b7100000000000000000000000000000000000000000000000000000000\n    /* \"#utility.yul\":1538:1539   */\n  0x00\n    /* \"#utility.yul\":1531:1619   */\n  mstore\n    /* \"#utility.yul\":1638:1642   */\n  0x22\n    /* \"#utility.yul\":1635:1636   */\n  0x04\n    /* \"#utility.yul\":1628:1643   */\n  mstore\n    /* \"#utility.yul\":1662:1666   */\n  0x24\n    /* \"#utility.yul\":1659:1660   */\n  0x00\n    /* \"#utility.yul\":1652:1667   */\n  revert\n    /* \"#utility.yul\":1679:1999   */\ntag_21:\n    /* \"#utility.yul\":1723:1729   */\n  0x00\n    /* \"#utility.yul\":1760:1761   */\n  0x02\n    /* \"#utility.yul\":1754:1758   */\n  dup3\n    /* \"#utility.yul\":1750:1762   */\n  div\n    /* \"#utility.yul\":1740:1762   */\n  swap1\n  pop\n    /* \"#utility.yul\":1807:1808   */\n  0x01\n    /* \"#utility.yul\":1801:1805   */\n  dup3\n    /* \"#utility.yul\":1797:1809   */\n  and\n    /* \"#utility.yul\":1828:1846   */\n  dup1\n    /* \"#utility.yul\":1818:1899   */\n  tag_74\n  jumpi\n    /* \"#utility.yul\":1884:1888   */\n  0x7f\n    /* \"#utility.yul\":1876:1882   */\n  dup3\n    /* \"#utility.yul\":1872:1889   */\n  and\n    /* \"#utility.yul\":1862:1889   */\n  swap2\n  pop\n    /* \"#utility.yul\":1818:1899   */\ntag_74:\n    /* \"#utility.yul\":1946:1948   */\n  0x20\n    /* \"#utility.yul\":1938:1944   */\n  dup3\n    /* \"#utility.yul\":1935:1949   */\n  lt\n    /* \"#utility.yul\":1915:1933   */\n  dup2\n    /* \"#utility.yul\":1912:1950   */\n  sub\n    /* \"#utility.yul\":1909:1993   */\n  tag_75\n  jumpi\n    /* \"#utility.yul\":1965:1983   */\n  tag_76\n  tag_37\n  jump\t// in\ntag_76:\n    /* \"#utility.yul\":1909:1993   */\ntag_75:\n    /* \"#utility.yul\":1730:1999   */\n  pop\n    /* \"#utility.yul\":1679:1999   */\n  swap2\n  swap1\n  pop\n  jump\t// out\n    /* \"#utility.yul\":2005:2146   */\ntag_38:\n    /* \"#utility.yul\":2054:2058   */\n  0x00\n    /* \"#utility.yul\":2077:2080   */\n  dup2\n    /* \"#utility.yul\":2069:2080   */\n  swap1\n  pop\n    /* \"#utility.yul\":2100:2103   */\n  dup2\n    /* \"#utility.yul\":2097:2098   */\n  0x00\n    /* \"#utility.yul\":2090:2104   */\n  mstore\n    /* \"#utility.yul\":2134:2138   */\n  0x20\n    /* \"#utility.yul\":2131:2132   */\n  0x00\n    /* \"#utility.yul\":2121:2139   */\n  keccak256\n    /* \"#utility.yul\":2113:2139   */\n  swap1\n  pop\n    /* \"#utility.yul\":2005:2146   */\n  swap2\n  swap1\n  pop\n  jump\t// out\n    /* \"#utility.yul\":2152:2245   */\ntag_39:\n    /* \"#utility.yul\":2189:2195   */\n  0x00\n    /* \"#utility.yul\":2236:2238   */\n  0x20\n    /* \"#utility.yul\":2231:2233   */\n  0x1f\n    /* \"#utility.yul\":2224:2229   */\n  dup4\n    /* \"#utility.yul\":2220:2234   */\n  add\n    /* \"#utility.yul\":2216:2239   */\n  div\n    /* \"#utility.yul\":2206:2239   */\n  swap1\n  pop\n    /* \"#utility.yul\":2152:2245   */\n  swap2\n  swap1\n  pop\n  jump\t// out\n    /* \"#utility.yul\":2251:2358   */\ntag_40:\n    /* \"#utility.yul\":2295:2303   */\n  0x00\n    /* \"#utility.yul\":2345:2350   */\n  dup3\n    /* \"#utility.yul\":2339:2343   */\n  dup3\n    /* \"#utility.yul\":2335:2351   */\n  shl\n    /* \"#utility.yul\":2314:2351   */\n  swap1\n  pop\n    /* \"#utility.yul\":2251:2358   */\n  swap3\n  swap2\n  pop\n  pop\n  jump\t// out\n    /* \"#utility.yul\":2364:2757   */\ntag_41:\n    /* \"#utility.yul\":2433:2439   */\n  0x00\n    /* \"#utility.yul\":2483:2484   */\n  0x08\n    /* \"#utility.yul\":2471:2481   */\n  dup4\n    /* \"#utility.yul\":2467:2485   */\n  mul\n    /* \"#utility.yul\":2506:2603   */\n  tag_81\n    /* \"#utility.yul\":2536:2602   */\n  0xffffffffffffffffffffffffffffffffffffffffffffffffffffffffffffffff\n    /* \"#utility.yul\":2525:2534   */\n  dup3\n    /* \"#utility.yul\":2506:2603   */\n  tag_40\n  jump\t// in\ntag_81:\n    /* \"#utility.yul\":2624:2663   */\n  tag_82\n    /* \"#utility.yul\":2654:2662   */\n  dup7\n    /* \"#utility.yul\":2643:2652   */\n  dup4\n    /* \"#utility.yul\":2624:2663   */\n  tag_40\n  jump\t// in\ntag_82:\n    /* \"#utility.yul\":2612:2663   */\n  swap6\n  pop\n    /* \"#utility.yul\":2696:2700   */\n  dup1\n    /* \"#utility.yul\":2692:2701   */\n  not\n    /* \"#utility.yul\":2685:2690   */\n  dup5\n    /* \"#utility.yul\":2681:2702   */\n  and\n    /* \"#utility.yul\":2672:2702   */\n  swap4\n  pop\n    /* \"#utility.yul\":2745:2749   */\n  dup1\n    /* \"#utility.yul\":2735:2743   */\n  dup7\n    /* \"#utility.yul\":2731:2750   */\n  and\n    /* \"#utility.yul\":2724:2729   */\n  dup5\n    /* \"#utility.yul\":2721:2751   */\n  or\n    /* \"#utility.yul\":2711:2751   */\n  swap3\n  pop\n    /* \"#utility.yul\":2440:2757   */\n  pop\n  pop\n    /* \"#utility.yul\":2364:2757   */\n  swap4\n  swap3\n  pop\n  pop\n  pop\n  jump\t// out\n    /* \"#utility.yul\":2763:2840   */\ntag_42:\n    /* \"#utility.yul\":2800:2807   */\n  0x00\n    /* \"#utility.yul\":2829:2834   */\n  dup2\n    /* \"#utility.yul\":2818:2834   */\n  swap1\n  pop\n    /* \"#utility.yul\":2763:2840   */\n  swap2\n  swap1\n  pop\n  jump\t// out\n    /* \"#utility.yul\":2846:2906   */\ntag_43:\n    /* \"#utility.yul\":2874:2877   */\n  0x00\n    /* \"#utility.yul\":2895:2900   */\n  dup2\n    /* \"#utility.yul\":2888:2900   */\n  swap1\n  pop\n    /* \"#utility.yul\":2846:2906   */\n  swap2\n  swap1\n  pop\n  jump\t// out\n    /* \"#utility.yul\":2912:3054   */\ntag_44:\n    /* \"#utility.yul\":2962:2971   */\n  0x00\n    /* \"#utility.yul\":2995:3048   */\n  tag_86\n    /* \"#utility.yul\":3013:3047   */\n  tag_87\n    /* \"#utility.yul\":3022:3046   */\n  tag_88\n    /* \"#utility.yul\":3040:3045   */\n  dup5\n    /* \"#utility.yul\":3022:3046   */\n  tag_42\n  jump\t// in\ntag_88:\n    /* \"#utility.yul\":3013:3047   */\n  tag_43\n  jump\t// in\ntag_87:\n    /* \"#utility.yul\":2995:3048   */\n  tag_42\n  jump\t// in\ntag_86:\n    /* \"#utility.yul\":2982:3048   */\n  swap1\n  pop\n    /* \"#utility.yul\":2912:3054   */\n  swap2\n  swap1\n  pop\n  jump\t// out\n    /* \"#utility.yul\":3060:3135   */\ntag_45:\n    /* \"#utility.yul\":3103:3106   */\n  0x00\n    /* \"#utility.yul\":3124:3129   */\n  dup2\n    /* \"#utility.yul\":3117:3129   */\n  swap1\n  pop\n    /* \"#utility.yul\":3060:3135   */\n  swap2\n  swap1\n  pop\n  jump\t// out\n    /* \"#utility.yul\":3141:3410   */\ntag_46:\n    /* \"#utility.yul\":3251:3290   */\n  tag_91\n    /* \"#utility.yul\":3282:3289   */\n  dup4\n    /* \"#utility.yul\":3251:3290   */\n  tag_44\n  jump\t// in\ntag_91:\n    /* \"#utility.yul\":3312:3403   */\n  tag_92\n    /* \"#utility.yul\":3361:3402   */\n  tag_93\n    /* \"#utility.yul\":3385:3401   */\n  dup3\n    /* \"#utility.yul\":3361:3402   */\n  tag_45\n  jump\t// in\ntag_93:\n    /* \"#utility.yul\":3353:3359   */\n  dup5\n    /* \"#utility.yul\":3346:3350   */\n  dup5\n    /* \"#utility.yul\":3340:3351   */\n  sload\n    /* \"#utility.yul\":3312:3403   */\n  tag_41\n  jump\t// in\ntag_92:\n    /* \"#utility.yul\":3306:3310   */\n  dup3\n    /* \"#utility.yul\":3299:3404   */\n  sstore\n    /* \"#utility.yul\":3217:3410   */\n  pop\n    /* \"#utility.yul\":3141:3410   */\n  pop\n  pop\n  pop\n  jump\t// out\n    /* \"#utility.yul\":3416:3489   */\ntag_47:\n    /* \"#utility.yul\":3461:3464   */\n  0x00\n    /* \"#utility.yul\":3416:3489   */\n  swap1\n  jump\t// out\n    /* \"#utility.yul\":3495:3684   */\ntag_48:\n    /* \"#utility.yul\":3572:3604   */\n  tag_96\n  tag_47\n  jump\t// in\ntag_96:\n    /* \"#utility.yul\":3613:3678   */\n  tag_97\n    /* \"#utility.yul\":3671:3677   */\n  dup2\n    /* \"#utility.yul\":3663:3669   */\n  dup5\n    /* \"#utility.yul\":3657:3661   */\n  dup5\n    /* \"#utility.yul\":3613:3678   */\n  tag_46\n  jump\t// in\ntag_97:\n    /* \"#utility.yul\":3548:3684   */\n  pop\n    /* \"#utility.yul\":3495:3684   */\n  pop\n  pop\n  jump\t// out\n    /* \"#utility.yul\":3690:3876   */\ntag_49:\n    /* \"#utility.yul\":3750:3870   */\ntag_99:\n    /* \"#utility.yul\":3767:3770   */\n  dup2\n    /* \"#utility.yul\":3760:3765   */\n  dup2\n    /* \"#utility.yul\":3757:3771   */\n  lt\n    /* \"#utility.yul\":3750:3870   */\n  iszero\n  tag_101\n  jumpi\n    /* \"#utility.yul\":3821:3860   */\n  tag_102\n    /* \"#utility.yul\":3858:3859   */\n  0x00\n    /* \"#utility.yul\":3851:3856   */\n  dup3\n    /* \"#utility.yul\":3821:3860   */\n  tag_48\n  jump\t// in\ntag_102:\n    /* \"#utility.yul\":3794:3795   */\n  0x01\n    /* \"#utility.yul\":3787:3792   */\n  dup2\n    /* \"#utility.yul\":3783:3796   */\n  add\n    /* \"#utility.yul\":3774:3796   */\n  swap1\n  pop\n    /* \"#utility.yul\":3750:3870   */\n  jump(tag_99)\ntag_101:\n    /* \"#utility.yul\":3690:3876   */\n  pop\n  pop\n  jump\t// out\n    /* \"#utility.yul\":3882:4425   */\ntag_50:\n    /* \"#utility.yul\":3983:3985   */\n  0x1f\n    /* \"#utility.yul\":3978:3981   */\n  dup3\n    /* \"#utility.yul\":3975:3986   */\n  gt\n    /* \"#utility.yul\":3972:4418   */\n  iszero\n  tag_104\n  jumpi\n    /* \"#utility.yul\":4017:4055   */\n  tag_105\n    /* \"#utility.yul\":4049:4054   */\n  dup2\n    /* \"#utility.yul\":4017:4055   */\n  tag_38\n  jump\t// in\ntag_105:\n    /* \"#utility.yul\":4101:4130   */\n  tag_106\n    /* \"#utility.yul\":4119:4129   */\n  dup5\n    /* \"#utility.yul\":4101:4130   */\n  tag_39\n  jump\t// in\ntag_106:\n    /* \"#utility.yul\":4091:4099   */\n  dup2\n    /* \"#utility.yul\":4087:4131   */\n  add\n    /* \"#utility.yul\":4284:4286   */\n  0x20\n    /* \"#utility.yul\":4272:4282   */\n  dup6\n    /* \"#utility.yul\":4269:4287   */\n  lt\n    /* \"#utility.yul\":4266:4315   */\n  iszero\n  tag_107\n  jumpi\n    /* \"#utility.yul\":4305:4313   */\n  dup2\n    /* \"#utility.yul\":4290:4313   */\n  swap1\n  pop\n    /* \"#utility.yul\":4266:4315   */\ntag_107:\n    /* \"#utility.yul\":4328:4408   */\n  tag_108\n    /* \"#utility.yul\":4384:4406   */\n  tag_109\n    /* \"#utility.yul\":4402:4405   */\n  dup6\n    /* \"#utility.yul\":4384:4406   */\n  tag_39\n  jump\t// in\ntag_109:\n    /* \"#utility.yul\":4374:4382   */\n  dup4\n    /* \"#utility.yul\":4370:4407   */\n  add\n    /* \"#utility.yul\":4357:4368   */\n  dup3\n    /* \"#utility.yul\":4328:4408   */\n  tag_49\n  jump\t// in\ntag_108:\n    /* \"#utility.yul\":3987:4418   */\n  pop\n  pop\n    /* \"#utility.yul\":3972:4418   */\ntag_104:\n    /* \"#utility.yul\":3882:4425   */\n  pop\n  pop\n  pop\n  jump\t// out\n    /* \"#utility.yul\":4431:4548   */\ntag_51:\n    /* \"#utility.yul\":4485:4493   */\n  0x00\n    /* \"#utility.yul\":4535:4540   */\n  dup3\n    /* \"#utility.yul\":4529:4533   */\n  dup3\n    /* \"#utility.yul\":4525:4541   */\n  shr\n    /* \"#utility.yul\":4504:4541   */\n  swap1\n  pop\n    /* \"#utility.yul\":4431:4548   */\n  swap3\n  swap2\n  pop\n  pop\n  jump\t// out\n    /* \"#utility.yul\":4554:4723   */\ntag_52:\n    /* \"#utility.yul\":4598:4604   */\n  0x00\n    /* \"#utility.yul\":4631:4682   */\n  tag_112\n    /* \"#utility.yul\":4679:4680   */\n  0x00\n    /* \"#utility.yul\":4675:4681   */\n  not\n    /* \"#utility.yul\":4667:4672   */\n  dup5\n    /* \"#utility.yul\":4664:4665   */\n  0x08\n    /* \"#utility.yul\":4660:4673   */\n  mul\n    /* \"#utility.yul\":4631:4682   */\n  tag_51\n  jump\t// in\ntag_112:\n    /* \"#utility.yul\":4627:4683   */\n  not\n    /* \"#utility.yul\":4712:4716   */\n  dup1\n    /* \"#utility.yul\":4706:4710   */\n  dup4\n    /* \"#utility.yul\":4702:4717   */\n  and\n    /* \"#utility.yul\":4692:4717   */\n  swap2\n  pop\n    /* \"#utility.yul\":4605:4723   */\n  pop\n    /* \"#utility.yul\":4554:4723   */\n  swap3\n  swap2\n  pop\n  pop\n  jump\t// out\n    /* \"#utility.yul\":4728:5023   */\ntag_53:\n    /* \"#utility.yul\":4804:4808   */\n  0x00\n    /* \"#utility.yul\":4950:4979   */\n  tag_114\n    /* \"#utility.yul\":4975:4978   */\n  dup4\n    /* \"#utility.yul\":4969:4973   */\n  dup4\n    /* \"#utility.yul\":4950:4979   */\n  tag_52\n  jump\t// in\ntag_114:\n    /* \"#utility.yul\":4942:4979   */\n  swap2\n  pop\n    /* \"#utility.yul\":5012:5015   */\n  dup3\n    /* \"#utility.yul\":5009:5010   */\n  0x02\n    /* \"#utility.yul\":5005:5016   */\n  mul\n    /* \"#utility.yul\":4999:5003   */\n  dup3\n    /* \"#utility.yul\":4996:5017   */\n  or\n    /* \"#utility.yul\":4988:5017   */\n  swap1\n  pop\n    /* \"#utility.yul\":4728:5023   */\n  swap3\n  swap2\n  pop\n  pop\n  jump\t// out\n    /* \"#utility.yul\":5028:6423   */\ntag_13:\n    /* \"#utility.yul\":5145:5182   */\n  tag_116\n    /* \"#utility.yul\":5178:5181   */\n  dup3\n    /* \"#utility.yul\":5145:5182   */\n  tag_35\n  jump\t// in\ntag_116:\n    /* \"#utility.yul\":5247:5265   */\n  0xffffffffffffffff\n    /* \"#utility.yul\":5239:5245   */\n  dup2\n    /* \"#utility.yul\":5236:5266   */\n  gt\n    /* \"#utility.yul\":5233:5289   */\n  iszero\n  tag_117\n  jumpi\n    /* \"#utility.yul\":5269:5287   */\n  tag_118\n  tag_36\n  jump\t// in\ntag_118:\n    /* \"#utility.yul\":5233:5289   */\ntag_117:\n    /* \"#utility.yul\":5313:5351   */\n  tag_119\n    /* \"#utility.yul\":5345:5349   */\n  dup3\n    /* \"#utility.yul\":5339:5350   */\n  sload\n    /* \"#utility.yul\":5313:5351   */\n  tag_21\n  jump\t// in\ntag_119:\n    /* \"#utility.yul\":5398:5465   */\n  tag_120\n    /* \"#utility.yul\":5458:5464   */\n  dup3\n    /* \"#utility.yul\":5450:5456   */\n  dup3\n    /* \"#utility.yul\":5444:5448   */\n  dup6\n    /* \"#utility.yul\":5398:5465   */\n  tag_50\n  jump\t// in\ntag_120:\n    /* \"#utility.yul\":5492:5493   */\n  0x00\n    /* \"#utility.yul\":5516:5520   */\n  0x20\n    /* \"#utility.yul\":5503:5520   */\n  swap1\n  pop\n    /* \"#utility.yul\":5548:5550   */\n  0x1f\n    /* \"#utility.yul\":5540:5546   */\n  dup4\n    /* \"#utility.yul\":5537:5551   */\n  gt\n    /* \"#utility.yul\":5565:5566   */\n  0x01\n    /* \"#utility.yul\":5560:6178   */\n  dup2\n  eq\n  tag_122\n  jumpi\n    /* \"#utility.yul\":6222:6223   */\n  0x00\n    /* \"#utility.yul\":6239:6245   */\n  dup5\n    /* \"#utility.yul\":6236:6313   */\n  iszero\n  tag_123\n  jumpi\n    /* \"#utility.yul\":6288:6297   */\n  dup3\n    /* \"#utility.yul\":6283:6286   */\n  dup8\n    /* \"#utility.yul\":6279:6298   */\n  add\n    /* \"#utility.yul\":6273:6299   */\n  mload\n    /* \"#utility.yul\":6264:6299   */\n  swap1\n  pop\n    /* \"#utility.yul\":6236:6313   */\ntag_123:\n    /* \"#utility.yul\":6339:6406   */\n  tag_124\n    /* \"#utility.yul\":6399:6405   */\n  dup6\n    /* \"#utility.yul\":6392:6397   */\n  dup3\n    /* \"#utility.yul\":6339:6406   */\n  tag_53\n  jump\t// in\ntag_124:\n    /* \"#utility.yul\":6333:6337   */\n  dup7\n    /* \"#utility.yul\":6326:6407   */\n  sstore\n    /* \"#utility.yul\":6195:6417   */\n  pop\n    /* \"#utility.yul\":5530:6417   */\n  jump(tag_121)\n    /* \"#utility.yul\":5560:6178   */\ntag_122:\n    /* \"#utility.yul\":5612:5616   */\n  0x1f\n    /* \"#utility.yul\":5608:5617   */\n  not\n    /* \"#utility.yul\":5600:5606   */\n  dup5\n    /* \"#utility.yul\":5596:5618   */\n  and\n    /* \"#utility.yul\":5646:5683   */\n  tag_125\n    /* \"#utility.yul\":5678:5682   */\n  dup7\n    /* \"#utility.yul\":5646:5683   */\n  tag_38\n  jump\t// in\ntag_125:\n    /* \"#utility.yul\":5705:5706   */\n  0x00\n    /* \"#utility.yul\":5719:5927   */\ntag_126:\n    /* \"#utility.yul\":5733:5740   */\n  dup3\n    /* \"#utility.yul\":5730:5731   */\n  dup2\n    /* \"#utility.yul\":5727:5741   */\n  lt\n    /* \"#utility.yul\":5719:5927   */\n  iszero\n  tag_128\n  jumpi\n    /* \"#utility.yul\":5812:5821   */\n  dup5\n    /* \"#utility.yul\":5807:5810   */\n  dup10\n    /* \"#utility.yul\":5803:5822   */\n  add\n    /* \"#utility.yul\":5797:5823   */\n  mload\n    /* \"#utility.yul\":5789:5795   */\n  dup3\n    /* \"#utility.yul\":5782:5824   */\n  sstore\n    /* \"#utility.yul\":5863:5864   */\n  0x01\n    /* \"#utility.yul\":5855:5861   */\n  dup3\n    /* \"#utility.yul\":5851:5865   */\n  add\n    /* \"#utility.yul\":5841:5865   */\n  swap2\n  pop\n    /* \"#utility.yul\":5910:5912   */\n  0x20\n    /* \"#utility.yul\":5899:5908   */\n  dup6\n    /* \"#utility.yul\":5895:5913   */\n  add\n    /* \"#utility.yul\":5882:5913   */\n  swap5\n  pop\n    /* \"#utility.yul\":5756:5760   */\n  0x20\n    /* \"#utility.yul\":5753:5754   */\n  dup2\n    /* \"#utility.yul\":5749:5761   */\n  add\n    /* \"#utility.yul\":5744:5761   */\n  swap1\n  pop\n    /* \"#utility.yul\":5719:5927   */\n  jump(tag_126)\ntag_128:\n    /* \"#utility.yul\":5955:5961   */\n  dup7\n    /* \"#utility.yul\":5946:5953   */\n  dup4\n    /* \"#utility.yul\":5943:5962   */\n  lt\n    /* \"#utility.yul\":5940:6119   */\n  iszero\n  tag_129\n  jumpi\n    /* \"#utility.yul\":6013:6022   */\n  dup5\n    /* \"#utility.yul\":6008:6011   */\n  dup10\n    /* \"#utility.yul\":6004:6023   */\n  add\n    /* \"#utility.yul\":5998:6024   */\n  mload\n    /* \"#utility.yul\":6056:6104   */\n  tag_130\n    /* \"#utility.yul\":6098:6102   */\n  0x1f\n    /* \"#utility.yul\":6090:6096   */\n  dup10\n    /* \"#utility.yul\":6086:6103   */\n  and\n    /* \"#utility.yul\":6075:6084   */\n  dup3\n    /* \"#utility.yul\":6056:6104   */\n  tag_52\n  jump\t// in\ntag_130:\n    /* \"#utility.yul\":6048:6054   */\n  dup4\n    /* \"#utility.yul\":6041:6105   */\n  sstore\n    /* \"#utility.yul\":5963:6119   */\n  pop\n    /* \"#utility.yul\":5940:6119   */\ntag_129:\n    /* \"#utility.yul\":6165:6166   */\n  0x01\n    /* \"#utility.yul\":6161:6162   */\n  0x02\n    /* \"#utility.yul\":6153:6159   */\n  dup9\n    /* \"#utility.yul\":6149:6163   */\n  mul\n    /* \"#utility.yul\":6145:6167   */\n  add\n    /* \"#utility.yul\":6139:6143   */\n  dup9\n    /* \"#utility.yul\":6132:6168   */\n  sstore\n    /* \"#utility.yul\":5567:6178   */\n  pop\n  pop\n  pop\n    /* \"#utility.yul\":5530:6417   */\ntag_121:\n  pop\n    /* \"#utility.yul\":5120:6423   */\n  pop\n  pop\n  pop\n    /* \"#utility.yul\":5028:6423   */\n  pop\n  pop\n  jump\t// out\n    /* \"GettingStarted/StreamsUpkeep.sol\":3156:8520  contract StreamsUpkeep is ILogAutomation, StreamsLookupCompatibleInterface {... */\ntag_8:\n  dataSize(sub_0)\n  dup1\n  dataOffset(sub_0)\n  0x00\n  codecopy\n  0x00\n  return\nstop\ndata_1a934627dd17cd609e68b9ab6643d023cc6e64af04072261d91199a9026d67df 307830303033353938343361353433656532666534313464633134633765373932306566313066343337323939306237396436333631636463306464316261373832\n\nsub_0: assembly {\n        /* \"GettingStarted/StreamsUpkeep.sol\":3156:8520  contract StreamsUpkeep is ILogAutomation, StreamsLookupCompatibleInterface {... */\n      mstore(0x40, 0x80)\n      jumpi(tag_1, lt(calldatasize, 0x04))\n      shr(0xe0, calldataload(0x00))\n      dup1\n      0x4585e33b\n      gt\n      tag_13\n      jumpi\n      dup1\n      0x4585e33b\n      eq\n      tag_8\n      jumpi\n      dup1\n      0x4b56a42e\n      eq\n      tag_9\n      jumpi\n      dup1\n      0xb7f433d1\n      eq\n      tag_10\n      jumpi\n      dup1\n      0xe13b822d\n      eq\n      tag_11\n      jumpi\n      dup1\n      0xeb1edd61\n      eq\n      tag_12\n      jumpi\n      jump(tag_2)\n    tag_13:\n      dup1\n      0x08c9e24e\n      eq\n      tag_3\n      jumpi\n      dup1\n      0x0fb172fb\n      eq\n      tag_4\n      jumpi\n      dup1\n      0x1b83ca1e\n      eq\n      tag_5\n      jumpi\n      dup1\n      0x2b7ac3f3\n      eq\n      tag_6\n      jumpi\n      dup1\n      0x40691db4\n      eq\n      tag_7\n      jumpi\n      jump(tag_2)\n    tag_1:\n    tag_2:\n      stop\n        /* \"GettingStarted/StreamsUpkeep.sol\":4313:4369  string public constant DATASTREAMS_FEEDLABEL = \"feedIDs\" */\n    tag_3:\n      callvalue\n      dup1\n      iszero\n      tag_16\n      jumpi\n      0x00\n      dup1\n      revert\n    tag_16:\n      pop\n      tag_17\n      tag_18\n      jump\t// in\n    tag_17:\n      mload(0x40)\n      tag_19\n      swap2\n      swap1\n      tag_20\n      jump\t// in\n    tag_19:\n      mload(0x40)\n      dup1\n      swap2\n      sub\n      swap1\n      return\n        /* \"GettingStarted/StreamsUpkeep.sol\":5751:6175  function checkErrorHandler(... */\n    tag_4:\n      callvalue\n      dup1\n      iszero\n      tag_21\n      jumpi\n      0x00\n      dup1\n      revert\n    tag_21:\n      pop\n      tag_22\n      0x04\n      dup1\n      calldatasize\n      sub\n      dup2\n      add\n      swap1\n      tag_23\n      swap2\n      swap1\n      tag_24\n      jump\t// in\n    tag_23:\n      tag_25\n      jump\t// in\n    tag_22:\n      mload(0x40)\n      tag_26\n      swap3\n      swap2\n      swap1\n      tag_27\n      jump\t// in\n    tag_26:\n      mload(0x40)\n      dup1\n      swap2\n      sub\n      swap1\n      return\n        /* \"GettingStarted/StreamsUpkeep.sol\":4376:4435  string public constant DATASTREAMS_QUERYLABEL = \"timestamp\" */\n    tag_5:\n      callvalue\n      dup1\n      iszero\n      tag_28\n      jumpi\n      0x00\n      dup1\n      revert\n    tag_28:\n      pop\n      tag_29\n      tag_30\n      jump\t// in\n    tag_29:\n      mload(0x40)\n      tag_31\n      swap2\n      swap1\n      tag_20\n      jump\t// in\n    tag_31:\n      mload(0x40)\n      dup1\n      swap2\n      sub\n      swap1\n      return\n        /* \"GettingStarted/StreamsUpkeep.sol\":4241:4271  IVerifierProxy public verifier */\n    tag_6:\n      callvalue\n      dup1\n      iszero\n      tag_32\n      jumpi\n      0x00\n      dup1\n      revert\n    tag_32:\n      pop\n      tag_33\n      tag_34\n      jump\t// in\n    tag_33:\n      mload(0x40)\n      tag_35\n      swap2\n      swap1\n      tag_36\n      jump\t// in\n    tag_35:\n      mload(0x40)\n      dup1\n      swap2\n      sub\n      swap1\n      return\n        /* \"GettingStarted/StreamsUpkeep.sol\":5002:5330  function checkLog(... */\n    tag_7:\n      callvalue\n      dup1\n      iszero\n      tag_37\n      jumpi\n      0x00\n      dup1\n      revert\n    tag_37:\n      pop\n      tag_38\n      0x04\n      dup1\n      calldatasize\n      sub\n      dup2\n      add\n      swap1\n      tag_39\n      swap2\n      swap1\n      tag_40\n      jump\t// in\n    tag_39:\n      tag_41\n      jump\t// in\n    tag_38:\n      mload(0x40)\n      tag_42\n      swap3\n      swap2\n      swap1\n      tag_27\n      jump\t// in\n    tag_42:\n      mload(0x40)\n      dup1\n      swap2\n      sub\n      swap1\n      return\n        /* \"GettingStarted/StreamsUpkeep.sol\":6779:8479  function performUpkeep(bytes calldata performData) external {... */\n    tag_8:\n      callvalue\n      dup1\n      iszero\n      tag_43\n      jumpi\n      0x00\n      dup1\n      revert\n    tag_43:\n      pop\n      tag_44\n      0x04\n      dup1\n      calldatasize\n      sub\n      dup2\n      add\n      swap1\n      tag_45\n      swap2\n      swap1\n      tag_46\n      jump\t// in\n    tag_45:\n      tag_47\n      jump\t// in\n    tag_44:\n      stop\n        /* \"GettingStarted/StreamsUpkeep.sol\":6523:6728  function checkCallback(... */\n    tag_9:\n      callvalue\n      dup1\n      iszero\n      tag_48\n      jumpi\n      0x00\n      dup1\n      revert\n    tag_48:\n      pop\n      tag_49\n      0x04\n      dup1\n      calldatasize\n      sub\n      dup2\n      add\n      swap1\n      tag_50\n      swap2\n      swap1\n      tag_51\n      jump\t// in\n    tag_50:\n      tag_52\n      jump\t// in\n    tag_49:\n      mload(0x40)\n      tag_53\n      swap3\n      swap2\n      swap1\n      tag_27\n      jump\t// in\n    tag_53:\n      mload(0x40)\n      dup1\n      swap2\n      sub\n      swap1\n      return\n        /* \"GettingStarted/StreamsUpkeep.sol\":4650:4762  string[] public feedIds = [... */\n    tag_10:\n      callvalue\n      dup1\n      iszero\n      tag_54\n      jumpi\n      0x00\n      dup1\n      revert\n    tag_54:\n      pop\n      tag_55\n      0x04\n      dup1\n      calldatasize\n      sub\n      dup2\n      add\n      swap1\n      tag_56\n      swap2\n      swap1\n      tag_57\n      jump\t// in\n    tag_56:\n      tag_58\n      jump\t// in\n    tag_55:\n      mload(0x40)\n      tag_59\n      swap2\n      swap1\n      tag_20\n      jump\t// in\n    tag_59:\n      mload(0x40)\n      dup1\n      swap2\n      sub\n      swap1\n      return\n        /* \"GettingStarted/StreamsUpkeep.sol\":4442:4476  int192 public last_retrieved_price */\n    tag_11:\n      callvalue\n      dup1\n      iszero\n      tag_60\n      jumpi\n      0x00\n      dup1\n      revert\n    tag_60:\n      pop\n      tag_61\n      tag_62\n      jump\t// in\n    tag_61:\n      mload(0x40)\n      tag_63\n      swap2\n      swap1\n      tag_64\n      jump\t// in\n    tag_63:\n      mload(0x40)\n      dup1\n      swap2\n      sub\n      swap1\n      return\n        /* \"GettingStarted/StreamsUpkeep.sol\":4280:4306  address public FEE_ADDRESS */\n    tag_12:\n      callvalue\n      dup1\n      iszero\n      tag_65\n      jumpi\n      0x00\n      dup1\n      revert\n    tag_65:\n      pop\n      tag_66\n      tag_67\n      jump\t// in\n    tag_66:\n      mload(0x40)\n      tag_68\n      swap2\n      swap1\n      tag_69\n      jump\t// in\n    tag_68:\n      mload(0x40)\n      dup1\n      swap2\n      sub\n      swap1\n      return\n        /* \"GettingStarted/StreamsUpkeep.sol\":4313:4369  string public constant DATASTREAMS_FEEDLABEL = \"feedIDs\" */\n    tag_18:\n      mload(0x40)\n      dup1\n      0x40\n      add\n      0x40\n      mstore\n      dup1\n      0x07\n      dup2\n      mstore\n      0x20\n      add\n      0x6665656449447300000000000000000000000000000000000000000000000000\n      dup2\n      mstore\n      pop\n      dup2\n      jump\t// out\n        /* \"GettingStarted/StreamsUpkeep.sol\":5751:6175  function checkErrorHandler(... */\n    tag_25:\n        /* \"GettingStarted/StreamsUpkeep.sol\":5875:5892  bool upkeepNeeded */\n      0x00\n        /* \"GettingStarted/StreamsUpkeep.sol\":5894:5918  bytes memory performData */\n      0x60\n        /* \"GettingStarted/StreamsUpkeep.sol\":5939:5943  true */\n      0x01\n        /* \"GettingStarted/StreamsUpkeep.sol\":5931:5949  return (true, \"0\") */\n      mload(0x40)\n      dup1\n      0x40\n      add\n      0x40\n      mstore\n      dup1\n      0x01\n      dup2\n      mstore\n      0x20\n      add\n      0x3000000000000000000000000000000000000000000000000000000000000000\n      dup2\n      mstore\n      pop\n      swap2\n      pop\n      swap2\n      pop\n        /* \"GettingStarted/StreamsUpkeep.sol\":5751:6175  function checkErrorHandler(... */\n      swap3\n      pop\n      swap3\n      swap1\n      pop\n      jump\t// out\n        /* \"GettingStarted/StreamsUpkeep.sol\":4376:4435  string public constant DATASTREAMS_QUERYLABEL = \"timestamp\" */\n    tag_30:\n      mload(0x40)\n      dup1\n      0x40\n      add\n      0x40\n      mstore\n      dup1\n      0x09\n      dup2\n      mstore\n      0x20\n      add\n      0x74696d657374616d700000000000000000000000000000000000000000000000\n      dup2\n      mstore\n      pop\n      dup2\n      jump\t// out\n        /* \"GettingStarted/StreamsUpkeep.sol\":4241:4271  IVerifierProxy public verifier */\n    tag_34:\n      0x00\n      dup1\n      sload\n      swap1\n      0x0100\n      exp\n      swap1\n      div\n      0xffffffffffffffffffffffffffffffffffffffff\n      and\n      dup2\n      jump\t// out\n        /* \"GettingStarted/StreamsUpkeep.sol\":5002:5330  function checkLog(... */\n    tag_41:\n        /* \"GettingStarted/StreamsUpkeep.sol\":5095:5112  bool upkeepNeeded */\n      0x00\n        /* \"GettingStarted/StreamsUpkeep.sol\":5114:5138  bytes memory performData */\n      0x60\n        /* \"GettingStarted/StreamsUpkeep.sol\":5186:5207  DATASTREAMS_FEEDLABEL */\n      mload(0x40)\n      dup1\n      0x40\n      add\n      0x40\n      mstore\n      dup1\n      0x07\n      dup2\n      mstore\n      0x20\n      add\n      0x6665656449447300000000000000000000000000000000000000000000000000\n      dup2\n      mstore\n      pop\n        /* \"GettingStarted/StreamsUpkeep.sol\":5222:5229  feedIds */\n      0x03\n        /* \"GettingStarted/StreamsUpkeep.sol\":5244:5266  DATASTREAMS_QUERYLABEL */\n      mload(0x40)\n      dup1\n      0x40\n      add\n      0x40\n      mstore\n      dup1\n      0x09\n      dup2\n      mstore\n      0x20\n      add\n      0x74696d657374616d700000000000000000000000000000000000000000000000\n      dup2\n      mstore\n      pop\n        /* \"GettingStarted/StreamsUpkeep.sol\":5281:5284  log */\n      dup7\n        /* \"GettingStarted/StreamsUpkeep.sol\":5281:5294  log.timestamp */\n      0x20\n      add\n      calldataload\n        /* \"GettingStarted/StreamsUpkeep.sol\":5158:5322  StreamsLookup(... */\n      mload(0x40)\n      0xf055e4a200000000000000000000000000000000000000000000000000000000\n      dup2\n      mstore\n      0x04\n      add\n      tag_72\n      swap5\n      swap4\n      swap3\n      swap2\n      swap1\n      tag_73\n      jump\t// in\n    tag_72:\n      mload(0x40)\n      dup1\n      swap2\n      sub\n      swap1\n      revert\n        /* \"GettingStarted/StreamsUpkeep.sol\":6779:8479  function performUpkeep(bytes calldata performData) external {... */\n    tag_47:\n        /* \"GettingStarted/StreamsUpkeep.sol\":7007:7035  bytes[] memory signedReports */\n      0x00\n        /* \"GettingStarted/StreamsUpkeep.sol\":7037:7059  bytes memory extraData */\n      dup1\n        /* \"GettingStarted/StreamsUpkeep.sol\":7088:7099  performData */\n      dup4\n      dup4\n        /* \"GettingStarted/StreamsUpkeep.sol\":7063:7141  abi.decode(... */\n      dup2\n      add\n      swap1\n      tag_75\n      swap2\n      swap1\n      tag_76\n      jump\t// in\n    tag_75:\n        /* \"GettingStarted/StreamsUpkeep.sol\":7006:7141  (bytes[] memory signedReports, bytes memory extraData) = abi.decode(... */\n      swap2\n      pop\n      swap2\n      pop\n        /* \"GettingStarted/StreamsUpkeep.sol\":7154:7183  bytes memory unverifiedReport */\n      0x00\n        /* \"GettingStarted/StreamsUpkeep.sol\":7186:7199  signedReports */\n      dup3\n        /* \"GettingStarted/StreamsUpkeep.sol\":7200:7201  0 */\n      0x00\n        /* \"GettingStarted/StreamsUpkeep.sol\":7186:7202  signedReports[0] */\n      dup2\n      mload\n      dup2\n      lt\n      tag_77\n      jumpi\n      tag_78\n      tag_79\n      jump\t// in\n    tag_78:\n    tag_77:\n      0x20\n      mul\n      0x20\n      add\n      add\n      mload\n        /* \"GettingStarted/StreamsUpkeep.sol\":7154:7202  bytes memory unverifiedReport = signedReports[0] */\n      swap1\n      pop\n        /* \"GettingStarted/StreamsUpkeep.sol\":7253:7276  bytes memory reportData */\n      0x00\n        /* \"GettingStarted/StreamsUpkeep.sol\":7305:7321  unverifiedReport */\n      dup2\n        /* \"GettingStarted/StreamsUpkeep.sol\":7280:7343  abi... */\n      dup1\n      0x20\n      add\n      swap1\n      mload\n      dup2\n      add\n      swap1\n      tag_80\n      swap2\n      swap1\n      tag_81\n      jump\t// in\n    tag_80:\n        /* \"GettingStarted/StreamsUpkeep.sol\":7215:7343  (, /* bytes32[3] reportContextData */ bytes memory reportData) = abi... */\n      swap2\n      pop\n      pop\n        /* \"GettingStarted/StreamsUpkeep.sol\":7393:7415  IFeeManager feeManager */\n      0x00\n        /* \"GettingStarted/StreamsUpkeep.sol\":7438:7446  verifier */\n      dup1\n      0x00\n      swap1\n      sload\n      swap1\n      0x0100\n      exp\n      swap1\n      div\n      0xffffffffffffffffffffffffffffffffffffffff\n      and\n        /* \"GettingStarted/StreamsUpkeep.sol\":7438:7459  verifier.s_feeManager */\n      0xffffffffffffffffffffffffffffffffffffffff\n      and\n      0x38416b5b\n        /* \"GettingStarted/StreamsUpkeep.sol\":7438:7461  verifier.s_feeManager() */\n      mload(0x40)\n      dup2\n      0xffffffff\n      and\n      0xe0\n      shl\n      dup2\n      mstore\n      0x04\n      add\n      0x20\n      mload(0x40)\n      dup1\n      dup4\n      sub\n      dup2\n      dup7\n      gas\n      staticcall\n      iszero\n      dup1\n      iszero\n      tag_83\n      jumpi\n      returndatasize\n      0x00\n      dup1\n      returndatacopy\n      revert(0x00, returndatasize)\n    tag_83:\n      pop\n      pop\n      pop\n      pop\n      mload(0x40)\n      returndatasize\n      not(0x1f)\n      0x1f\n      dup3\n      add\n      and\n      dup3\n      add\n      dup1\n      0x40\n      mstore\n      pop\n      dup2\n      add\n      swap1\n      tag_84\n      swap2\n      swap1\n      tag_85\n      jump\t// in\n    tag_84:\n        /* \"GettingStarted/StreamsUpkeep.sol\":7393:7463  IFeeManager feeManager = IFeeManager(address(verifier.s_feeManager())) */\n      swap1\n      pop\n        /* \"GettingStarted/StreamsUpkeep.sol\":7474:7502  IRewardManager rewardManager */\n      0x00\n        /* \"GettingStarted/StreamsUpkeep.sol\":7542:7552  feeManager */\n      dup2\n        /* \"GettingStarted/StreamsUpkeep.sol\":7542:7568  feeManager.i_rewardManager */\n      0xffffffffffffffffffffffffffffffffffffffff\n      and\n      0x3aa5ac07\n        /* \"GettingStarted/StreamsUpkeep.sol\":7542:7570  feeManager.i_rewardManager() */\n      mload(0x40)\n      dup2\n      0xffffffff\n      and\n      0xe0\n      shl\n      dup2\n      mstore\n      0x04\n      add\n      0x20\n      mload(0x40)\n      dup1\n      dup4\n      sub\n      dup2\n      dup7\n      gas\n      staticcall\n      iszero\n      dup1\n      iszero\n      tag_87\n      jumpi\n      returndatasize\n      0x00\n      dup1\n      returndatacopy\n      revert(0x00, returndatasize)\n    tag_87:\n      pop\n      pop\n      pop\n      pop\n      mload(0x40)\n      returndatasize\n      not(0x1f)\n      0x1f\n      dup3\n      add\n      and\n      dup3\n      add\n      dup1\n      0x40\n      mstore\n      pop\n      dup2\n      add\n      swap1\n      tag_88\n      swap2\n      swap1\n      tag_89\n      jump\t// in\n    tag_88:\n        /* \"GettingStarted/StreamsUpkeep.sol\":7474:7582  IRewardManager rewardManager = IRewardManager(... */\n      swap1\n      pop\n        /* \"GettingStarted/StreamsUpkeep.sol\":7595:7618  address feeTokenAddress */\n      0x00\n        /* \"GettingStarted/StreamsUpkeep.sol\":7621:7631  feeManager */\n      dup3\n        /* \"GettingStarted/StreamsUpkeep.sol\":7621:7645  feeManager.i_linkAddress */\n      0xffffffffffffffffffffffffffffffffffffffff\n      and\n      0xea4b861b\n        /* \"GettingStarted/StreamsUpkeep.sol\":7621:7647  feeManager.i_linkAddress() */\n      mload(0x40)\n      dup2\n      0xffffffff\n      and\n      0xe0\n      shl\n      dup2\n      mstore\n      0x04\n      add\n      0x20\n      mload(0x40)\n      dup1\n      dup4\n      sub\n      dup2\n      dup7\n      gas\n      staticcall\n      iszero\n      dup1\n      iszero\n      tag_91\n      jumpi\n      returndatasize\n      0x00\n      dup1\n      returndatacopy\n      revert(0x00, returndatasize)\n    tag_91:\n      pop\n      pop\n      pop\n      pop\n      mload(0x40)\n      returndatasize\n      not(0x1f)\n      0x1f\n      dup3\n      add\n      and\n      dup3\n      add\n      dup1\n      0x40\n      mstore\n      pop\n      dup2\n      add\n      swap1\n      tag_92\n      swap2\n      swap1\n      tag_89\n      jump\t// in\n    tag_92:\n        /* \"GettingStarted/StreamsUpkeep.sol\":7595:7647  address feeTokenAddress = feeManager.i_linkAddress() */\n      swap1\n      pop\n        /* \"GettingStarted/StreamsUpkeep.sol\":7659:7682  Common.Asset memory fee */\n      0x00\n        /* \"GettingStarted/StreamsUpkeep.sol\":7690:7700  feeManager */\n      dup4\n        /* \"GettingStarted/StreamsUpkeep.sol\":7690:7716  feeManager.getFeeAndReward */\n      0xffffffffffffffffffffffffffffffffffffffff\n      and\n      0xe03dab1a\n        /* \"GettingStarted/StreamsUpkeep.sol\":7739:7743  this */\n      address\n        /* \"GettingStarted/StreamsUpkeep.sol\":7759:7769  reportData */\n      dup8\n        /* \"GettingStarted/StreamsUpkeep.sol\":7784:7799  feeTokenAddress */\n      dup6\n        /* \"GettingStarted/StreamsUpkeep.sol\":7690:7810  feeManager.getFeeAndReward(... */\n      mload(0x40)\n      dup5\n      0xffffffff\n      and\n      0xe0\n      shl\n      dup2\n      mstore\n      0x04\n      add\n      tag_93\n      swap4\n      swap3\n      swap2\n      swap1\n      tag_94\n      jump\t// in\n    tag_93:\n      0xa0\n      mload(0x40)\n      dup1\n      dup4\n      sub\n      dup2\n      0x00\n      dup8\n      gas\n      call\n      iszero\n      dup1\n      iszero\n      tag_96\n      jumpi\n      returndatasize\n      0x00\n      dup1\n      returndatacopy\n      revert(0x00, returndatasize)\n    tag_96:\n      pop\n      pop\n      pop\n      pop\n      mload(0x40)\n      returndatasize\n      not(0x1f)\n      0x1f\n      dup3\n      add\n      and\n      dup3\n      add\n      dup1\n      0x40\n      mstore\n      pop\n      dup2\n      add\n      swap1\n      tag_97\n      swap2\n      swap1\n      tag_98\n      jump\t// in\n    tag_97:\n        /* \"GettingStarted/StreamsUpkeep.sol\":7658:7810  (Common.Asset memory fee, , ) = feeManager.getFeeAndReward(... */\n      pop\n      pop\n      swap1\n      pop\n        /* \"GettingStarted/StreamsUpkeep.sol\":7905:7920  feeTokenAddress */\n      dup2\n        /* \"GettingStarted/StreamsUpkeep.sol\":7898:7929  IERC20(feeTokenAddress).approve */\n      0xffffffffffffffffffffffffffffffffffffffff\n      and\n      0x095ea7b3\n        /* \"GettingStarted/StreamsUpkeep.sol\":7938:7951  rewardManager */\n      dup5\n        /* \"GettingStarted/StreamsUpkeep.sol\":7954:7957  fee */\n      dup4\n        /* \"GettingStarted/StreamsUpkeep.sol\":7954:7964  fee.amount */\n      0x20\n      add\n      mload\n        /* \"GettingStarted/StreamsUpkeep.sol\":7898:7965  IERC20(feeTokenAddress).approve(address(rewardManager), fee.amount) */\n      mload(0x40)\n      dup4\n      0xffffffff\n      and\n      0xe0\n      shl\n      dup2\n      mstore\n      0x04\n      add\n      tag_99\n      swap3\n      swap2\n      swap1\n      tag_100\n      jump\t// in\n    tag_99:\n      0x20\n      mload(0x40)\n      dup1\n      dup4\n      sub\n      dup2\n      0x00\n      dup8\n      gas\n      call\n      iszero\n      dup1\n      iszero\n      tag_102\n      jumpi\n      returndatasize\n      0x00\n      dup1\n      returndatacopy\n      revert(0x00, returndatasize)\n    tag_102:\n      pop\n      pop\n      pop\n      pop\n      mload(0x40)\n      returndatasize\n      not(0x1f)\n      0x1f\n      dup3\n      add\n      and\n      dup3\n      add\n      dup1\n      0x40\n      mstore\n      pop\n      dup2\n      add\n      swap1\n      tag_103\n      swap2\n      swap1\n      tag_104\n      jump\t// in\n    tag_103:\n      pop\n        /* \"GettingStarted/StreamsUpkeep.sol\":8008:8039  bytes memory verifiedReportData */\n      0x00\n        /* \"GettingStarted/StreamsUpkeep.sol\":8042:8050  verifier */\n      dup1\n      0x00\n      swap1\n      sload\n      swap1\n      0x0100\n      exp\n      swap1\n      div\n      0xffffffffffffffffffffffffffffffffffffffff\n      and\n        /* \"GettingStarted/StreamsUpkeep.sol\":8042:8057  verifier.verify */\n      0xffffffffffffffffffffffffffffffffffffffff\n      and\n      0xf7e83aee\n        /* \"GettingStarted/StreamsUpkeep.sol\":8072:8088  unverifiedReport */\n      dup9\n        /* \"GettingStarted/StreamsUpkeep.sol\":8114:8129  feeTokenAddress */\n      dup6\n        /* \"GettingStarted/StreamsUpkeep.sol\":8103:8130  abi.encode(feeTokenAddress) */\n      add(0x20, mload(0x40))\n      tag_105\n      swap2\n      swap1\n      tag_69\n      jump\t// in\n    tag_105:\n      mload(0x40)\n      0x20\n      dup2\n      dup4\n      sub\n      sub\n      dup2\n      mstore\n      swap1\n      0x40\n      mstore\n        /* \"GettingStarted/StreamsUpkeep.sol\":8042:8141  verifier.verify(... */\n      mload(0x40)\n      dup4\n      0xffffffff\n      and\n      0xe0\n      shl\n      dup2\n      mstore\n      0x04\n      add\n      tag_106\n      swap3\n      swap2\n      swap1\n      tag_107\n      jump\t// in\n    tag_106:\n      0x00\n      mload(0x40)\n      dup1\n      dup4\n      sub\n      dup2\n      0x00\n      dup8\n      gas\n      call\n      iszero\n      dup1\n      iszero\n      tag_109\n      jumpi\n      returndatasize\n      0x00\n      dup1\n      returndatacopy\n      revert(0x00, returndatasize)\n    tag_109:\n      pop\n      pop\n      pop\n      pop\n      mload(0x40)\n      returndatasize\n      0x00\n      dup3\n      returndatacopy\n      returndatasize\n      not(0x1f)\n      0x1f\n      dup3\n      add\n      and\n      dup3\n      add\n      dup1\n      0x40\n      mstore\n      pop\n      dup2\n      add\n      swap1\n      tag_110\n      swap2\n      swap1\n      tag_111\n      jump\t// in\n    tag_110:\n        /* \"GettingStarted/StreamsUpkeep.sol\":8008:8141  bytes memory verifiedReportData = verifier.verify(... */\n      swap1\n      pop\n        /* \"GettingStarted/StreamsUpkeep.sol\":8215:8243  Report memory verifiedReport */\n      0x00\n        /* \"GettingStarted/StreamsUpkeep.sol\":8257:8275  verifiedReportData */\n      dup2\n        /* \"GettingStarted/StreamsUpkeep.sol\":8246:8286  abi.decode(verifiedReportData, (Report)) */\n      dup1\n      0x20\n      add\n      swap1\n      mload\n      dup2\n      add\n      swap1\n      tag_112\n      swap2\n      swap1\n      tag_113\n      jump\t// in\n    tag_112:\n        /* \"GettingStarted/StreamsUpkeep.sol\":8215:8286  Report memory verifiedReport = abi.decode(verifiedReportData, (Report)) */\n      swap1\n      pop\n        /* \"GettingStarted/StreamsUpkeep.sol\":8350:8364  verifiedReport */\n      dup1\n        /* \"GettingStarted/StreamsUpkeep.sol\":8350:8370  verifiedReport.price */\n      0xc0\n      add\n      mload\n        /* \"GettingStarted/StreamsUpkeep.sol\":8338:8371  PriceUpdate(verifiedReport.price) */\n      0x17\n      signextend\n      0x6ccdfe05a72266f3fa83f39de58fc57462b379bef18aabfe30d5527d0d8d3cd1\n      mload(0x40)\n      mload(0x40)\n      dup1\n      swap2\n      sub\n      swap1\n      log2\n        /* \"GettingStarted/StreamsUpkeep.sol\":8451:8465  verifiedReport */\n      dup1\n        /* \"GettingStarted/StreamsUpkeep.sol\":8451:8471  verifiedReport.price */\n      0xc0\n      add\n      mload\n        /* \"GettingStarted/StreamsUpkeep.sol\":8428:8448  last_retrieved_price */\n      0x02\n      0x00\n        /* \"GettingStarted/StreamsUpkeep.sol\":8428:8471  last_retrieved_price = verifiedReport.price */\n      0x0100\n      exp\n      dup2\n      sload\n      dup2\n      0xffffffffffffffffffffffffffffffffffffffffffffffff\n      mul\n      not\n      and\n      swap1\n      dup4\n      0x17\n      signextend\n      0xffffffffffffffffffffffffffffffffffffffffffffffff\n      and\n      mul\n      or\n      swap1\n      sstore\n      pop\n        /* \"GettingStarted/StreamsUpkeep.sol\":6839:8479  {... */\n      pop\n      pop\n      pop\n      pop\n      pop\n      pop\n      pop\n      pop\n      pop\n      pop\n        /* \"GettingStarted/StreamsUpkeep.sol\":6779:8479  function performUpkeep(bytes calldata performData) external {... */\n      pop\n      pop\n      jump\t// out\n        /* \"GettingStarted/StreamsUpkeep.sol\":6523:6728  function checkCallback(... */\n    tag_52:\n        /* \"GettingStarted/StreamsUpkeep.sol\":6645:6649  bool */\n      0x00\n        /* \"GettingStarted/StreamsUpkeep.sol\":6651:6663  bytes memory */\n      0x60\n        /* \"GettingStarted/StreamsUpkeep.sol\":6684:6688  true */\n      0x01\n        /* \"GettingStarted/StreamsUpkeep.sol\":6701:6707  values */\n      dup7\n      dup7\n        /* \"GettingStarted/StreamsUpkeep.sol\":6709:6718  extraData */\n      dup7\n      dup7\n        /* \"GettingStarted/StreamsUpkeep.sol\":6690:6719  abi.encode(values, extraData) */\n      add(0x20, mload(0x40))\n      tag_115\n      swap5\n      swap4\n      swap3\n      swap2\n      swap1\n      tag_116\n      jump\t// in\n    tag_115:\n      mload(0x40)\n      0x20\n      dup2\n      dup4\n      sub\n      sub\n      dup2\n      mstore\n      swap1\n      0x40\n      mstore\n        /* \"GettingStarted/StreamsUpkeep.sol\":6676:6720  return (true, abi.encode(values, extraData)) */\n      swap2\n      pop\n      swap2\n      pop\n        /* \"GettingStarted/StreamsUpkeep.sol\":6523:6728  function checkCallback(... */\n      swap5\n      pop\n      swap5\n      swap3\n      pop\n      pop\n      pop\n      jump\t// out\n        /* \"GettingStarted/StreamsUpkeep.sol\":4650:4762  string[] public feedIds = [... */\n    tag_58:\n      0x03\n      dup2\n      dup2\n      sload\n      dup2\n      lt\n      tag_117\n      jumpi\n      0x00\n      dup1\n      revert\n    tag_117:\n      swap1\n      0x00\n      mstore\n      keccak256(0x00, 0x20)\n      add\n      0x00\n      swap2\n      pop\n      swap1\n      pop\n      dup1\n      sload\n      tag_119\n      swap1\n      tag_120\n      jump\t// in\n    tag_119:\n      dup1\n      0x1f\n      add\n      0x20\n      dup1\n      swap2\n      div\n      mul\n      0x20\n      add\n      mload(0x40)\n      swap1\n      dup2\n      add\n      0x40\n      mstore\n      dup1\n      swap3\n      swap2\n      swap1\n      dup2\n      dup2\n      mstore\n      0x20\n      add\n      dup3\n      dup1\n      sload\n      tag_121\n      swap1\n      tag_120\n      jump\t// in\n    tag_121:\n      dup1\n      iszero\n      tag_122\n      jumpi\n      dup1\n      0x1f\n      lt\n      tag_123\n      jumpi\n      0x0100\n      dup1\n      dup4\n      sload\n      div\n      mul\n      dup4\n      mstore\n      swap2\n      0x20\n      add\n      swap2\n      jump(tag_122)\n    tag_123:\n      dup3\n      add\n      swap2\n      swap1\n      0x00\n      mstore\n      keccak256(0x00, 0x20)\n      swap1\n    tag_124:\n      dup2\n      sload\n      dup2\n      mstore\n      swap1\n      0x01\n      add\n      swap1\n      0x20\n      add\n      dup1\n      dup4\n      gt\n      tag_124\n      jumpi\n      dup3\n      swap1\n      sub\n      0x1f\n      and\n      dup3\n      add\n      swap2\n    tag_122:\n      pop\n      pop\n      pop\n      pop\n      pop\n      dup2\n      jump\t// out\n        /* \"GettingStarted/StreamsUpkeep.sol\":4442:4476  int192 public last_retrieved_price */\n    tag_62:\n      0x02\n      0x00\n      swap1\n      sload\n      swap1\n      0x0100\n      exp\n      swap1\n      div\n      0x17\n      signextend\n      dup2\n      jump\t// out\n        /* \"GettingStarted/StreamsUpkeep.sol\":4280:4306  address public FEE_ADDRESS */\n    tag_67:\n      0x01\n      0x00\n      swap1\n      sload\n      swap1\n      0x0100\n      exp\n      swap1\n      div\n      0xffffffffffffffffffffffffffffffffffffffff\n      and\n      dup2\n      jump\t// out\n        /* \"#utility.yul\":7:106   */\n    tag_125:\n        /* \"#utility.yul\":59:65   */\n      0x00\n        /* \"#utility.yul\":93:98   */\n      dup2\n        /* \"#utility.yul\":87:99   */\n      mload\n        /* \"#utility.yul\":77:99   */\n      swap1\n      pop\n        /* \"#utility.yul\":7:106   */\n      swap2\n      swap1\n      pop\n      jump\t// out\n        /* \"#utility.yul\":112:281   */\n    tag_126:\n        /* \"#utility.yul\":196:207   */\n      0x00\n        /* \"#utility.yul\":230:236   */\n      dup3\n        /* \"#utility.yul\":225:228   */\n      dup3\n        /* \"#utility.yul\":218:237   */\n      mstore\n        /* \"#utility.yul\":270:274   */\n      0x20\n        /* \"#utility.yul\":265:268   */\n      dup3\n        /* \"#utility.yul\":261:275   */\n      add\n        /* \"#utility.yul\":246:275   */\n      swap1\n      pop\n        /* \"#utility.yul\":112:281   */\n      swap3\n      swap2\n      pop\n      pop\n      jump\t// out\n        /* \"#utility.yul\":287:533   */\n    tag_127:\n        /* \"#utility.yul\":368:369   */\n      0x00\n        /* \"#utility.yul\":378:491   */\n    tag_226:\n        /* \"#utility.yul\":392:398   */\n      dup4\n        /* \"#utility.yul\":389:390   */\n      dup2\n        /* \"#utility.yul\":386:399   */\n      lt\n        /* \"#utility.yul\":378:491   */\n      iszero\n      tag_228\n      jumpi\n        /* \"#utility.yul\":477:478   */\n      dup1\n        /* \"#utility.yul\":472:475   */\n      dup3\n        /* \"#utility.yul\":468:479   */\n      add\n        /* \"#utility.yul\":462:480   */\n      mload\n        /* \"#utility.yul\":458:459   */\n      dup2\n        /* \"#utility.yul\":453:456   */\n      dup5\n        /* \"#utility.yul\":449:460   */\n      add\n        /* \"#utility.yul\":442:481   */\n      mstore\n        /* \"#utility.yul\":414:416   */\n      0x20\n        /* \"#utility.yul\":411:412   */\n      dup2\n        /* \"#utility.yul\":407:417   */\n      add\n        /* \"#utility.yul\":402:417   */\n      swap1\n      pop\n        /* \"#utility.yul\":378:491   */\n      jump(tag_226)\n    tag_228:\n        /* \"#utility.yul\":525:526   */\n      0x00\n        /* \"#utility.yul\":516:522   */\n      dup5\n        /* \"#utility.yul\":511:514   */\n      dup5\n        /* \"#utility.yul\":507:523   */\n      add\n        /* \"#utility.yul\":500:527   */\n      mstore\n        /* \"#utility.yul\":349:533   */\n      pop\n        /* \"#utility.yul\":287:533   */\n      pop\n      pop\n      pop\n      jump\t// out\n        /* \"#utility.yul\":539:641   */\n    tag_128:\n        /* \"#utility.yul\":580:586   */\n      0x00\n        /* \"#utility.yul\":631:633   */\n      0x1f\n        /* \"#utility.yul\":627:634   */\n      not\n        /* \"#utility.yul\":622:624   */\n      0x1f\n        /* \"#utility.yul\":615:620   */\n      dup4\n        /* \"#utility.yul\":611:625   */\n      add\n        /* \"#utility.yul\":607:635   */\n      and\n        /* \"#utility.yul\":597:635   */\n      swap1\n      pop\n        /* \"#utility.yul\":539:641   */\n      swap2\n      swap1\n      pop\n      jump\t// out\n        /* \"#utility.yul\":647:1024   */\n    tag_129:\n        /* \"#utility.yul\":735:738   */\n      0x00\n        /* \"#utility.yul\":763:802   */\n      tag_231\n        /* \"#utility.yul\":796:801   */\n      dup3\n        /* \"#utility.yul\":763:802   */\n      tag_125\n      jump\t// in\n    tag_231:\n        /* \"#utility.yul\":818:889   */\n      tag_232\n        /* \"#utility.yul\":882:888   */\n      dup2\n        /* \"#utility.yul\":877:880   */\n      dup6\n        /* \"#utility.yul\":818:889   */\n      tag_126\n      jump\t// in\n    tag_232:\n        /* \"#utility.yul\":811:889   */\n      swap4\n      pop\n        /* \"#utility.yul\":898:963   */\n      tag_233\n        /* \"#utility.yul\":956:962   */\n      dup2\n        /* \"#utility.yul\":951:954   */\n      dup6\n        /* \"#utility.yul\":944:948   */\n      0x20\n        /* \"#utility.yul\":937:942   */\n      dup7\n        /* \"#utility.yul\":933:949   */\n      add\n        /* \"#utility.yul\":898:963   */\n      tag_127\n      jump\t// in\n    tag_233:\n        /* \"#utility.yul\":988:1017   */\n      tag_234\n        /* \"#utility.yul\":1010:1016   */\n      dup2\n        /* \"#utility.yul\":988:1017   */\n      tag_128\n      jump\t// in\n    tag_234:\n        /* \"#utility.yul\":983:986   */\n      dup5\n        /* \"#utility.yul\":979:1018   */\n      add\n        /* \"#utility.yul\":972:1018   */\n      swap2\n      pop\n        /* \"#utility.yul\":739:1024   */\n      pop\n        /* \"#utility.yul\":647:1024   */\n      swap3\n      swap2\n      pop\n      pop\n      jump\t// out\n        /* \"#utility.yul\":1030:1343   */\n    tag_20:\n        /* \"#utility.yul\":1143:1147   */\n      0x00\n        /* \"#utility.yul\":1181:1183   */\n      0x20\n        /* \"#utility.yul\":1170:1179   */\n      dup3\n        /* \"#utility.yul\":1166:1184   */\n      add\n        /* \"#utility.yul\":1158:1184   */\n      swap1\n      pop\n        /* \"#utility.yul\":1230:1239   */\n      dup2\n        /* \"#utility.yul\":1224:1228   */\n      dup2\n        /* \"#utility.yul\":1220:1240   */\n      sub\n        /* \"#utility.yul\":1216:1217   */\n      0x00\n        /* \"#utility.yul\":1205:1214   */\n      dup4\n        /* \"#utility.yul\":1201:1218   */\n      add\n        /* \"#utility.yul\":1194:1241   */\n      mstore\n        /* \"#utility.yul\":1258:1336   */\n      tag_236\n        /* \"#utility.yul\":1331:1335   */\n      dup2\n        /* \"#utility.yul\":1322:1328   */\n      dup5\n        /* \"#utility.yul\":1258:1336   */\n      tag_129\n      jump\t// in\n    tag_236:\n        /* \"#utility.yul\":1250:1336   */\n      swap1\n      pop\n        /* \"#utility.yul\":1030:1343   */\n      swap3\n      swap2\n      pop\n      pop\n      jump\t// out\n        /* \"#utility.yul\":1349:1424   */\n    tag_130:\n        /* \"#utility.yul\":1382:1388   */\n      0x00\n        /* \"#utility.yul\":1415:1417   */\n      0x40\n        /* \"#utility.yul\":1409:1418   */\n      mload\n        /* \"#utility.yul\":1399:1418   */\n      swap1\n      pop\n        /* \"#utility.yul\":1349:1424   */\n      swap1\n      jump\t// out\n        /* \"#utility.yul\":1430:1547   */\n    tag_131:\n        /* \"#utility.yul\":1539:1540   */\n      0x00\n        /* \"#utility.yul\":1536:1537   */\n      dup1\n        /* \"#utility.yul\":1529:1541   */\n      revert\n        /* \"#utility.yul\":1553:1670   */\n    tag_132:\n        /* \"#utility.yul\":1662:1663   */\n      0x00\n        /* \"#utility.yul\":1659:1660   */\n      dup1\n        /* \"#utility.yul\":1652:1664   */\n      revert\n        /* \"#utility.yul\":1676:1753   */\n    tag_133:\n        /* \"#utility.yul\":1713:1720   */\n      0x00\n        /* \"#utility.yul\":1742:1747   */\n      dup2\n        /* \"#utility.yul\":1731:1747   */\n      swap1\n      pop\n        /* \"#utility.yul\":1676:1753   */\n      swap2\n      swap1\n      pop\n      jump\t// out\n        /* \"#utility.yul\":1759:1881   */\n    tag_134:\n        /* \"#utility.yul\":1832:1856   */\n      tag_242\n        /* \"#utility.yul\":1850:1855   */\n      dup2\n        /* \"#utility.yul\":1832:1856   */\n      tag_133\n      jump\t// in\n    tag_242:\n        /* \"#utility.yul\":1825:1830   */\n      dup2\n        /* \"#utility.yul\":1822:1857   */\n      eq\n        /* \"#utility.yul\":1812:1875   */\n      tag_243\n      jumpi\n        /* \"#utility.yul\":1871:1872   */\n      0x00\n        /* \"#utility.yul\":1868:1869   */\n      dup1\n        /* \"#utility.yul\":1861:1873   */\n      revert\n        /* \"#utility.yul\":1812:1875   */\n    tag_243:\n        /* \"#utility.yul\":1759:1881   */\n      pop\n      jump\t// out\n        /* \"#utility.yul\":1887:2026   */\n    tag_135:\n        /* \"#utility.yul\":1933:1938   */\n      0x00\n        /* \"#utility.yul\":1971:1977   */\n      dup2\n        /* \"#utility.yul\":1958:1978   */\n      calldataload\n        /* \"#utility.yul\":1949:1978   */\n      swap1\n      pop\n        /* \"#utility.yul\":1987:2020   */\n      tag_245\n        /* \"#utility.yul\":2014:2019   */\n      dup2\n        /* \"#utility.yul\":1987:2020   */\n      tag_134\n      jump\t// in\n    tag_245:\n        /* \"#utility.yul\":1887:2026   */\n      swap3\n      swap2\n      pop\n      pop\n      jump\t// out\n        /* \"#utility.yul\":2032:2149   */\n    tag_136:\n        /* \"#utility.yul\":2141:2142   */\n      0x00\n        /* \"#utility.yul\":2138:2139   */\n      dup1\n        /* \"#utility.yul\":2131:2143   */\n      revert\n        /* \"#utility.yul\":2155:2272   */\n    tag_137:\n        /* \"#utility.yul\":2264:2265   */\n      0x00\n        /* \"#utility.yul\":2261:2262   */\n      dup1\n        /* \"#utility.yul\":2254:2266   */\n      revert\n        /* \"#utility.yul\":2278:2458   */\n    tag_138:\n        /* \"#utility.yul\":2326:2403   */\n      0x4e487b7100000000000000000000000000000000000000000000000000000000\n        /* \"#utility.yul\":2323:2324   */\n      0x00\n        /* \"#utility.yul\":2316:2404   */\n      mstore\n        /* \"#utility.yul\":2423:2427   */\n      0x41\n        /* \"#utility.yul\":2420:2421   */\n      0x04\n        /* \"#utility.yul\":2413:2428   */\n      mstore\n        /* \"#utility.yul\":2447:2451   */\n      0x24\n        /* \"#utility.yul\":2444:2445   */\n      0x00\n        /* \"#utility.yul\":2437:2452   */\n      revert\n        /* \"#utility.yul\":2464:2745   */\n    tag_139:\n        /* \"#utility.yul\":2547:2574   */\n      tag_250\n        /* \"#utility.yul\":2569:2573   */\n      dup3\n        /* \"#utility.yul\":2547:2574   */\n      tag_128\n      jump\t// in\n    tag_250:\n        /* \"#utility.yul\":2539:2545   */\n      dup2\n        /* \"#utility.yul\":2535:2575   */\n      add\n        /* \"#utility.yul\":2677:2683   */\n      dup2\n        /* \"#utility.yul\":2665:2675   */\n      dup2\n        /* \"#utility.yul\":2662:2684   */\n      lt\n        /* \"#utility.yul\":2641:2659   */\n      0xffffffffffffffff\n        /* \"#utility.yul\":2629:2639   */\n      dup3\n        /* \"#utility.yul\":2626:2660   */\n      gt\n        /* \"#utility.yul\":2623:2685   */\n      or\n        /* \"#utility.yul\":2620:2708   */\n      iszero\n      tag_251\n      jumpi\n        /* \"#utility.yul\":2688:2706   */\n      tag_252\n      tag_138\n      jump\t// in\n    tag_252:\n        /* \"#utility.yul\":2620:2708   */\n    tag_251:\n        /* \"#utility.yul\":2728:2738   */\n      dup1\n        /* \"#utility.yul\":2724:2726   */\n      0x40\n        /* \"#utility.yul\":2717:2739   */\n      mstore\n        /* \"#utility.yul\":2507:2745   */\n      pop\n        /* \"#utility.yul\":2464:2745   */\n      pop\n      pop\n      jump\t// out\n        /* \"#utility.yul\":2751:2880   */\n    tag_140:\n        /* \"#utility.yul\":2785:2791   */\n      0x00\n        /* \"#utility.yul\":2812:2832   */\n      tag_254\n      tag_130\n      jump\t// in\n    tag_254:\n        /* \"#utility.yul\":2802:2832   */\n      swap1\n      pop\n        /* \"#utility.yul\":2841:2874   */\n      tag_255\n        /* \"#utility.yul\":2869:2873   */\n      dup3\n        /* \"#utility.yul\":2861:2867   */\n      dup3\n        /* \"#utility.yul\":2841:2874   */\n      tag_139\n      jump\t// in\n    tag_255:\n        /* \"#utility.yul\":2751:2880   */\n      swap2\n      swap1\n      pop\n      jump\t// out\n        /* \"#utility.yul\":2886:3193   */\n    tag_141:\n        /* \"#utility.yul\":2947:2951   */\n      0x00\n        /* \"#utility.yul\":3037:3055   */\n      0xffffffffffffffff\n        /* \"#utility.yul\":3029:3035   */\n      dup3\n        /* \"#utility.yul\":3026:3056   */\n      gt\n        /* \"#utility.yul\":3023:3079   */\n      iszero\n      tag_257\n      jumpi\n        /* \"#utility.yul\":3059:3077   */\n      tag_258\n      tag_138\n      jump\t// in\n    tag_258:\n        /* \"#utility.yul\":3023:3079   */\n    tag_257:\n        /* \"#utility.yul\":3097:3126   */\n      tag_259\n        /* \"#utility.yul\":3119:3125   */\n      dup3\n        /* \"#utility.yul\":3097:3126   */\n      tag_128\n      jump\t// in\n    tag_259:\n        /* \"#utility.yul\":3089:3126   */\n      swap1\n      pop\n        /* \"#utility.yul\":3181:3185   */\n      0x20\n        /* \"#utility.yul\":3175:3179   */\n      dup2\n        /* \"#utility.yul\":3171:3186   */\n      add\n        /* \"#utility.yul\":3163:3186   */\n      swap1\n      pop\n        /* \"#utility.yul\":2886:3193   */\n      swap2\n      swap1\n      pop\n      jump\t// out\n        /* \"#utility.yul\":3199:3345   */\n    tag_142:\n        /* \"#utility.yul\":3296:3302   */\n      dup3\n        /* \"#utility.yul\":3291:3294   */\n      dup2\n        /* \"#utility.yul\":3286:3289   */\n      dup4\n        /* \"#utility.yul\":3273:3303   */\n      calldatacopy\n        /* \"#utility.yul\":3337:3338   */\n      0x00\n        /* \"#utility.yul\":3328:3334   */\n      dup4\n        /* \"#utility.yul\":3323:3326   */\n      dup4\n        /* \"#utility.yul\":3319:3335   */\n      add\n        /* \"#utility.yul\":3312:3339   */\n      mstore\n        /* \"#utility.yul\":3199:3345   */\n      pop\n      pop\n      pop\n      jump\t// out\n        /* \"#utility.yul\":3351:3774   */\n    tag_143:\n        /* \"#utility.yul\":3428:3433   */\n      0x00\n        /* \"#utility.yul\":3453:3518   */\n      tag_262\n        /* \"#utility.yul\":3469:3517   */\n      tag_263\n        /* \"#utility.yul\":3510:3516   */\n      dup5\n        /* \"#utility.yul\":3469:3517   */\n      tag_141\n      jump\t// in\n    tag_263:\n        /* \"#utility.yul\":3453:3518   */\n      tag_140\n      jump\t// in\n    tag_262:\n        /* \"#utility.yul\":3444:3518   */\n      swap1\n      pop\n        /* \"#utility.yul\":3541:3547   */\n      dup3\n        /* \"#utility.yul\":3534:3539   */\n      dup2\n        /* \"#utility.yul\":3527:3548   */\n      mstore\n        /* \"#utility.yul\":3579:3583   */\n      0x20\n        /* \"#utility.yul\":3572:3577   */\n      dup2\n        /* \"#utility.yul\":3568:3584   */\n      add\n        /* \"#utility.yul\":3617:3620   */\n      dup5\n        /* \"#utility.yul\":3608:3614   */\n      dup5\n        /* \"#utility.yul\":3603:3606   */\n      dup5\n        /* \"#utility.yul\":3599:3615   */\n      add\n        /* \"#utility.yul\":3596:3621   */\n      gt\n        /* \"#utility.yul\":3593:3705   */\n      iszero\n      tag_264\n      jumpi\n        /* \"#utility.yul\":3624:3703   */\n      tag_265\n      tag_137\n      jump\t// in\n    tag_265:\n        /* \"#utility.yul\":3593:3705   */\n    tag_264:\n        /* \"#utility.yul\":3714:3768   */\n      tag_266\n        /* \"#utility.yul\":3761:3767   */\n      dup5\n        /* \"#utility.yul\":3756:3759   */\n      dup3\n        /* \"#utility.yul\":3751:3754   */\n      dup6\n        /* \"#utility.yul\":3714:3768   */\n      tag_142\n      jump\t// in\n    tag_266:\n        /* \"#utility.yul\":3434:3774   */\n      pop\n        /* \"#utility.yul\":3351:3774   */\n      swap4\n      swap3\n      pop\n      pop\n      pop\n      jump\t// out\n        /* \"#utility.yul\":3793:4131   */\n    tag_144:\n        /* \"#utility.yul\":3848:3853   */\n      0x00\n        /* \"#utility.yul\":3897:3900   */\n      dup3\n        /* \"#utility.yul\":3890:3894   */\n      0x1f\n        /* \"#utility.yul\":3882:3888   */\n      dup4\n        /* \"#utility.yul\":3878:3895   */\n      add\n        /* \"#utility.yul\":3874:3901   */\n      slt\n        /* \"#utility.yul\":3864:3986   */\n      tag_268\n      jumpi\n        /* \"#utility.yul\":3905:3984   */\n      tag_269\n      tag_136\n      jump\t// in\n    tag_269:\n        /* \"#utility.yul\":3864:3986   */\n    tag_268:\n        /* \"#utility.yul\":4022:4028   */\n      dup2\n        /* \"#utility.yul\":4009:4029   */\n      calldataload\n        /* \"#utility.yul\":4047:4125   */\n      tag_270\n        /* \"#utility.yul\":4121:4124   */\n      dup5\n        /* \"#utility.yul\":4113:4119   */\n      dup3\n        /* \"#utility.yul\":4106:4110   */\n      0x20\n        /* \"#utility.yul\":4098:4104   */\n      dup7\n        /* \"#utility.yul\":4094:4111   */\n      add\n        /* \"#utility.yul\":4047:4125   */\n      tag_143\n      jump\t// in\n    tag_270:\n        /* \"#utility.yul\":4038:4125   */\n      swap2\n      pop\n        /* \"#utility.yul\":3854:4131   */\n      pop\n        /* \"#utility.yul\":3793:4131   */\n      swap3\n      swap2\n      pop\n      pop\n      jump\t// out\n        /* \"#utility.yul\":4137:4789   */\n    tag_24:\n        /* \"#utility.yul\":4214:4220   */\n      0x00\n        /* \"#utility.yul\":4222:4228   */\n      dup1\n        /* \"#utility.yul\":4271:4273   */\n      0x40\n        /* \"#utility.yul\":4259:4268   */\n      dup4\n        /* \"#utility.yul\":4250:4257   */\n      dup6\n        /* \"#utility.yul\":4246:4269   */\n      sub\n        /* \"#utility.yul\":4242:4274   */\n      slt\n        /* \"#utility.yul\":4239:4358   */\n      iszero\n      tag_272\n      jumpi\n        /* \"#utility.yul\":4277:4356   */\n      tag_273\n      tag_131\n      jump\t// in\n    tag_273:\n        /* \"#utility.yul\":4239:4358   */\n    tag_272:\n        /* \"#utility.yul\":4397:4398   */\n      0x00\n        /* \"#utility.yul\":4422:4475   */\n      tag_274\n        /* \"#utility.yul\":4467:4474   */\n      dup6\n        /* \"#utility.yul\":4458:4464   */\n      dup3\n        /* \"#utility.yul\":4447:4456   */\n      dup7\n        /* \"#utility.yul\":4443:4465   */\n      add\n        /* \"#utility.yul\":4422:4475   */\n      tag_135\n      jump\t// in\n    tag_274:\n        /* \"#utility.yul\":4412:4475   */\n      swap3\n      pop\n        /* \"#utility.yul\":4368:4485   */\n      pop\n        /* \"#utility.yul\":4552:4554   */\n      0x20\n        /* \"#utility.yul\":4541:4550   */\n      dup4\n        /* \"#utility.yul\":4537:4555   */\n      add\n        /* \"#utility.yul\":4524:4556   */\n      calldataload\n        /* \"#utility.yul\":4583:4601   */\n      0xffffffffffffffff\n        /* \"#utility.yul\":4575:4581   */\n      dup2\n        /* \"#utility.yul\":4572:4602   */\n      gt\n        /* \"#utility.yul\":4569:4686   */\n      iszero\n      tag_275\n      jumpi\n        /* \"#utility.yul\":4605:4684   */\n      tag_276\n      tag_132\n      jump\t// in\n    tag_276:\n        /* \"#utility.yul\":4569:4686   */\n    tag_275:\n        /* \"#utility.yul\":4710:4772   */\n      tag_277\n        /* \"#utility.yul\":4764:4771   */\n      dup6\n        /* \"#utility.yul\":4755:4761   */\n      dup3\n        /* \"#utility.yul\":4744:4753   */\n      dup7\n        /* \"#utility.yul\":4740:4762   */\n      add\n        /* \"#utility.yul\":4710:4772   */\n      tag_144\n      jump\t// in\n    tag_277:\n        /* \"#utility.yul\":4700:4772   */\n      swap2\n      pop\n        /* \"#utility.yul\":4495:4782   */\n      pop\n        /* \"#utility.yul\":4137:4789   */\n      swap3\n      pop\n      swap3\n      swap1\n      pop\n      jump\t// out\n        /* \"#utility.yul\":4795:4885   */\n    tag_145:\n        /* \"#utility.yul\":4829:4836   */\n      0x00\n        /* \"#utility.yul\":4872:4877   */\n      dup2\n        /* \"#utility.yul\":4865:4878   */\n      iszero\n        /* \"#utility.yul\":4858:4879   */\n      iszero\n        /* \"#utility.yul\":4847:4879   */\n      swap1\n      pop\n        /* \"#utility.yul\":4795:4885   */\n      swap2\n      swap1\n      pop\n      jump\t// out\n        /* \"#utility.yul\":4891:5000   */\n    tag_146:\n        /* \"#utility.yul\":4972:4993   */\n      tag_280\n        /* \"#utility.yul\":4987:4992   */\n      dup2\n        /* \"#utility.yul\":4972:4993   */\n      tag_145\n      jump\t// in\n    tag_280:\n        /* \"#utility.yul\":4967:4970   */\n      dup3\n        /* \"#utility.yul\":4960:4994   */\n      mstore\n        /* \"#utility.yul\":4891:5000   */\n      pop\n      pop\n      jump\t// out\n        /* \"#utility.yul\":5006:5104   */\n    tag_147:\n        /* \"#utility.yul\":5057:5063   */\n      0x00\n        /* \"#utility.yul\":5091:5096   */\n      dup2\n        /* \"#utility.yul\":5085:5097   */\n      mload\n        /* \"#utility.yul\":5075:5097   */\n      swap1\n      pop\n        /* \"#utility.yul\":5006:5104   */\n      swap2\n      swap1\n      pop\n      jump\t// out\n        /* \"#utility.yul\":5110:5278   */\n    tag_148:\n        /* \"#utility.yul\":5193:5204   */\n      0x00\n        /* \"#utility.yul\":5227:5233   */\n      dup3\n        /* \"#utility.yul\":5222:5225   */\n      dup3\n        /* \"#utility.yul\":5215:5234   */\n      mstore\n        /* \"#utility.yul\":5267:5271   */\n      0x20\n        /* \"#utility.yul\":5262:5265   */\n      dup3\n        /* \"#utility.yul\":5258:5272   */\n      add\n        /* \"#utility.yul\":5243:5272   */\n      swap1\n      pop\n        /* \"#utility.yul\":5110:5278   */\n      swap3\n      swap2\n      pop\n      pop\n      jump\t// out\n        /* \"#utility.yul\":5284:5657   */\n    tag_149:\n        /* \"#utility.yul\":5370:5373   */\n      0x00\n        /* \"#utility.yul\":5398:5436   */\n      tag_284\n        /* \"#utility.yul\":5430:5435   */\n      dup3\n        /* \"#utility.yul\":5398:5436   */\n      tag_147\n      jump\t// in\n    tag_284:\n        /* \"#utility.yul\":5452:5522   */\n      tag_285\n        /* \"#utility.yul\":5515:5521   */\n      dup2\n        /* \"#utility.yul\":5510:5513   */\n      dup6\n        /* \"#utility.yul\":5452:5522   */\n      tag_148\n      jump\t// in\n    tag_285:\n        /* \"#utility.yul\":5445:5522   */\n      swap4\n      pop\n        /* \"#utility.yul\":5531:5596   */\n      tag_286\n        /* \"#utility.yul\":5589:5595   */\n      dup2\n        /* \"#utility.yul\":5584:5587   */\n      dup6\n        /* \"#utility.yul\":5577:5581   */\n      0x20\n        /* \"#utility.yul\":5570:5575   */\n      dup7\n        /* \"#utility.yul\":5566:5582   */\n      add\n        /* \"#utility.yul\":5531:5596   */\n      tag_127\n      jump\t// in\n    tag_286:\n        /* \"#utility.yul\":5621:5650   */\n      tag_287\n        /* \"#utility.yul\":5643:5649   */\n      dup2\n        /* \"#utility.yul\":5621:5650   */\n      tag_128\n      jump\t// in\n    tag_287:\n        /* \"#utility.yul\":5616:5619   */\n      dup5\n        /* \"#utility.yul\":5612:5651   */\n      add\n        /* \"#utility.yul\":5605:5651   */\n      swap2\n      pop\n        /* \"#utility.yul\":5374:5657   */\n      pop\n        /* \"#utility.yul\":5284:5657   */\n      swap3\n      swap2\n      pop\n      pop\n      jump\t// out\n        /* \"#utility.yul\":5663:6070   */\n    tag_27:\n        /* \"#utility.yul\":5796:5800   */\n      0x00\n        /* \"#utility.yul\":5834:5836   */\n      0x40\n        /* \"#utility.yul\":5823:5832   */\n      dup3\n        /* \"#utility.yul\":5819:5837   */\n      add\n        /* \"#utility.yul\":5811:5837   */\n      swap1\n      pop\n        /* \"#utility.yul\":5847:5912   */\n      tag_289\n        /* \"#utility.yul\":5909:5910   */\n      0x00\n        /* \"#utility.yul\":5898:5907   */\n      dup4\n        /* \"#utility.yul\":5894:5911   */\n      add\n        /* \"#utility.yul\":5885:5891   */\n      dup6\n        /* \"#utility.yul\":5847:5912   */\n      tag_146\n      jump\t// in\n    tag_289:\n        /* \"#utility.yul\":5959:5968   */\n      dup2\n        /* \"#utility.yul\":5953:5957   */\n      dup2\n        /* \"#utility.yul\":5949:5969   */\n      sub\n        /* \"#utility.yul\":5944:5946   */\n      0x20\n        /* \"#utility.yul\":5933:5942   */\n      dup4\n        /* \"#utility.yul\":5929:5947   */\n      add\n        /* \"#utility.yul\":5922:5970   */\n      mstore\n        /* \"#utility.yul\":5987:6063   */\n      tag_290\n        /* \"#utility.yul\":6058:6062   */\n      dup2\n        /* \"#utility.yul\":6049:6055   */\n      dup5\n        /* \"#utility.yul\":5987:6063   */\n      tag_149\n      jump\t// in\n    tag_290:\n        /* \"#utility.yul\":5979:6063   */\n      swap1\n      pop\n        /* \"#utility.yul\":5663:6070   */\n      swap4\n      swap3\n      pop\n      pop\n      pop\n      jump\t// out\n        /* \"#utility.yul\":6076:6202   */\n    tag_150:\n        /* \"#utility.yul\":6113:6120   */\n      0x00\n        /* \"#utility.yul\":6153:6195   */\n      0xffffffffffffffffffffffffffffffffffffffff\n        /* \"#utility.yul\":6146:6151   */\n      dup3\n        /* \"#utility.yul\":6142:6196   */\n      and\n        /* \"#utility.yul\":6131:6196   */\n      swap1\n      pop\n        /* \"#utility.yul\":6076:6202   */\n      swap2\n      swap1\n      pop\n      jump\t// out\n        /* \"#utility.yul\":6208:6268   */\n    tag_151:\n        /* \"#utility.yul\":6236:6239   */\n      0x00\n        /* \"#utility.yul\":6257:6262   */\n      dup2\n        /* \"#utility.yul\":6250:6262   */\n      swap1\n      pop\n        /* \"#utility.yul\":6208:6268   */\n      swap2\n      swap1\n      pop\n      jump\t// out\n        /* \"#utility.yul\":6274:6416   */\n    tag_152:\n        /* \"#utility.yul\":6324:6333   */\n      0x00\n        /* \"#utility.yul\":6357:6410   */\n      tag_294\n        /* \"#utility.yul\":6375:6409   */\n      tag_295\n        /* \"#utility.yul\":6384:6408   */\n      tag_296\n        /* \"#utility.yul\":6402:6407   */\n      dup5\n        /* \"#utility.yul\":6384:6408   */\n      tag_150\n      jump\t// in\n    tag_296:\n        /* \"#utility.yul\":6375:6409   */\n      tag_151\n      jump\t// in\n    tag_295:\n        /* \"#utility.yul\":6357:6410   */\n      tag_150\n      jump\t// in\n    tag_294:\n        /* \"#utility.yul\":6344:6410   */\n      swap1\n      pop\n        /* \"#utility.yul\":6274:6416   */\n      swap2\n      swap1\n      pop\n      jump\t// out\n        /* \"#utility.yul\":6422:6548   */\n    tag_153:\n        /* \"#utility.yul\":6472:6481   */\n      0x00\n        /* \"#utility.yul\":6505:6542   */\n      tag_298\n        /* \"#utility.yul\":6536:6541   */\n      dup3\n        /* \"#utility.yul\":6505:6542   */\n      tag_152\n      jump\t// in\n    tag_298:\n        /* \"#utility.yul\":6492:6542   */\n      swap1\n      pop\n        /* \"#utility.yul\":6422:6548   */\n      swap2\n      swap1\n      pop\n      jump\t// out\n        /* \"#utility.yul\":6554:6702   */\n    tag_154:\n        /* \"#utility.yul\":6626:6635   */\n      0x00\n        /* \"#utility.yul\":6659:6696   */\n      tag_300\n        /* \"#utility.yul\":6690:6695   */\n      dup3\n        /* \"#utility.yul\":6659:6696   */\n      tag_153\n      jump\t// in\n    tag_300:\n        /* \"#utility.yul\":6646:6696   */\n      swap1\n      pop\n        /* \"#utility.yul\":6554:6702   */\n      swap2\n      swap1\n      pop\n      jump\t// out\n        /* \"#utility.yul\":6708:6883   */\n    tag_155:\n        /* \"#utility.yul\":6817:6876   */\n      tag_302\n        /* \"#utility.yul\":6870:6875   */\n      dup2\n        /* \"#utility.yul\":6817:6876   */\n      tag_154\n      jump\t// in\n    tag_302:\n        /* \"#utility.yul\":6812:6815   */\n      dup3\n        /* \"#utility.yul\":6805:6877   */\n      mstore\n        /* \"#utility.yul\":6708:6883   */\n      pop\n      pop\n      jump\t// out\n        /* \"#utility.yul\":6889:7155   */\n    tag_36:\n        /* \"#utility.yul\":7004:7008   */\n      0x00\n        /* \"#utility.yul\":7042:7044   */\n      0x20\n        /* \"#utility.yul\":7031:7040   */\n      dup3\n        /* \"#utility.yul\":7027:7045   */\n      add\n        /* \"#utility.yul\":7019:7045   */\n      swap1\n      pop\n        /* \"#utility.yul\":7055:7148   */\n      tag_304\n        /* \"#utility.yul\":7145:7146   */\n      0x00\n        /* \"#utility.yul\":7134:7143   */\n      dup4\n        /* \"#utility.yul\":7130:7147   */\n      add\n        /* \"#utility.yul\":7121:7127   */\n      dup5\n        /* \"#utility.yul\":7055:7148   */\n      tag_155\n      jump\t// in\n    tag_304:\n        /* \"#utility.yul\":6889:7155   */\n      swap3\n      swap2\n      pop\n      pop\n      jump\t// out\n        /* \"#utility.yul\":7161:7278   */\n    tag_156:\n        /* \"#utility.yul\":7270:7271   */\n      0x00\n        /* \"#utility.yul\":7267:7268   */\n      dup1\n        /* \"#utility.yul\":7260:7272   */\n      revert\n        /* \"#utility.yul\":7302:7528   */\n    tag_157:\n        /* \"#utility.yul\":7369:7374   */\n      0x00\n        /* \"#utility.yul\":7410:7413   */\n      0x0100\n        /* \"#utility.yul\":7401:7407   */\n      dup3\n        /* \"#utility.yul\":7396:7399   */\n      dup5\n        /* \"#utility.yul\":7392:7408   */\n      sub\n        /* \"#utility.yul\":7388:7414   */\n      slt\n        /* \"#utility.yul\":7385:7498   */\n      iszero\n      tag_307\n      jumpi\n        /* \"#utility.yul\":7417:7496   */\n      tag_308\n      tag_156\n      jump\t// in\n    tag_308:\n        /* \"#utility.yul\":7385:7498   */\n    tag_307:\n        /* \"#utility.yul\":7516:7522   */\n      dup2\n        /* \"#utility.yul\":7507:7522   */\n      swap1\n      pop\n        /* \"#utility.yul\":7302:7528   */\n      swap3\n      swap2\n      pop\n      pop\n      jump\t// out\n        /* \"#utility.yul\":7534:8388   */\n    tag_40:\n        /* \"#utility.yul\":7632:7638   */\n      0x00\n        /* \"#utility.yul\":7640:7646   */\n      dup1\n        /* \"#utility.yul\":7689:7691   */\n      0x40\n        /* \"#utility.yul\":7677:7686   */\n      dup4\n        /* \"#utility.yul\":7668:7675   */\n      dup6\n        /* \"#utility.yul\":7664:7687   */\n      sub\n        /* \"#utility.yul\":7660:7692   */\n      slt\n        /* \"#utility.yul\":7657:7776   */\n      iszero\n      tag_310\n      jumpi\n        /* \"#utility.yul\":7695:7774   */\n      tag_311\n      tag_131\n      jump\t// in\n    tag_311:\n        /* \"#utility.yul\":7657:7776   */\n    tag_310:\n        /* \"#utility.yul\":7843:7844   */\n      0x00\n        /* \"#utility.yul\":7832:7841   */\n      dup4\n        /* \"#utility.yul\":7828:7845   */\n      add\n        /* \"#utility.yul\":7815:7846   */\n      calldataload\n        /* \"#utility.yul\":7873:7891   */\n      0xffffffffffffffff\n        /* \"#utility.yul\":7865:7871   */\n      dup2\n        /* \"#utility.yul\":7862:7892   */\n      gt\n        /* \"#utility.yul\":7859:7976   */\n      iszero\n      tag_312\n      jumpi\n        /* \"#utility.yul\":7895:7974   */\n      tag_313\n      tag_132\n      jump\t// in\n    tag_313:\n        /* \"#utility.yul\":7859:7976   */\n    tag_312:\n        /* \"#utility.yul\":8000:8074   */\n      tag_314\n        /* \"#utility.yul\":8066:8073   */\n      dup6\n        /* \"#utility.yul\":8057:8063   */\n      dup3\n        /* \"#utility.yul\":8046:8055   */\n      dup7\n        /* \"#utility.yul\":8042:8064   */\n      add\n        /* \"#utility.yul\":8000:8074   */\n      tag_157\n      jump\t// in\n    tag_314:\n        /* \"#utility.yul\":7990:8074   */\n      swap3\n      pop\n        /* \"#utility.yul\":7786:8084   */\n      pop\n        /* \"#utility.yul\":8151:8153   */\n      0x20\n        /* \"#utility.yul\":8140:8149   */\n      dup4\n        /* \"#utility.yul\":8136:8154   */\n      add\n        /* \"#utility.yul\":8123:8155   */\n      calldataload\n        /* \"#utility.yul\":8182:8200   */\n      0xffffffffffffffff\n        /* \"#utility.yul\":8174:8180   */\n      dup2\n        /* \"#utility.yul\":8171:8201   */\n      gt\n        /* \"#utility.yul\":8168:8285   */\n      iszero\n      tag_315\n      jumpi\n        /* \"#utility.yul\":8204:8283   */\n      tag_316\n      tag_132\n      jump\t// in\n    tag_316:\n        /* \"#utility.yul\":8168:8285   */\n    tag_315:\n        /* \"#utility.yul\":8309:8371   */\n      tag_317\n        /* \"#utility.yul\":8363:8370   */\n      dup6\n        /* \"#utility.yul\":8354:8360   */\n      dup3\n        /* \"#utility.yul\":8343:8352   */\n      dup7\n        /* \"#utility.yul\":8339:8361   */\n      add\n        /* \"#utility.yul\":8309:8371   */\n      tag_144\n      jump\t// in\n    tag_317:\n        /* \"#utility.yul\":8299:8371   */\n      swap2\n      pop\n        /* \"#utility.yul\":8094:8381   */\n      pop\n        /* \"#utility.yul\":7534:8388   */\n      swap3\n      pop\n      swap3\n      swap1\n      pop\n      jump\t// out\n        /* \"#utility.yul\":8394:8511   */\n    tag_158:\n        /* \"#utility.yul\":8503:8504   */\n      0x00\n        /* \"#utility.yul\":8500:8501   */\n      dup1\n        /* \"#utility.yul\":8493:8505   */\n      revert\n        /* \"#utility.yul\":8517:8634   */\n    tag_159:\n        /* \"#utility.yul\":8626:8627   */\n      0x00\n        /* \"#utility.yul\":8623:8624   */\n      dup1\n        /* \"#utility.yul\":8616:8628   */\n      revert\n        /* \"#utility.yul\":8653:9205   */\n    tag_160:\n        /* \"#utility.yul\":8710:8718   */\n      0x00\n        /* \"#utility.yul\":8720:8726   */\n      dup1\n        /* \"#utility.yul\":8770:8773   */\n      dup4\n        /* \"#utility.yul\":8763:8767   */\n      0x1f\n        /* \"#utility.yul\":8755:8761   */\n      dup5\n        /* \"#utility.yul\":8751:8768   */\n      add\n        /* \"#utility.yul\":8747:8774   */\n      slt\n        /* \"#utility.yul\":8737:8859   */\n      tag_321\n      jumpi\n        /* \"#utility.yul\":8778:8857   */\n      tag_322\n      tag_136\n      jump\t// in\n    tag_322:\n        /* \"#utility.yul\":8737:8859   */\n    tag_321:\n        /* \"#utility.yul\":8891:8897   */\n      dup3\n        /* \"#utility.yul\":8878:8898   */\n      calldataload\n        /* \"#utility.yul\":8868:8898   */\n      swap1\n      pop\n        /* \"#utility.yul\":8921:8939   */\n      0xffffffffffffffff\n        /* \"#utility.yul\":8913:8919   */\n      dup2\n        /* \"#utility.yul\":8910:8940   */\n      gt\n        /* \"#utility.yul\":8907:9024   */\n      iszero\n      tag_323\n      jumpi\n        /* \"#utility.yul\":8943:9022   */\n      tag_324\n      tag_158\n      jump\t// in\n    tag_324:\n        /* \"#utility.yul\":8907:9024   */\n    tag_323:\n        /* \"#utility.yul\":9057:9061   */\n      0x20\n        /* \"#utility.yul\":9049:9055   */\n      dup4\n        /* \"#utility.yul\":9045:9062   */\n      add\n        /* \"#utility.yul\":9033:9062   */\n      swap2\n      pop\n        /* \"#utility.yul\":9111:9114   */\n      dup4\n        /* \"#utility.yul\":9103:9107   */\n      0x01\n        /* \"#utility.yul\":9095:9101   */\n      dup3\n        /* \"#utility.yul\":9091:9108   */\n      mul\n        /* \"#utility.yul\":9081:9089   */\n      dup4\n        /* \"#utility.yul\":9077:9109   */\n      add\n        /* \"#utility.yul\":9074:9115   */\n      gt\n        /* \"#utility.yul\":9071:9199   */\n      iszero\n      tag_325\n      jumpi\n        /* \"#utility.yul\":9118:9197   */\n      tag_326\n      tag_159\n      jump\t// in\n    tag_326:\n        /* \"#utility.yul\":9071:9199   */\n    tag_325:\n        /* \"#utility.yul\":8653:9205   */\n      swap3\n      pop\n      swap3\n      swap1\n      pop\n      jump\t// out\n        /* \"#utility.yul\":9211:9738   */\n    tag_46:\n        /* \"#utility.yul\":9281:9287   */\n      0x00\n        /* \"#utility.yul\":9289:9295   */\n      dup1\n        /* \"#utility.yul\":9338:9340   */\n      0x20\n        /* \"#utility.yul\":9326:9335   */\n      dup4\n        /* \"#utility.yul\":9317:9324   */\n      dup6\n        /* \"#utility.yul\":9313:9336   */\n      sub\n        /* \"#utility.yul\":9309:9341   */\n      slt\n        /* \"#utility.yul\":9306:9425   */\n      iszero\n      tag_328\n      jumpi\n        /* \"#utility.yul\":9344:9423   */\n      tag_329\n      tag_131\n      jump\t// in\n    tag_329:\n        /* \"#utility.yul\":9306:9425   */\n    tag_328:\n        /* \"#utility.yul\":9492:9493   */\n      0x00\n        /* \"#utility.yul\":9481:9490   */\n      dup4\n        /* \"#utility.yul\":9477:9494   */\n      add\n        /* \"#utility.yul\":9464:9495   */\n      calldataload\n        /* \"#utility.yul\":9522:9540   */\n      0xffffffffffffffff\n        /* \"#utility.yul\":9514:9520   */\n      dup2\n        /* \"#utility.yul\":9511:9541   */\n      gt\n        /* \"#utility.yul\":9508:9625   */\n      iszero\n      tag_330\n      jumpi\n        /* \"#utility.yul\":9544:9623   */\n      tag_331\n      tag_132\n      jump\t// in\n    tag_331:\n        /* \"#utility.yul\":9508:9625   */\n    tag_330:\n        /* \"#utility.yul\":9657:9721   */\n      tag_332\n        /* \"#utility.yul\":9713:9720   */\n      dup6\n        /* \"#utility.yul\":9704:9710   */\n      dup3\n        /* \"#utility.yul\":9693:9702   */\n      dup7\n        /* \"#utility.yul\":9689:9711   */\n      add\n        /* \"#utility.yul\":9657:9721   */\n      tag_160\n      jump\t// in\n    tag_332:\n        /* \"#utility.yul\":9639:9721   */\n      swap3\n      pop\n      swap3\n      pop\n        /* \"#utility.yul\":9435:9731   */\n      pop\n        /* \"#utility.yul\":9211:9738   */\n      swap3\n      pop\n      swap3\n      swap1\n      pop\n      jump\t// out\n        /* \"#utility.yul\":9759:10338   */\n    tag_161:\n        /* \"#utility.yul\":9843:9851   */\n      0x00\n        /* \"#utility.yul\":9853:9859   */\n      dup1\n        /* \"#utility.yul\":9903:9906   */\n      dup4\n        /* \"#utility.yul\":9896:9900   */\n      0x1f\n        /* \"#utility.yul\":9888:9894   */\n      dup5\n        /* \"#utility.yul\":9884:9901   */\n      add\n        /* \"#utility.yul\":9880:9907   */\n      slt\n        /* \"#utility.yul\":9870:9992   */\n      tag_334\n      jumpi\n        /* \"#utility.yul\":9911:9990   */\n      tag_335\n      tag_136\n      jump\t// in\n    tag_335:\n        /* \"#utility.yul\":9870:9992   */\n    tag_334:\n        /* \"#utility.yul\":10024:10030   */\n      dup3\n        /* \"#utility.yul\":10011:10031   */\n      calldataload\n        /* \"#utility.yul\":10001:10031   */\n      swap1\n      pop\n        /* \"#utility.yul\":10054:10072   */\n      0xffffffffffffffff\n        /* \"#utility.yul\":10046:10052   */\n      dup2\n        /* \"#utility.yul\":10043:10073   */\n      gt\n        /* \"#utility.yul\":10040:10157   */\n      iszero\n      tag_336\n      jumpi\n        /* \"#utility.yul\":10076:10155   */\n      tag_337\n      tag_158\n      jump\t// in\n    tag_337:\n        /* \"#utility.yul\":10040:10157   */\n    tag_336:\n        /* \"#utility.yul\":10190:10194   */\n      0x20\n        /* \"#utility.yul\":10182:10188   */\n      dup4\n        /* \"#utility.yul\":10178:10195   */\n      add\n        /* \"#utility.yul\":10166:10195   */\n      swap2\n      pop\n        /* \"#utility.yul\":10244:10247   */\n      dup4\n        /* \"#utility.yul\":10236:10240   */\n      0x20\n        /* \"#utility.yul\":10228:10234   */\n      dup3\n        /* \"#utility.yul\":10224:10241   */\n      mul\n        /* \"#utility.yul\":10214:10222   */\n      dup4\n        /* \"#utility.yul\":10210:10242   */\n      add\n        /* \"#utility.yul\":10207:10248   */\n      gt\n        /* \"#utility.yul\":10204:10332   */\n      iszero\n      tag_338\n      jumpi\n        /* \"#utility.yul\":10251:10330   */\n      tag_339\n      tag_159\n      jump\t// in\n    tag_339:\n        /* \"#utility.yul\":10204:10332   */\n    tag_338:\n        /* \"#utility.yul\":9759:10338   */\n      swap3\n      pop\n      swap3\n      swap1\n      pop\n      jump\t// out\n        /* \"#utility.yul\":10344:11268   */\n    tag_51:\n        /* \"#utility.yul\":10461:10467   */\n      0x00\n        /* \"#utility.yul\":10469:10475   */\n      dup1\n        /* \"#utility.yul\":10477:10483   */\n      0x00\n        /* \"#utility.yul\":10485:10491   */\n      dup1\n        /* \"#utility.yul\":10534:10536   */\n      0x40\n        /* \"#utility.yul\":10522:10531   */\n      dup6\n        /* \"#utility.yul\":10513:10520   */\n      dup8\n        /* \"#utility.yul\":10509:10532   */\n      sub\n        /* \"#utility.yul\":10505:10537   */\n      slt\n        /* \"#utility.yul\":10502:10621   */\n      iszero\n      tag_341\n      jumpi\n        /* \"#utility.yul\":10540:10619   */\n      tag_342\n      tag_131\n      jump\t// in\n    tag_342:\n        /* \"#utility.yul\":10502:10621   */\n    tag_341:\n        /* \"#utility.yul\":10688:10689   */\n      0x00\n        /* \"#utility.yul\":10677:10686   */\n      dup6\n        /* \"#utility.yul\":10673:10690   */\n      add\n        /* \"#utility.yul\":10660:10691   */\n      calldataload\n        /* \"#utility.yul\":10718:10736   */\n      0xffffffffffffffff\n        /* \"#utility.yul\":10710:10716   */\n      dup2\n        /* \"#utility.yul\":10707:10737   */\n      gt\n        /* \"#utility.yul\":10704:10821   */\n      iszero\n      tag_343\n      jumpi\n        /* \"#utility.yul\":10740:10819   */\n      tag_344\n      tag_132\n      jump\t// in\n    tag_344:\n        /* \"#utility.yul\":10704:10821   */\n    tag_343:\n        /* \"#utility.yul\":10853:10944   */\n      tag_345\n        /* \"#utility.yul\":10936:10943   */\n      dup8\n        /* \"#utility.yul\":10927:10933   */\n      dup3\n        /* \"#utility.yul\":10916:10925   */\n      dup9\n        /* \"#utility.yul\":10912:10934   */\n      add\n        /* \"#utility.yul\":10853:10944   */\n      tag_161\n      jump\t// in\n    tag_345:\n        /* \"#utility.yul\":10835:10944   */\n      swap5\n      pop\n      swap5\n      pop\n        /* \"#utility.yul\":10631:10954   */\n      pop\n        /* \"#utility.yul\":11021:11023   */\n      0x20\n        /* \"#utility.yul\":11010:11019   */\n      dup6\n        /* \"#utility.yul\":11006:11024   */\n      add\n        /* \"#utility.yul\":10993:11025   */\n      calldataload\n        /* \"#utility.yul\":11052:11070   */\n      0xffffffffffffffff\n        /* \"#utility.yul\":11044:11050   */\n      dup2\n        /* \"#utility.yul\":11041:11071   */\n      gt\n        /* \"#utility.yul\":11038:11155   */\n      iszero\n      tag_346\n      jumpi\n        /* \"#utility.yul\":11074:11153   */\n      tag_347\n      tag_132\n      jump\t// in\n    tag_347:\n        /* \"#utility.yul\":11038:11155   */\n    tag_346:\n        /* \"#utility.yul\":11187:11251   */\n      tag_348\n        /* \"#utility.yul\":11243:11250   */\n      dup8\n        /* \"#utility.yul\":11234:11240   */\n      dup3\n        /* \"#utility.yul\":11223:11232   */\n      dup9\n        /* \"#utility.yul\":11219:11241   */\n      add\n        /* \"#utility.yul\":11187:11251   */\n      tag_160\n      jump\t// in\n    tag_348:\n        /* \"#utility.yul\":11169:11251   */\n      swap3\n      pop\n      swap3\n      pop\n        /* \"#utility.yul\":10964:11261   */\n      pop\n        /* \"#utility.yul\":10344:11268   */\n      swap3\n      swap6\n      swap2\n      swap5\n      pop\n      swap3\n      pop\n      jump\t// out\n        /* \"#utility.yul\":11274:11603   */\n    tag_57:\n        /* \"#utility.yul\":11333:11339   */\n      0x00\n        /* \"#utility.yul\":11382:11384   */\n      0x20\n        /* \"#utility.yul\":11370:11379   */\n      dup3\n        /* \"#utility.yul\":11361:11368   */\n      dup5\n        /* \"#utility.yul\":11357:11380   */\n      sub\n        /* \"#utility.yul\":11353:11385   */\n      slt\n        /* \"#utility.yul\":11350:11469   */\n      iszero\n      tag_350\n      jumpi\n        /* \"#utility.yul\":11388:11467   */\n      tag_351\n      tag_131\n      jump\t// in\n    tag_351:\n        /* \"#utility.yul\":11350:11469   */\n    tag_350:\n        /* \"#utility.yul\":11508:11509   */\n      0x00\n        /* \"#utility.yul\":11533:11586   */\n      tag_352\n        /* \"#utility.yul\":11578:11585   */\n      dup5\n        /* \"#utility.yul\":11569:11575   */\n      dup3\n        /* \"#utility.yul\":11558:11567   */\n      dup6\n        /* \"#utility.yul\":11554:11576   */\n      add\n        /* \"#utility.yul\":11533:11586   */\n      tag_135\n      jump\t// in\n    tag_352:\n        /* \"#utility.yul\":11523:11586   */\n      swap2\n      pop\n        /* \"#utility.yul\":11479:11596   */\n      pop\n        /* \"#utility.yul\":11274:11603   */\n      swap3\n      swap2\n      pop\n      pop\n      jump\t// out\n        /* \"#utility.yul\":11609:11701   */\n    tag_162:\n        /* \"#utility.yul\":11645:11652   */\n      0x00\n        /* \"#utility.yul\":11689:11694   */\n      dup2\n        /* \"#utility.yul\":11685:11687   */\n      0x17\n        /* \"#utility.yul\":11674:11695   */\n      signextend\n        /* \"#utility.yul\":11663:11695   */\n      swap1\n      pop\n        /* \"#utility.yul\":11609:11701   */\n      swap2\n      swap1\n      pop\n      jump\t// out\n        /* \"#utility.yul\":11707:11822   */\n    tag_163:\n        /* \"#utility.yul\":11792:11815   */\n      tag_355\n        /* \"#utility.yul\":11809:11814   */\n      dup2\n        /* \"#utility.yul\":11792:11815   */\n      tag_162\n      jump\t// in\n    tag_355:\n        /* \"#utility.yul\":11787:11790   */\n      dup3\n        /* \"#utility.yul\":11780:11816   */\n      mstore\n        /* \"#utility.yul\":11707:11822   */\n      pop\n      pop\n      jump\t// out\n        /* \"#utility.yul\":11828:12046   */\n    tag_64:\n        /* \"#utility.yul\":11919:11923   */\n      0x00\n        /* \"#utility.yul\":11957:11959   */\n      0x20\n        /* \"#utility.yul\":11946:11955   */\n      dup3\n        /* \"#utility.yul\":11942:11960   */\n      add\n        /* \"#utility.yul\":11934:11960   */\n      swap1\n      pop\n        /* \"#utility.yul\":11970:12039   */\n      tag_357\n        /* \"#utility.yul\":12036:12037   */\n      0x00\n        /* \"#utility.yul\":12025:12034   */\n      dup4\n        /* \"#utility.yul\":12021:12038   */\n      add\n        /* \"#utility.yul\":12012:12018   */\n      dup5\n        /* \"#utility.yul\":11970:12039   */\n      tag_163\n      jump\t// in\n    tag_357:\n        /* \"#utility.yul\":11828:12046   */\n      swap3\n      swap2\n      pop\n      pop\n      jump\t// out\n        /* \"#utility.yul\":12052:12148   */\n    tag_164:\n        /* \"#utility.yul\":12089:12096   */\n      0x00\n        /* \"#utility.yul\":12118:12142   */\n      tag_359\n        /* \"#utility.yul\":12136:12141   */\n      dup3\n        /* \"#utility.yul\":12118:12142   */\n      tag_150\n      jump\t// in\n    tag_359:\n        /* \"#utility.yul\":12107:12142   */\n      swap1\n      pop\n        /* \"#utility.yul\":12052:12148   */\n      swap2\n      swap1\n      pop\n      jump\t// out\n        /* \"#utility.yul\":12154:12272   */\n    tag_165:\n        /* \"#utility.yul\":12241:12265   */\n      tag_361\n        /* \"#utility.yul\":12259:12264   */\n      dup2\n        /* \"#utility.yul\":12241:12265   */\n      tag_164\n      jump\t// in\n    tag_361:\n        /* \"#utility.yul\":12236:12239   */\n      dup3\n        /* \"#utility.yul\":12229:12266   */\n      mstore\n        /* \"#utility.yul\":12154:12272   */\n      pop\n      pop\n      jump\t// out\n        /* \"#utility.yul\":12278:12500   */\n    tag_69:\n        /* \"#utility.yul\":12371:12375   */\n      0x00\n        /* \"#utility.yul\":12409:12411   */\n      0x20\n        /* \"#utility.yul\":12398:12407   */\n      dup3\n        /* \"#utility.yul\":12394:12412   */\n      add\n        /* \"#utility.yul\":12386:12412   */\n      swap1\n      pop\n        /* \"#utility.yul\":12422:12493   */\n      tag_363\n        /* \"#utility.yul\":12490:12491   */\n      0x00\n        /* \"#utility.yul\":12479:12488   */\n      dup4\n        /* \"#utility.yul\":12475:12492   */\n      add\n        /* \"#utility.yul\":12466:12472   */\n      dup5\n        /* \"#utility.yul\":12422:12493   */\n      tag_165\n      jump\t// in\n    tag_363:\n        /* \"#utility.yul\":12278:12500   */\n      swap3\n      swap2\n      pop\n      pop\n      jump\t// out\n        /* \"#utility.yul\":12506:12624   */\n    tag_166:\n        /* \"#utility.yul\":12577:12583   */\n      0x00\n        /* \"#utility.yul\":12611:12616   */\n      dup2\n        /* \"#utility.yul\":12605:12617   */\n      sload\n        /* \"#utility.yul\":12595:12617   */\n      swap1\n      pop\n        /* \"#utility.yul\":12506:12624   */\n      swap2\n      swap1\n      pop\n      jump\t// out\n        /* \"#utility.yul\":12630:12824   */\n    tag_167:\n        /* \"#utility.yul\":12739:12750   */\n      0x00\n        /* \"#utility.yul\":12773:12779   */\n      dup3\n        /* \"#utility.yul\":12768:12771   */\n      dup3\n        /* \"#utility.yul\":12761:12780   */\n      mstore\n        /* \"#utility.yul\":12813:12817   */\n      0x20\n        /* \"#utility.yul\":12808:12811   */\n      dup3\n        /* \"#utility.yul\":12804:12818   */\n      add\n        /* \"#utility.yul\":12789:12818   */\n      swap1\n      pop\n        /* \"#utility.yul\":12630:12824   */\n      swap3\n      swap2\n      pop\n      pop\n      jump\t// out\n        /* \"#utility.yul\":12830:12993   */\n    tag_168:\n        /* \"#utility.yul\":12901:12905   */\n      0x00\n        /* \"#utility.yul\":12924:12927   */\n      dup2\n        /* \"#utility.yul\":12916:12927   */\n      swap1\n      pop\n        /* \"#utility.yul\":12947:12950   */\n      dup2\n        /* \"#utility.yul\":12944:12945   */\n      0x00\n        /* \"#utility.yul\":12937:12951   */\n      mstore\n        /* \"#utility.yul\":12981:12985   */\n      0x20\n        /* \"#utility.yul\":12978:12979   */\n      0x00\n        /* \"#utility.yul\":12968:12986   */\n      keccak256\n        /* \"#utility.yul\":12960:12986   */\n      swap1\n      pop\n        /* \"#utility.yul\":12830:12993   */\n      swap2\n      swap1\n      pop\n      jump\t// out\n        /* \"#utility.yul\":12999:13179   */\n    tag_169:\n        /* \"#utility.yul\":13047:13124   */\n      0x4e487b7100000000000000000000000000000000000000000000000000000000\n        /* \"#utility.yul\":13044:13045   */\n      0x00\n        /* \"#utility.yul\":13037:13125   */\n      mstore\n        /* \"#utility.yul\":13144:13148   */\n      0x22\n        /* \"#utility.yul\":13141:13142   */\n      0x04\n        /* \"#utility.yul\":13134:13149   */\n      mstore\n        /* \"#utility.yul\":13168:13172   */\n      0x24\n        /* \"#utility.yul\":13165:13166   */\n      0x00\n        /* \"#utility.yul\":13158:13173   */\n      revert\n        /* \"#utility.yul\":13185:13505   */\n    tag_120:\n        /* \"#utility.yul\":13229:13235   */\n      0x00\n        /* \"#utility.yul\":13266:13267   */\n      0x02\n        /* \"#utility.yul\":13260:13264   */\n      dup3\n        /* \"#utility.yul\":13256:13268   */\n      div\n        /* \"#utility.yul\":13246:13268   */\n      swap1\n      pop\n        /* \"#utility.yul\":13313:13314   */\n      0x01\n        /* \"#utility.yul\":13307:13311   */\n      dup3\n        /* \"#utility.yul\":13303:13315   */\n      and\n        /* \"#utility.yul\":13334:13352   */\n      dup1\n        /* \"#utility.yul\":13324:13405   */\n      tag_369\n      jumpi\n        /* \"#utility.yul\":13390:13394   */\n      0x7f\n        /* \"#utility.yul\":13382:13388   */\n      dup3\n        /* \"#utility.yul\":13378:13395   */\n      and\n        /* \"#utility.yul\":13368:13395   */\n      swap2\n      pop\n        /* \"#utility.yul\":13324:13405   */\n    tag_369:\n        /* \"#utility.yul\":13452:13454   */\n      0x20\n        /* \"#utility.yul\":13444:13450   */\n      dup3\n        /* \"#utility.yul\":13441:13455   */\n      lt\n        /* \"#utility.yul\":13421:13439   */\n      dup2\n        /* \"#utility.yul\":13418:13456   */\n      sub\n        /* \"#utility.yul\":13415:13499   */\n      tag_370\n      jumpi\n        /* \"#utility.yul\":13471:13489   */\n      tag_371\n      tag_169\n      jump\t// in\n    tag_371:\n        /* \"#utility.yul\":13415:13499   */\n    tag_370:\n        /* \"#utility.yul\":13236:13505   */\n      pop\n        /* \"#utility.yul\":13185:13505   */\n      swap2\n      swap1\n      pop\n      jump\t// out\n        /* \"#utility.yul\":13511:13670   */\n    tag_170:\n        /* \"#utility.yul\":13585:13596   */\n      0x00\n        /* \"#utility.yul\":13619:13625   */\n      dup3\n        /* \"#utility.yul\":13614:13617   */\n      dup3\n        /* \"#utility.yul\":13607:13626   */\n      mstore\n        /* \"#utility.yul\":13659:13663   */\n      0x20\n        /* \"#utility.yul\":13654:13657   */\n      dup3\n        /* \"#utility.yul\":13650:13664   */\n      add\n        /* \"#utility.yul\":13635:13664   */\n      swap1\n      pop\n        /* \"#utility.yul\":13511:13670   */\n      swap3\n      swap2\n      pop\n      pop\n      jump\t// out\n        /* \"#utility.yul\":13676:13817   */\n    tag_171:\n        /* \"#utility.yul\":13725:13729   */\n      0x00\n        /* \"#utility.yul\":13748:13751   */\n      dup2\n        /* \"#utility.yul\":13740:13751   */\n      swap1\n      pop\n        /* \"#utility.yul\":13771:13774   */\n      dup2\n        /* \"#utility.yul\":13768:13769   */\n      0x00\n        /* \"#utility.yul\":13761:13775   */\n      mstore\n        /* \"#utility.yul\":13805:13809   */\n      0x20\n        /* \"#utility.yul\":13802:13803   */\n      0x00\n        /* \"#utility.yul\":13792:13810   */\n      keccak256\n        /* \"#utility.yul\":13784:13810   */\n      swap1\n      pop\n        /* \"#utility.yul\":13676:13817   */\n      swap2\n      swap1\n      pop\n      jump\t// out\n        /* \"#utility.yul\":13847:14658   */\n    tag_172:\n        /* \"#utility.yul\":13922:13925   */\n      0x00\n        /* \"#utility.yul\":13959:13964   */\n      dup2\n        /* \"#utility.yul\":13953:13965   */\n      sload\n        /* \"#utility.yul\":13988:14024   */\n      tag_375\n        /* \"#utility.yul\":14014:14023   */\n      dup2\n        /* \"#utility.yul\":13988:14024   */\n      tag_120\n      jump\t// in\n    tag_375:\n        /* \"#utility.yul\":14040:14101   */\n      tag_376\n        /* \"#utility.yul\":14094:14100   */\n      dup2\n        /* \"#utility.yul\":14089:14092   */\n      dup7\n        /* \"#utility.yul\":14040:14101   */\n      tag_170\n      jump\t// in\n    tag_376:\n        /* \"#utility.yul\":14033:14101   */\n      swap5\n      pop\n        /* \"#utility.yul\":14132:14133   */\n      0x01\n        /* \"#utility.yul\":14121:14130   */\n      dup3\n        /* \"#utility.yul\":14117:14134   */\n      and\n        /* \"#utility.yul\":14148:14149   */\n      0x00\n        /* \"#utility.yul\":14143:14307   */\n      dup2\n      eq\n      tag_378\n      jumpi\n        /* \"#utility.yul\":14321:14322   */\n      0x01\n        /* \"#utility.yul\":14316:14652   */\n      dup2\n      eq\n      tag_379\n      jumpi\n        /* \"#utility.yul\":14110:14652   */\n      jump(tag_377)\n        /* \"#utility.yul\":14143:14307   */\n    tag_378:\n        /* \"#utility.yul\":14227:14231   */\n      0xff\n        /* \"#utility.yul\":14223:14232   */\n      not\n        /* \"#utility.yul\":14212:14221   */\n      dup4\n        /* \"#utility.yul\":14208:14233   */\n      and\n        /* \"#utility.yul\":14203:14206   */\n      dup7\n        /* \"#utility.yul\":14196:14234   */\n      mstore\n        /* \"#utility.yul\":14287:14293   */\n      dup2\n        /* \"#utility.yul\":14280:14294   */\n      iszero\n        /* \"#utility.yul\":14273:14295   */\n      iszero\n        /* \"#utility.yul\":14267:14271   */\n      0x20\n        /* \"#utility.yul\":14263:14296   */\n      mul\n        /* \"#utility.yul\":14258:14261   */\n      dup7\n        /* \"#utility.yul\":14254:14297   */\n      add\n        /* \"#utility.yul\":14247:14297   */\n      swap4\n      pop\n        /* \"#utility.yul\":14143:14307   */\n      jump(tag_377)\n        /* \"#utility.yul\":14316:14652   */\n    tag_379:\n        /* \"#utility.yul\":14383:14421   */\n      tag_380\n        /* \"#utility.yul\":14415:14420   */\n      dup6\n        /* \"#utility.yul\":14383:14421   */\n      tag_171\n      jump\t// in\n    tag_380:\n        /* \"#utility.yul\":14443:14444   */\n      0x00\n        /* \"#utility.yul\":14457:14611   */\n    tag_381:\n        /* \"#utility.yul\":14471:14477   */\n      dup4\n        /* \"#utility.yul\":14468:14469   */\n      dup2\n        /* \"#utility.yul\":14465:14478   */\n      lt\n        /* \"#utility.yul\":14457:14611   */\n      iszero\n      tag_383\n      jumpi\n        /* \"#utility.yul\":14545:14552   */\n      dup2\n        /* \"#utility.yul\":14539:14553   */\n      sload\n        /* \"#utility.yul\":14535:14536   */\n      dup2\n        /* \"#utility.yul\":14530:14533   */\n      dup10\n        /* \"#utility.yul\":14526:14537   */\n      add\n        /* \"#utility.yul\":14519:14554   */\n      mstore\n        /* \"#utility.yul\":14595:14596   */\n      0x01\n        /* \"#utility.yul\":14586:14593   */\n      dup3\n        /* \"#utility.yul\":14582:14597   */\n      add\n        /* \"#utility.yul\":14571:14597   */\n      swap2\n      pop\n        /* \"#utility.yul\":14493:14497   */\n      0x20\n        /* \"#utility.yul\":14490:14491   */\n      dup2\n        /* \"#utility.yul\":14486:14498   */\n      add\n        /* \"#utility.yul\":14481:14498   */\n      swap1\n      pop\n        /* \"#utility.yul\":14457:14611   */\n      jump(tag_381)\n    tag_383:\n        /* \"#utility.yul\":14640:14641   */\n      dup1\n        /* \"#utility.yul\":14635:14638   */\n      dup9\n        /* \"#utility.yul\":14631:14642   */\n      add\n        /* \"#utility.yul\":14624:14642   */\n      swap6\n      pop\n        /* \"#utility.yul\":14323:14652   */\n      pop\n      pop\n        /* \"#utility.yul\":14110:14652   */\n    tag_377:\n      pop\n        /* \"#utility.yul\":13926:14658   */\n      pop\n      pop\n        /* \"#utility.yul\":13847:14658   */\n      swap3\n      swap2\n      pop\n      pop\n      jump\t// out\n        /* \"#utility.yul\":14664:14854   */\n    tag_173:\n        /* \"#utility.yul\":14750:14760   */\n      0x00\n        /* \"#utility.yul\":14785:14848   */\n      tag_385\n        /* \"#utility.yul\":14844:14847   */\n      dup4\n        /* \"#utility.yul\":14836:14842   */\n      dup4\n        /* \"#utility.yul\":14785:14848   */\n      tag_172\n      jump\t// in\n    tag_385:\n        /* \"#utility.yul\":14771:14848   */\n      swap1\n      pop\n        /* \"#utility.yul\":14664:14854   */\n      swap3\n      swap2\n      pop\n      pop\n      jump\t// out\n        /* \"#utility.yul\":14860:14977   */\n    tag_174:\n        /* \"#utility.yul\":14934:14938   */\n      0x00\n        /* \"#utility.yul\":14966:14970   */\n      0x01\n        /* \"#utility.yul\":14961:14964   */\n      dup3\n        /* \"#utility.yul\":14957:14971   */\n      add\n        /* \"#utility.yul\":14949:14971   */\n      swap1\n      pop\n        /* \"#utility.yul\":14860:14977   */\n      swap2\n      swap1\n      pop\n      jump\t// out\n        /* \"#utility.yul\":15011:15968   */\n    tag_175:\n        /* \"#utility.yul\":15144:15147   */\n      0x00\n        /* \"#utility.yul\":15173:15231   */\n      tag_388\n        /* \"#utility.yul\":15225:15230   */\n      dup3\n        /* \"#utility.yul\":15173:15231   */\n      tag_166\n      jump\t// in\n    tag_388:\n        /* \"#utility.yul\":15247:15343   */\n      tag_389\n        /* \"#utility.yul\":15336:15342   */\n      dup2\n        /* \"#utility.yul\":15331:15334   */\n      dup6\n        /* \"#utility.yul\":15247:15343   */\n      tag_167\n      jump\t// in\n    tag_389:\n        /* \"#utility.yul\":15240:15343   */\n      swap4\n      pop\n        /* \"#utility.yul\":15369:15372   */\n      dup4\n        /* \"#utility.yul\":15414:15418   */\n      0x20\n        /* \"#utility.yul\":15406:15412   */\n      dup3\n        /* \"#utility.yul\":15402:15419   */\n      mul\n        /* \"#utility.yul\":15397:15400   */\n      dup6\n        /* \"#utility.yul\":15393:15420   */\n      add\n        /* \"#utility.yul\":15444:15504   */\n      tag_390\n        /* \"#utility.yul\":15498:15503   */\n      dup6\n        /* \"#utility.yul\":15444:15504   */\n      tag_168\n      jump\t// in\n    tag_390:\n        /* \"#utility.yul\":15527:15534   */\n      dup1\n        /* \"#utility.yul\":15558:15559   */\n      0x00\n        /* \"#utility.yul\":15543:15923   */\n    tag_391:\n        /* \"#utility.yul\":15568:15574   */\n      dup6\n        /* \"#utility.yul\":15565:15566   */\n      dup2\n        /* \"#utility.yul\":15562:15575   */\n      lt\n        /* \"#utility.yul\":15543:15923   */\n      iszero\n      tag_393\n      jumpi\n        /* \"#utility.yul\":15639:15648   */\n      dup5\n        /* \"#utility.yul\":15633:15637   */\n      dup5\n        /* \"#utility.yul\":15629:15649   */\n      sub\n        /* \"#utility.yul\":15624:15627   */\n      dup10\n        /* \"#utility.yul\":15617:15650   */\n      mstore\n        /* \"#utility.yul\":15684:15690   */\n      dup2\n        /* \"#utility.yul\":15711:15792   */\n      tag_394\n        /* \"#utility.yul\":15787:15791   */\n      dup6\n        /* \"#utility.yul\":15772:15785   */\n      dup3\n        /* \"#utility.yul\":15711:15792   */\n      tag_173\n      jump\t// in\n    tag_394:\n        /* \"#utility.yul\":15703:15792   */\n      swap5\n      pop\n        /* \"#utility.yul\":15815:15879   */\n      tag_395\n        /* \"#utility.yul\":15872:15878   */\n      dup4\n        /* \"#utility.yul\":15815:15879   */\n      tag_174\n      jump\t// in\n    tag_395:\n        /* \"#utility.yul\":15805:15879   */\n      swap3\n      pop\n        /* \"#utility.yul\":15908:15912   */\n      0x20\n        /* \"#utility.yul\":15903:15906   */\n      dup11\n        /* \"#utility.yul\":15899:15913   */\n      add\n        /* \"#utility.yul\":15892:15913   */\n      swap10\n      pop\n        /* \"#utility.yul\":15603:15923   */\n      pop\n        /* \"#utility.yul\":15590:15591   */\n      0x01\n        /* \"#utility.yul\":15587:15588   */\n      dup2\n        /* \"#utility.yul\":15583:15592   */\n      add\n        /* \"#utility.yul\":15578:15592   */\n      swap1\n      pop\n        /* \"#utility.yul\":15543:15923   */\n      jump(tag_391)\n    tag_393:\n        /* \"#utility.yul\":15547:15561   */\n      pop\n        /* \"#utility.yul\":15939:15943   */\n      dup3\n        /* \"#utility.yul\":15932:15943   */\n      swap8\n      pop\n        /* \"#utility.yul\":15959:15962   */\n      dup8\n        /* \"#utility.yul\":15952:15962   */\n      swap6\n      pop\n        /* \"#utility.yul\":15149:15968   */\n      pop\n      pop\n      pop\n      pop\n      pop\n        /* \"#utility.yul\":15011:15968   */\n      swap3\n      swap2\n      pop\n      pop\n      jump\t// out\n        /* \"#utility.yul\":15974:16092   */\n    tag_176:\n        /* \"#utility.yul\":16061:16085   */\n      tag_397\n        /* \"#utility.yul\":16079:16084   */\n      dup2\n        /* \"#utility.yul\":16061:16085   */\n      tag_133\n      jump\t// in\n    tag_397:\n        /* \"#utility.yul\":16056:16059   */\n      dup3\n        /* \"#utility.yul\":16049:16086   */\n      mstore\n        /* \"#utility.yul\":15974:16092   */\n      pop\n      pop\n      jump\t// out\n        /* \"#utility.yul\":16098:16212   */\n    tag_177:\n      pop\n      jump\t// out\n        /* \"#utility.yul\":16218:16580   */\n    tag_178:\n        /* \"#utility.yul\":16359:16362   */\n      0x00\n        /* \"#utility.yul\":16380:16445   */\n      tag_400\n        /* \"#utility.yul\":16443:16444   */\n      0x00\n        /* \"#utility.yul\":16438:16441   */\n      dup4\n        /* \"#utility.yul\":16380:16445   */\n      tag_148\n      jump\t// in\n    tag_400:\n        /* \"#utility.yul\":16373:16445   */\n      swap2\n      pop\n        /* \"#utility.yul\":16454:16547   */\n      tag_401\n        /* \"#utility.yul\":16543:16546   */\n      dup3\n        /* \"#utility.yul\":16454:16547   */\n      tag_177\n      jump\t// in\n    tag_401:\n        /* \"#utility.yul\":16572:16573   */\n      0x00\n        /* \"#utility.yul\":16567:16570   */\n      dup3\n        /* \"#utility.yul\":16563:16574   */\n      add\n        /* \"#utility.yul\":16556:16574   */\n      swap1\n      pop\n        /* \"#utility.yul\":16218:16580   */\n      swap2\n      swap1\n      pop\n      jump\t// out\n        /* \"#utility.yul\":16586:17806   */\n    tag_73:\n        /* \"#utility.yul\":16967:16971   */\n      0x00\n        /* \"#utility.yul\":17005:17008   */\n      0xa0\n        /* \"#utility.yul\":16994:17003   */\n      dup3\n        /* \"#utility.yul\":16990:17009   */\n      add\n        /* \"#utility.yul\":16982:17009   */\n      swap1\n      pop\n        /* \"#utility.yul\":17055:17064   */\n      dup2\n        /* \"#utility.yul\":17049:17053   */\n      dup2\n        /* \"#utility.yul\":17045:17065   */\n      sub\n        /* \"#utility.yul\":17041:17042   */\n      0x00\n        /* \"#utility.yul\":17030:17039   */\n      dup4\n        /* \"#utility.yul\":17026:17043   */\n      add\n        /* \"#utility.yul\":17019:17066   */\n      mstore\n        /* \"#utility.yul\":17083:17161   */\n      tag_403\n        /* \"#utility.yul\":17156:17160   */\n      dup2\n        /* \"#utility.yul\":17147:17153   */\n      dup8\n        /* \"#utility.yul\":17083:17161   */\n      tag_129\n      jump\t// in\n    tag_403:\n        /* \"#utility.yul\":17075:17161   */\n      swap1\n      pop\n        /* \"#utility.yul\":17208:17217   */\n      dup2\n        /* \"#utility.yul\":17202:17206   */\n      dup2\n        /* \"#utility.yul\":17198:17218   */\n      sub\n        /* \"#utility.yul\":17193:17195   */\n      0x20\n        /* \"#utility.yul\":17182:17191   */\n      dup4\n        /* \"#utility.yul\":17178:17196   */\n      add\n        /* \"#utility.yul\":17171:17219   */\n      mstore\n        /* \"#utility.yul\":17236:17358   */\n      tag_404\n        /* \"#utility.yul\":17353:17357   */\n      dup2\n        /* \"#utility.yul\":17344:17350   */\n      dup7\n        /* \"#utility.yul\":17236:17358   */\n      tag_175\n      jump\t// in\n    tag_404:\n        /* \"#utility.yul\":17228:17358   */\n      swap1\n      pop\n        /* \"#utility.yul\":17405:17414   */\n      dup2\n        /* \"#utility.yul\":17399:17403   */\n      dup2\n        /* \"#utility.yul\":17395:17415   */\n      sub\n        /* \"#utility.yul\":17390:17392   */\n      0x40\n        /* \"#utility.yul\":17379:17388   */\n      dup4\n        /* \"#utility.yul\":17375:17393   */\n      add\n        /* \"#utility.yul\":17368:17416   */\n      mstore\n        /* \"#utility.yul\":17433:17511   */\n      tag_405\n        /* \"#utility.yul\":17506:17510   */\n      dup2\n        /* \"#utility.yul\":17497:17503   */\n      dup6\n        /* \"#utility.yul\":17433:17511   */\n      tag_129\n      jump\t// in\n    tag_405:\n        /* \"#utility.yul\":17425:17511   */\n      swap1\n      pop\n        /* \"#utility.yul\":17521:17593   */\n      tag_406\n        /* \"#utility.yul\":17589:17591   */\n      0x60\n        /* \"#utility.yul\":17578:17587   */\n      dup4\n        /* \"#utility.yul\":17574:17592   */\n      add\n        /* \"#utility.yul\":17565:17571   */\n      dup5\n        /* \"#utility.yul\":17521:17593   */\n      tag_176\n      jump\t// in\n    tag_406:\n        /* \"#utility.yul\":17641:17650   */\n      dup2\n        /* \"#utility.yul\":17635:17639   */\n      dup2\n        /* \"#utility.yul\":17631:17651   */\n      sub\n        /* \"#utility.yul\":17625:17628   */\n      0x80\n        /* \"#utility.yul\":17614:17623   */\n      dup4\n        /* \"#utility.yul\":17610:17629   */\n      add\n        /* \"#utility.yul\":17603:17652   */\n      mstore\n        /* \"#utility.yul\":17669:17799   */\n      tag_407\n        /* \"#utility.yul\":17794:17798   */\n      dup2\n        /* \"#utility.yul\":17669:17799   */\n      tag_178\n      jump\t// in\n    tag_407:\n        /* \"#utility.yul\":17661:17799   */\n      swap1\n      pop\n        /* \"#utility.yul\":16586:17806   */\n      swap6\n      swap5\n      pop\n      pop\n      pop\n      pop\n      pop\n      jump\t// out\n        /* \"#utility.yul\":17812:18132   */\n    tag_179:\n        /* \"#utility.yul\":17898:17902   */\n      0x00\n        /* \"#utility.yul\":17988:18006   */\n      0xffffffffffffffff\n        /* \"#utility.yul\":17980:17986   */\n      dup3\n        /* \"#utility.yul\":17977:18007   */\n      gt\n        /* \"#utility.yul\":17974:18030   */\n      iszero\n      tag_409\n      jumpi\n        /* \"#utility.yul\":18010:18028   */\n      tag_410\n      tag_138\n      jump\t// in\n    tag_410:\n        /* \"#utility.yul\":17974:18030   */\n    tag_409:\n        /* \"#utility.yul\":18060:18064   */\n      0x20\n        /* \"#utility.yul\":18052:18058   */\n      dup3\n        /* \"#utility.yul\":18048:18065   */\n      mul\n        /* \"#utility.yul\":18040:18065   */\n      swap1\n      pop\n        /* \"#utility.yul\":18120:18124   */\n      0x20\n        /* \"#utility.yul\":18114:18118   */\n      dup2\n        /* \"#utility.yul\":18110:18125   */\n      add\n        /* \"#utility.yul\":18102:18125   */\n      swap1\n      pop\n        /* \"#utility.yul\":17812:18132   */\n      swap2\n      swap1\n      pop\n      jump\t// out\n        /* \"#utility.yul\":18153:19095   */\n    tag_180:\n        /* \"#utility.yul\":18258:18263   */\n      0x00\n        /* \"#utility.yul\":18283:18373   */\n      tag_412\n        /* \"#utility.yul\":18299:18372   */\n      tag_413\n        /* \"#utility.yul\":18365:18371   */\n      dup5\n        /* \"#utility.yul\":18299:18372   */\n      tag_179\n      jump\t// in\n    tag_413:\n        /* \"#utility.yul\":18283:18373   */\n      tag_140\n      jump\t// in\n    tag_412:\n        /* \"#utility.yul\":18274:18373   */\n      swap1\n      pop\n        /* \"#utility.yul\":18393:18398   */\n      dup1\n        /* \"#utility.yul\":18422:18428   */\n      dup4\n        /* \"#utility.yul\":18415:18420   */\n      dup3\n        /* \"#utility.yul\":18408:18429   */\n      mstore\n        /* \"#utility.yul\":18456:18460   */\n      0x20\n        /* \"#utility.yul\":18449:18454   */\n      dup3\n        /* \"#utility.yul\":18445:18461   */\n      add\n        /* \"#utility.yul\":18438:18461   */\n      swap1\n      pop\n        /* \"#utility.yul\":18509:18513   */\n      0x20\n        /* \"#utility.yul\":18501:18507   */\n      dup5\n        /* \"#utility.yul\":18497:18514   */\n      mul\n        /* \"#utility.yul\":18489:18495   */\n      dup4\n        /* \"#utility.yul\":18485:18515   */\n      add\n        /* \"#utility.yul\":18538:18541   */\n      dup6\n        /* \"#utility.yul\":18530:18536   */\n      dup2\n        /* \"#utility.yul\":18527:18542   */\n      gt\n        /* \"#utility.yul\":18524:18646   */\n      iszero\n      tag_414\n      jumpi\n        /* \"#utility.yul\":18557:18636   */\n      tag_415\n      tag_159\n      jump\t// in\n    tag_415:\n        /* \"#utility.yul\":18524:18646   */\n    tag_414:\n        /* \"#utility.yul\":18672:18678   */\n      dup4\n        /* \"#utility.yul\":18655:19089   */\n    tag_416:\n        /* \"#utility.yul\":18689:18695   */\n      dup2\n        /* \"#utility.yul\":18684:18687   */\n      dup2\n        /* \"#utility.yul\":18681:18696   */\n      lt\n        /* \"#utility.yul\":18655:19089   */\n      iszero\n      tag_418\n      jumpi\n        /* \"#utility.yul\":18778:18781   */\n      dup1\n        /* \"#utility.yul\":18765:18782   */\n      calldataload\n        /* \"#utility.yul\":18814:18832   */\n      0xffffffffffffffff\n        /* \"#utility.yul\":18801:18812   */\n      dup2\n        /* \"#utility.yul\":18798:18833   */\n      gt\n        /* \"#utility.yul\":18795:18917   */\n      iszero\n      tag_419\n      jumpi\n        /* \"#utility.yul\":18836:18915   */\n      tag_420\n      tag_136\n      jump\t// in\n    tag_420:\n        /* \"#utility.yul\":18795:18917   */\n    tag_419:\n        /* \"#utility.yul\":18960:18971   */\n      dup1\n        /* \"#utility.yul\":18952:18958   */\n      dup7\n        /* \"#utility.yul\":18948:18972   */\n      add\n        /* \"#utility.yul\":18998:19044   */\n      tag_421\n        /* \"#utility.yul\":19040:19043   */\n      dup10\n        /* \"#utility.yul\":19028:19038   */\n      dup3\n        /* \"#utility.yul\":18998:19044   */\n      tag_144\n      jump\t// in\n    tag_421:\n        /* \"#utility.yul\":18993:18996   */\n      dup6\n        /* \"#utility.yul\":18986:19045   */\n      mstore\n        /* \"#utility.yul\":19074:19078   */\n      0x20\n        /* \"#utility.yul\":19069:19072   */\n      dup6\n        /* \"#utility.yul\":19065:19079   */\n      add\n        /* \"#utility.yul\":19058:19079   */\n      swap5\n      pop\n        /* \"#utility.yul\":18731:19089   */\n      pop\n      pop\n        /* \"#utility.yul\":18715:18719   */\n      0x20\n        /* \"#utility.yul\":18710:18713   */\n      dup2\n        /* \"#utility.yul\":18706:18720   */\n      add\n        /* \"#utility.yul\":18699:18720   */\n      swap1\n      pop\n        /* \"#utility.yul\":18655:19089   */\n      jump(tag_416)\n    tag_418:\n        /* \"#utility.yul\":18659:18680   */\n      pop\n        /* \"#utility.yul\":18264:19095   */\n      pop\n      pop\n        /* \"#utility.yul\":18153:19095   */\n      swap4\n      swap3\n      pop\n      pop\n      pop\n      jump\t// out\n        /* \"#utility.yul\":19116:19504   */\n    tag_181:\n        /* \"#utility.yul\":19196:19201   */\n      0x00\n        /* \"#utility.yul\":19245:19248   */\n      dup3\n        /* \"#utility.yul\":19238:19242   */\n      0x1f\n        /* \"#utility.yul\":19230:19236   */\n      dup4\n        /* \"#utility.yul\":19226:19243   */\n      add\n        /* \"#utility.yul\":19222:19249   */\n      slt\n        /* \"#utility.yul\":19212:19334   */\n      tag_423\n      jumpi\n        /* \"#utility.yul\":19253:19332   */\n      tag_424\n      tag_136\n      jump\t// in\n    tag_424:\n        /* \"#utility.yul\":19212:19334   */\n    tag_423:\n        /* \"#utility.yul\":19370:19376   */\n      dup2\n        /* \"#utility.yul\":19357:19377   */\n      calldataload\n        /* \"#utility.yul\":19395:19498   */\n      tag_425\n        /* \"#utility.yul\":19494:19497   */\n      dup5\n        /* \"#utility.yul\":19486:19492   */\n      dup3\n        /* \"#utility.yul\":19479:19483   */\n      0x20\n        /* \"#utility.yul\":19471:19477   */\n      dup7\n        /* \"#utility.yul\":19467:19484   */\n      add\n        /* \"#utility.yul\":19395:19498   */\n      tag_180\n      jump\t// in\n    tag_425:\n        /* \"#utility.yul\":19386:19498   */\n      swap2\n      pop\n        /* \"#utility.yul\":19202:19504   */\n      pop\n        /* \"#utility.yul\":19116:19504   */\n      swap3\n      swap2\n      pop\n      pop\n      jump\t// out\n        /* \"#utility.yul\":19510:20390   */\n    tag_76:\n        /* \"#utility.yul\":19621:19627   */\n      0x00\n        /* \"#utility.yul\":19629:19635   */\n      dup1\n        /* \"#utility.yul\":19678:19680   */\n      0x40\n        /* \"#utility.yul\":19666:19675   */\n      dup4\n        /* \"#utility.yul\":19657:19664   */\n      dup6\n        /* \"#utility.yul\":19653:19676   */\n      sub\n        /* \"#utility.yul\":19649:19681   */\n      slt\n        /* \"#utility.yul\":19646:19765   */\n      iszero\n      tag_427\n      jumpi\n        /* \"#utility.yul\":19684:19763   */\n      tag_428\n      tag_131\n      jump\t// in\n    tag_428:\n        /* \"#utility.yul\":19646:19765   */\n    tag_427:\n        /* \"#utility.yul\":19832:19833   */\n      0x00\n        /* \"#utility.yul\":19821:19830   */\n      dup4\n        /* \"#utility.yul\":19817:19834   */\n      add\n        /* \"#utility.yul\":19804:19835   */\n      calldataload\n        /* \"#utility.yul\":19862:19880   */\n      0xffffffffffffffff\n        /* \"#utility.yul\":19854:19860   */\n      dup2\n        /* \"#utility.yul\":19851:19881   */\n      gt\n        /* \"#utility.yul\":19848:19965   */\n      iszero\n      tag_429\n      jumpi\n        /* \"#utility.yul\":19884:19963   */\n      tag_430\n      tag_132\n      jump\t// in\n    tag_430:\n        /* \"#utility.yul\":19848:19965   */\n    tag_429:\n        /* \"#utility.yul\":19989:20076   */\n      tag_431\n        /* \"#utility.yul\":20068:20075   */\n      dup6\n        /* \"#utility.yul\":20059:20065   */\n      dup3\n        /* \"#utility.yul\":20048:20057   */\n      dup7\n        /* \"#utility.yul\":20044:20066   */\n      add\n        /* \"#utility.yul\":19989:20076   */\n      tag_181\n      jump\t// in\n    tag_431:\n        /* \"#utility.yul\":19979:20076   */\n      swap3\n      pop\n        /* \"#utility.yul\":19775:20086   */\n      pop\n        /* \"#utility.yul\":20153:20155   */\n      0x20\n        /* \"#utility.yul\":20142:20151   */\n      dup4\n        /* \"#utility.yul\":20138:20156   */\n      add\n        /* \"#utility.yul\":20125:20157   */\n      calldataload\n        /* \"#utility.yul\":20184:20202   */\n      0xffffffffffffffff\n        /* \"#utility.yul\":20176:20182   */\n      dup2\n        /* \"#utility.yul\":20173:20203   */\n      gt\n        /* \"#utility.yul\":20170:20287   */\n      iszero\n      tag_432\n      jumpi\n        /* \"#utility.yul\":20206:20285   */\n      tag_433\n      tag_132\n      jump\t// in\n    tag_433:\n        /* \"#utility.yul\":20170:20287   */\n    tag_432:\n        /* \"#utility.yul\":20311:20373   */\n      tag_434\n        /* \"#utility.yul\":20365:20372   */\n      dup6\n        /* \"#utility.yul\":20356:20362   */\n      dup3\n        /* \"#utility.yul\":20345:20354   */\n      dup7\n        /* \"#utility.yul\":20341:20363   */\n      add\n        /* \"#utility.yul\":20311:20373   */\n      tag_144\n      jump\t// in\n    tag_434:\n        /* \"#utility.yul\":20301:20373   */\n      swap2\n      pop\n        /* \"#utility.yul\":20096:20383   */\n      pop\n        /* \"#utility.yul\":19510:20390   */\n      swap3\n      pop\n      swap3\n      swap1\n      pop\n      jump\t// out\n        /* \"#utility.yul\":20396:20576   */\n    tag_79:\n        /* \"#utility.yul\":20444:20521   */\n      0x4e487b7100000000000000000000000000000000000000000000000000000000\n        /* \"#utility.yul\":20441:20442   */\n      0x00\n        /* \"#utility.yul\":20434:20522   */\n      mstore\n        /* \"#utility.yul\":20541:20545   */\n      0x32\n        /* \"#utility.yul\":20538:20539   */\n      0x04\n        /* \"#utility.yul\":20531:20546   */\n      mstore\n        /* \"#utility.yul\":20565:20569   */\n      0x24\n        /* \"#utility.yul\":20562:20563   */\n      0x00\n        /* \"#utility.yul\":20555:20570   */\n      revert\n        /* \"#utility.yul\":20582:20831   */\n    tag_182:\n        /* \"#utility.yul\":20657:20661   */\n      0x00\n        /* \"#utility.yul\":20747:20765   */\n      0xffffffffffffffff\n        /* \"#utility.yul\":20739:20745   */\n      dup3\n        /* \"#utility.yul\":20736:20766   */\n      gt\n        /* \"#utility.yul\":20733:20789   */\n      iszero\n      tag_437\n      jumpi\n        /* \"#utility.yul\":20769:20787   */\n      tag_438\n      tag_138\n      jump\t// in\n    tag_438:\n        /* \"#utility.yul\":20733:20789   */\n    tag_437:\n        /* \"#utility.yul\":20819:20823   */\n      0x20\n        /* \"#utility.yul\":20811:20817   */\n      dup3\n        /* \"#utility.yul\":20807:20824   */\n      mul\n        /* \"#utility.yul\":20799:20824   */\n      swap1\n      pop\n        /* \"#utility.yul\":20582:20831   */\n      swap2\n      swap1\n      pop\n      jump\t// out\n        /* \"#utility.yul\":20837:20914   */\n    tag_183:\n        /* \"#utility.yul\":20874:20881   */\n      0x00\n        /* \"#utility.yul\":20903:20908   */\n      dup2\n        /* \"#utility.yul\":20892:20908   */\n      swap1\n      pop\n        /* \"#utility.yul\":20837:20914   */\n      swap2\n      swap1\n      pop\n      jump\t// out\n        /* \"#utility.yul\":20920:21042   */\n    tag_184:\n        /* \"#utility.yul\":20993:21017   */\n      tag_441\n        /* \"#utility.yul\":21011:21016   */\n      dup2\n        /* \"#utility.yul\":20993:21017   */\n      tag_183\n      jump\t// in\n    tag_441:\n        /* \"#utility.yul\":20986:20991   */\n      dup2\n        /* \"#utility.yul\":20983:21018   */\n      eq\n        /* \"#utility.yul\":20973:21036   */\n      tag_442\n      jumpi\n        /* \"#utility.yul\":21032:21033   */\n      0x00\n        /* \"#utility.yul\":21029:21030   */\n      dup1\n        /* \"#utility.yul\":21022:21034   */\n      revert\n        /* \"#utility.yul\":20973:21036   */\n    tag_442:\n        /* \"#utility.yul\":20920:21042   */\n      pop\n      jump\t// out\n        /* \"#utility.yul\":21048:21191   */\n    tag_185:\n        /* \"#utility.yul\":21105:21110   */\n      0x00\n        /* \"#utility.yul\":21136:21142   */\n      dup2\n        /* \"#utility.yul\":21130:21143   */\n      mload\n        /* \"#utility.yul\":21121:21143   */\n      swap1\n      pop\n        /* \"#utility.yul\":21152:21185   */\n      tag_444\n        /* \"#utility.yul\":21179:21184   */\n      dup2\n        /* \"#utility.yul\":21152:21185   */\n      tag_184\n      jump\t// in\n    tag_444:\n        /* \"#utility.yul\":21048:21191   */\n      swap3\n      swap2\n      pop\n      pop\n      jump\t// out\n        /* \"#utility.yul\":21215:21880   */\n    tag_186:\n        /* \"#utility.yul\":21320:21325   */\n      0x00\n        /* \"#utility.yul\":21345:21424   */\n      tag_446\n        /* \"#utility.yul\":21361:21423   */\n      tag_447\n        /* \"#utility.yul\":21416:21422   */\n      dup5\n        /* \"#utility.yul\":21361:21423   */\n      tag_182\n      jump\t// in\n    tag_447:\n        /* \"#utility.yul\":21345:21424   */\n      tag_140\n      jump\t// in\n    tag_446:\n        /* \"#utility.yul\":21336:21424   */\n      swap1\n      pop\n        /* \"#utility.yul\":21444:21449   */\n      dup1\n        /* \"#utility.yul\":21497:21501   */\n      0x20\n        /* \"#utility.yul\":21489:21495   */\n      dup5\n        /* \"#utility.yul\":21485:21502   */\n      mul\n        /* \"#utility.yul\":21477:21483   */\n      dup4\n        /* \"#utility.yul\":21473:21503   */\n      add\n        /* \"#utility.yul\":21526:21529   */\n      dup6\n        /* \"#utility.yul\":21518:21524   */\n      dup2\n        /* \"#utility.yul\":21515:21530   */\n      gt\n        /* \"#utility.yul\":21512:21634   */\n      iszero\n      tag_448\n      jumpi\n        /* \"#utility.yul\":21545:21624   */\n      tag_449\n      tag_159\n      jump\t// in\n    tag_449:\n        /* \"#utility.yul\":21512:21634   */\n    tag_448:\n        /* \"#utility.yul\":21660:21666   */\n      dup4\n        /* \"#utility.yul\":21643:21874   */\n    tag_450:\n        /* \"#utility.yul\":21677:21683   */\n      dup2\n        /* \"#utility.yul\":21672:21675   */\n      dup2\n        /* \"#utility.yul\":21669:21684   */\n      lt\n        /* \"#utility.yul\":21643:21874   */\n      iszero\n      tag_452\n      jumpi\n        /* \"#utility.yul\":21752:21755   */\n      dup1\n        /* \"#utility.yul\":21781:21829   */\n      tag_453\n        /* \"#utility.yul\":21825:21828   */\n      dup9\n        /* \"#utility.yul\":21813:21823   */\n      dup3\n        /* \"#utility.yul\":21781:21829   */\n      tag_185\n      jump\t// in\n    tag_453:\n        /* \"#utility.yul\":21776:21779   */\n      dup5\n        /* \"#utility.yul\":21769:21830   */\n      mstore\n        /* \"#utility.yul\":21859:21863   */\n      0x20\n        /* \"#utility.yul\":21854:21857   */\n      dup5\n        /* \"#utility.yul\":21850:21864   */\n      add\n        /* \"#utility.yul\":21843:21864   */\n      swap4\n      pop\n        /* \"#utility.yul\":21719:21874   */\n      pop\n        /* \"#utility.yul\":21703:21707   */\n      0x20\n        /* \"#utility.yul\":21698:21701   */\n      dup2\n        /* \"#utility.yul\":21694:21708   */\n      add\n        /* \"#utility.yul\":21687:21708   */\n      swap1\n      pop\n        /* \"#utility.yul\":21643:21874   */\n      jump(tag_450)\n    tag_452:\n        /* \"#utility.yul\":21647:21668   */\n      pop\n        /* \"#utility.yul\":21326:21880   */\n      pop\n      pop\n        /* \"#utility.yul\":21215:21880   */\n      swap4\n      swap3\n      pop\n      pop\n      pop\n      jump\t// out\n        /* \"#utility.yul\":21904:22265   */\n    tag_187:\n        /* \"#utility.yul\":21984:21989   */\n      0x00\n        /* \"#utility.yul\":22033:22036   */\n      dup3\n        /* \"#utility.yul\":22026:22030   */\n      0x1f\n        /* \"#utility.yul\":22018:22024   */\n      dup4\n        /* \"#utility.yul\":22014:22031   */\n      add\n        /* \"#utility.yul\":22010:22037   */\n      slt\n        /* \"#utility.yul\":22000:22122   */\n      tag_455\n      jumpi\n        /* \"#utility.yul\":22041:22120   */\n      tag_456\n      tag_136\n      jump\t// in\n    tag_456:\n        /* \"#utility.yul\":22000:22122   */\n    tag_455:\n        /* \"#utility.yul\":22145:22149   */\n      0x03\n        /* \"#utility.yul\":22167:22259   */\n      tag_457\n        /* \"#utility.yul\":22255:22258   */\n      dup5\n        /* \"#utility.yul\":22247:22253   */\n      dup3\n        /* \"#utility.yul\":22239:22245   */\n      dup6\n        /* \"#utility.yul\":22167:22259   */\n      tag_186\n      jump\t// in\n    tag_457:\n        /* \"#utility.yul\":22158:22259   */\n      swap2\n      pop\n        /* \"#utility.yul\":21990:22265   */\n      pop\n        /* \"#utility.yul\":21904:22265   */\n      swap3\n      swap2\n      pop\n      pop\n      jump\t// out\n        /* \"#utility.yul\":22271:22703   */\n    tag_188:\n        /* \"#utility.yul\":22359:22364   */\n      0x00\n        /* \"#utility.yul\":22384:22449   */\n      tag_459\n        /* \"#utility.yul\":22400:22448   */\n      tag_460\n        /* \"#utility.yul\":22441:22447   */\n      dup5\n        /* \"#utility.yul\":22400:22448   */\n      tag_141\n      jump\t// in\n    tag_460:\n        /* \"#utility.yul\":22384:22449   */\n      tag_140\n      jump\t// in\n    tag_459:\n        /* \"#utility.yul\":22375:22449   */\n      swap1\n      pop\n        /* \"#utility.yul\":22472:22478   */\n      dup3\n        /* \"#utility.yul\":22465:22470   */\n      dup2\n        /* \"#utility.yul\":22458:22479   */\n      mstore\n        /* \"#utility.yul\":22510:22514   */\n      0x20\n        /* \"#utility.yul\":22503:22508   */\n      dup2\n        /* \"#utility.yul\":22499:22515   */\n      add\n        /* \"#utility.yul\":22548:22551   */\n      dup5\n        /* \"#utility.yul\":22539:22545   */\n      dup5\n        /* \"#utility.yul\":22534:22537   */\n      dup5\n        /* \"#utility.yul\":22530:22546   */\n      add\n        /* \"#utility.yul\":22527:22552   */\n      gt\n        /* \"#utility.yul\":22524:22636   */\n      iszero\n      tag_461\n      jumpi\n        /* \"#utility.yul\":22555:22634   */\n      tag_462\n      tag_137\n      jump\t// in\n    tag_462:\n        /* \"#utility.yul\":22524:22636   */\n    tag_461:\n        /* \"#utility.yul\":22645:22697   */\n      tag_463\n        /* \"#utility.yul\":22690:22696   */\n      dup5\n        /* \"#utility.yul\":22685:22688   */\n      dup3\n        /* \"#utility.yul\":22680:22683   */\n      dup6\n        /* \"#utility.yul\":22645:22697   */\n      tag_127\n      jump\t// in\n    tag_463:\n        /* \"#utility.yul\":22365:22703   */\n      pop\n        /* \"#utility.yul\":22271:22703   */\n      swap4\n      swap3\n      pop\n      pop\n      pop\n      jump\t// out\n        /* \"#utility.yul\":22722:23075   */\n    tag_189:\n        /* \"#utility.yul\":22788:22793   */\n      0x00\n        /* \"#utility.yul\":22837:22840   */\n      dup3\n        /* \"#utility.yul\":22830:22834   */\n      0x1f\n        /* \"#utility.yul\":22822:22828   */\n      dup4\n        /* \"#utility.yul\":22818:22835   */\n      add\n        /* \"#utility.yul\":22814:22841   */\n      slt\n        /* \"#utility.yul\":22804:22926   */\n      tag_465\n      jumpi\n        /* \"#utility.yul\":22845:22924   */\n      tag_466\n      tag_136\n      jump\t// in\n    tag_466:\n        /* \"#utility.yul\":22804:22926   */\n    tag_465:\n        /* \"#utility.yul\":22955:22961   */\n      dup2\n        /* \"#utility.yul\":22949:22962   */\n      mload\n        /* \"#utility.yul\":22980:23069   */\n      tag_467\n        /* \"#utility.yul\":23065:23068   */\n      dup5\n        /* \"#utility.yul\":23057:23063   */\n      dup3\n        /* \"#utility.yul\":23050:23054   */\n      0x20\n        /* \"#utility.yul\":23042:23048   */\n      dup7\n        /* \"#utility.yul\":23038:23055   */\n      add\n        /* \"#utility.yul\":22980:23069   */\n      tag_188\n      jump\t// in\n    tag_467:\n        /* \"#utility.yul\":22971:23069   */\n      swap2\n      pop\n        /* \"#utility.yul\":22794:23075   */\n      pop\n        /* \"#utility.yul\":22722:23075   */\n      swap3\n      swap2\n      pop\n      pop\n      jump\t// out\n        /* \"#utility.yul\":23081:23806   */\n    tag_81:\n        /* \"#utility.yul\":23192:23198   */\n      0x00\n        /* \"#utility.yul\":23200:23206   */\n      dup1\n        /* \"#utility.yul\":23249:23252   */\n      0x80\n        /* \"#utility.yul\":23237:23246   */\n      dup4\n        /* \"#utility.yul\":23228:23235   */\n      dup6\n        /* \"#utility.yul\":23224:23247   */\n      sub\n        /* \"#utility.yul\":23220:23253   */\n      slt\n        /* \"#utility.yul\":23217:23337   */\n      iszero\n      tag_469\n      jumpi\n        /* \"#utility.yul\":23256:23335   */\n      tag_470\n      tag_131\n      jump\t// in\n    tag_470:\n        /* \"#utility.yul\":23217:23337   */\n    tag_469:\n        /* \"#utility.yul\":23376:23377   */\n      0x00\n        /* \"#utility.yul\":23401:23488   */\n      tag_471\n        /* \"#utility.yul\":23480:23487   */\n      dup6\n        /* \"#utility.yul\":23471:23477   */\n      dup3\n        /* \"#utility.yul\":23460:23469   */\n      dup7\n        /* \"#utility.yul\":23456:23478   */\n      add\n        /* \"#utility.yul\":23401:23488   */\n      tag_187\n      jump\t// in\n    tag_471:\n        /* \"#utility.yul\":23391:23488   */\n      swap3\n      pop\n        /* \"#utility.yul\":23347:23498   */\n      pop\n        /* \"#utility.yul\":23558:23560   */\n      0x60\n        /* \"#utility.yul\":23547:23556   */\n      dup4\n        /* \"#utility.yul\":23543:23561   */\n      add\n        /* \"#utility.yul\":23537:23562   */\n      mload\n        /* \"#utility.yul\":23589:23607   */\n      0xffffffffffffffff\n        /* \"#utility.yul\":23581:23587   */\n      dup2\n        /* \"#utility.yul\":23578:23608   */\n      gt\n        /* \"#utility.yul\":23575:23692   */\n      iszero\n      tag_472\n      jumpi\n        /* \"#utility.yul\":23611:23690   */\n      tag_473\n      tag_132\n      jump\t// in\n    tag_473:\n        /* \"#utility.yul\":23575:23692   */\n    tag_472:\n        /* \"#utility.yul\":23716:23789   */\n      tag_474\n        /* \"#utility.yul\":23781:23788   */\n      dup6\n        /* \"#utility.yul\":23772:23778   */\n      dup3\n        /* \"#utility.yul\":23761:23770   */\n      dup7\n        /* \"#utility.yul\":23757:23779   */\n      add\n        /* \"#utility.yul\":23716:23789   */\n      tag_189\n      jump\t// in\n    tag_474:\n        /* \"#utility.yul\":23706:23789   */\n      swap2\n      pop\n        /* \"#utility.yul\":23508:23799   */\n      pop\n        /* \"#utility.yul\":23081:23806   */\n      swap3\n      pop\n      swap3\n      swap1\n      pop\n      jump\t// out\n        /* \"#utility.yul\":23812:23935   */\n    tag_190:\n        /* \"#utility.yul\":23876:23883   */\n      0x00\n        /* \"#utility.yul\":23905:23929   */\n      tag_476\n        /* \"#utility.yul\":23923:23928   */\n      dup3\n        /* \"#utility.yul\":23905:23929   */\n      tag_164\n      jump\t// in\n    tag_476:\n        /* \"#utility.yul\":23894:23929   */\n      swap1\n      pop\n        /* \"#utility.yul\":23812:23935   */\n      swap2\n      swap1\n      pop\n      jump\t// out\n        /* \"#utility.yul\":23941:24117   */\n    tag_191:\n        /* \"#utility.yul\":24041:24092   */\n      tag_478\n        /* \"#utility.yul\":24086:24091   */\n      dup2\n        /* \"#utility.yul\":24041:24092   */\n      tag_190\n      jump\t// in\n    tag_478:\n        /* \"#utility.yul\":24034:24039   */\n      dup2\n        /* \"#utility.yul\":24031:24093   */\n      eq\n        /* \"#utility.yul\":24021:24111   */\n      tag_479\n      jumpi\n        /* \"#utility.yul\":24107:24108   */\n      0x00\n        /* \"#utility.yul\":24104:24105   */\n      dup1\n        /* \"#utility.yul\":24097:24109   */\n      revert\n        /* \"#utility.yul\":24021:24111   */\n    tag_479:\n        /* \"#utility.yul\":23941:24117   */\n      pop\n      jump\t// out\n        /* \"#utility.yul\":24123:24320   */\n    tag_192:\n        /* \"#utility.yul\":24207:24212   */\n      0x00\n        /* \"#utility.yul\":24238:24244   */\n      dup2\n        /* \"#utility.yul\":24232:24245   */\n      mload\n        /* \"#utility.yul\":24223:24245   */\n      swap1\n      pop\n        /* \"#utility.yul\":24254:24314   */\n      tag_481\n        /* \"#utility.yul\":24308:24313   */\n      dup2\n        /* \"#utility.yul\":24254:24314   */\n      tag_191\n      jump\t// in\n    tag_481:\n        /* \"#utility.yul\":24123:24320   */\n      swap3\n      swap2\n      pop\n      pop\n      jump\t// out\n        /* \"#utility.yul\":24326:24731   */\n    tag_85:\n        /* \"#utility.yul\":24423:24429   */\n      0x00\n        /* \"#utility.yul\":24472:24474   */\n      0x20\n        /* \"#utility.yul\":24460:24469   */\n      dup3\n        /* \"#utility.yul\":24451:24458   */\n      dup5\n        /* \"#utility.yul\":24447:24470   */\n      sub\n        /* \"#utility.yul\":24443:24475   */\n      slt\n        /* \"#utility.yul\":24440:24559   */\n      iszero\n      tag_483\n      jumpi\n        /* \"#utility.yul\":24478:24557   */\n      tag_484\n      tag_131\n      jump\t// in\n    tag_484:\n        /* \"#utility.yul\":24440:24559   */\n    tag_483:\n        /* \"#utility.yul\":24598:24599   */\n      0x00\n        /* \"#utility.yul\":24623:24714   */\n      tag_485\n        /* \"#utility.yul\":24706:24713   */\n      dup5\n        /* \"#utility.yul\":24697:24703   */\n      dup3\n        /* \"#utility.yul\":24686:24695   */\n      dup6\n        /* \"#utility.yul\":24682:24704   */\n      add\n        /* \"#utility.yul\":24623:24714   */\n      tag_192\n      jump\t// in\n    tag_485:\n        /* \"#utility.yul\":24613:24714   */\n      swap2\n      pop\n        /* \"#utility.yul\":24569:24724   */\n      pop\n        /* \"#utility.yul\":24326:24731   */\n      swap3\n      swap2\n      pop\n      pop\n      jump\t// out\n        /* \"#utility.yul\":24737:24859   */\n    tag_193:\n        /* \"#utility.yul\":24810:24834   */\n      tag_487\n        /* \"#utility.yul\":24828:24833   */\n      dup2\n        /* \"#utility.yul\":24810:24834   */\n      tag_164\n      jump\t// in\n    tag_487:\n        /* \"#utility.yul\":24803:24808   */\n      dup2\n        /* \"#utility.yul\":24800:24835   */\n      eq\n        /* \"#utility.yul\":24790:24853   */\n      tag_488\n      jumpi\n        /* \"#utility.yul\":24849:24850   */\n      0x00\n        /* \"#utility.yul\":24846:24847   */\n      dup1\n        /* \"#utility.yul\":24839:24851   */\n      revert\n        /* \"#utility.yul\":24790:24853   */\n    tag_488:\n        /* \"#utility.yul\":24737:24859   */\n      pop\n      jump\t// out\n        /* \"#utility.yul\":24865:25008   */\n    tag_194:\n        /* \"#utility.yul\":24922:24927   */\n      0x00\n        /* \"#utility.yul\":24953:24959   */\n      dup2\n        /* \"#utility.yul\":24947:24960   */\n      mload\n        /* \"#utility.yul\":24938:24960   */\n      swap1\n      pop\n        /* \"#utility.yul\":24969:25002   */\n      tag_490\n        /* \"#utility.yul\":24996:25001   */\n      dup2\n        /* \"#utility.yul\":24969:25002   */\n      tag_193\n      jump\t// in\n    tag_490:\n        /* \"#utility.yul\":24865:25008   */\n      swap3\n      swap2\n      pop\n      pop\n      jump\t// out\n        /* \"#utility.yul\":25014:25365   */\n    tag_89:\n        /* \"#utility.yul\":25084:25090   */\n      0x00\n        /* \"#utility.yul\":25133:25135   */\n      0x20\n        /* \"#utility.yul\":25121:25130   */\n      dup3\n        /* \"#utility.yul\":25112:25119   */\n      dup5\n        /* \"#utility.yul\":25108:25131   */\n      sub\n        /* \"#utility.yul\":25104:25136   */\n      slt\n        /* \"#utility.yul\":25101:25220   */\n      iszero\n      tag_492\n      jumpi\n        /* \"#utility.yul\":25139:25218   */\n      tag_493\n      tag_131\n      jump\t// in\n    tag_493:\n        /* \"#utility.yul\":25101:25220   */\n    tag_492:\n        /* \"#utility.yul\":25259:25260   */\n      0x00\n        /* \"#utility.yul\":25284:25348   */\n      tag_494\n        /* \"#utility.yul\":25340:25347   */\n      dup5\n        /* \"#utility.yul\":25331:25337   */\n      dup3\n        /* \"#utility.yul\":25320:25329   */\n      dup6\n        /* \"#utility.yul\":25316:25338   */\n      add\n        /* \"#utility.yul\":25284:25348   */\n      tag_194\n      jump\t// in\n    tag_494:\n        /* \"#utility.yul\":25274:25348   */\n      swap2\n      pop\n        /* \"#utility.yul\":25230:25358   */\n      pop\n        /* \"#utility.yul\":25014:25365   */\n      swap3\n      swap2\n      pop\n      pop\n      jump\t// out\n        /* \"#utility.yul\":25371:25900   */\n    tag_94:\n        /* \"#utility.yul\":25538:25542   */\n      0x00\n        /* \"#utility.yul\":25576:25578   */\n      0x60\n        /* \"#utility.yul\":25565:25574   */\n      dup3\n        /* \"#utility.yul\":25561:25579   */\n      add\n        /* \"#utility.yul\":25553:25579   */\n      swap1\n      pop\n        /* \"#utility.yul\":25589:25660   */\n      tag_496\n        /* \"#utility.yul\":25657:25658   */\n      0x00\n        /* \"#utility.yul\":25646:25655   */\n      dup4\n        /* \"#utility.yul\":25642:25659   */\n      add\n        /* \"#utility.yul\":25633:25639   */\n      dup7\n        /* \"#utility.yul\":25589:25660   */\n      tag_165\n      jump\t// in\n    tag_496:\n        /* \"#utility.yul\":25707:25716   */\n      dup2\n        /* \"#utility.yul\":25701:25705   */\n      dup2\n        /* \"#utility.yul\":25697:25717   */\n      sub\n        /* \"#utility.yul\":25692:25694   */\n      0x20\n        /* \"#utility.yul\":25681:25690   */\n      dup4\n        /* \"#utility.yul\":25677:25695   */\n      add\n        /* \"#utility.yul\":25670:25718   */\n      mstore\n        /* \"#utility.yul\":25735:25811   */\n      tag_497\n        /* \"#utility.yul\":25806:25810   */\n      dup2\n        /* \"#utility.yul\":25797:25803   */\n      dup6\n        /* \"#utility.yul\":25735:25811   */\n      tag_149\n      jump\t// in\n    tag_497:\n        /* \"#utility.yul\":25727:25811   */\n      swap1\n      pop\n        /* \"#utility.yul\":25821:25893   */\n      tag_498\n        /* \"#utility.yul\":25889:25891   */\n      0x40\n        /* \"#utility.yul\":25878:25887   */\n      dup4\n        /* \"#utility.yul\":25874:25892   */\n      add\n        /* \"#utility.yul\":25865:25871   */\n      dup5\n        /* \"#utility.yul\":25821:25893   */\n      tag_165\n      jump\t// in\n    tag_498:\n        /* \"#utility.yul\":25371:25900   */\n      swap5\n      swap4\n      pop\n      pop\n      pop\n      pop\n      jump\t// out\n        /* \"#utility.yul\":25906:26023   */\n    tag_195:\n        /* \"#utility.yul\":26015:26016   */\n      0x00\n        /* \"#utility.yul\":26012:26013   */\n      dup1\n        /* \"#utility.yul\":26005:26017   */\n      revert\n        /* \"#utility.yul\":26152:26295   */\n    tag_197:\n        /* \"#utility.yul\":26209:26214   */\n      0x00\n        /* \"#utility.yul\":26240:26246   */\n      dup2\n        /* \"#utility.yul\":26234:26247   */\n      mload\n        /* \"#utility.yul\":26225:26247   */\n      swap1\n      pop\n        /* \"#utility.yul\":26256:26289   */\n      tag_502\n        /* \"#utility.yul\":26283:26288   */\n      dup2\n        /* \"#utility.yul\":26256:26289   */\n      tag_134\n      jump\t// in\n    tag_502:\n        /* \"#utility.yul\":26152:26295   */\n      swap3\n      swap2\n      pop\n      pop\n      jump\t// out\n        /* \"#utility.yul\":26328:26942   */\n    tag_198:\n        /* \"#utility.yul\":26410:26415   */\n      0x00\n        /* \"#utility.yul\":26454:26458   */\n      0x40\n        /* \"#utility.yul\":26442:26451   */\n      dup3\n        /* \"#utility.yul\":26437:26440   */\n      dup5\n        /* \"#utility.yul\":26433:26452   */\n      sub\n        /* \"#utility.yul\":26429:26459   */\n      slt\n        /* \"#utility.yul\":26426:26543   */\n      iszero\n      tag_504\n      jumpi\n        /* \"#utility.yul\":26462:26541   */\n      tag_505\n      tag_195\n      jump\t// in\n    tag_505:\n        /* \"#utility.yul\":26426:26543   */\n    tag_504:\n        /* \"#utility.yul\":26561:26582   */\n      tag_506\n        /* \"#utility.yul\":26577:26581   */\n      0x40\n        /* \"#utility.yul\":26561:26582   */\n      tag_140\n      jump\t// in\n    tag_506:\n        /* \"#utility.yul\":26552:26582   */\n      swap1\n      pop\n        /* \"#utility.yul\":26649:26650   */\n      0x00\n        /* \"#utility.yul\":26689:26749   */\n      tag_507\n        /* \"#utility.yul\":26745:26748   */\n      dup5\n        /* \"#utility.yul\":26736:26742   */\n      dup3\n        /* \"#utility.yul\":26725:26734   */\n      dup6\n        /* \"#utility.yul\":26721:26743   */\n      add\n        /* \"#utility.yul\":26689:26749   */\n      tag_194\n      jump\t// in\n    tag_507:\n        /* \"#utility.yul\":26682:26686   */\n      0x00\n        /* \"#utility.yul\":26675:26680   */\n      dup4\n        /* \"#utility.yul\":26671:26687   */\n      add\n        /* \"#utility.yul\":26664:26750   */\n      mstore\n        /* \"#utility.yul\":26592:26761   */\n      pop\n        /* \"#utility.yul\":26822:26824   */\n      0x20\n        /* \"#utility.yul\":26863:26923   */\n      tag_508\n        /* \"#utility.yul\":26919:26922   */\n      dup5\n        /* \"#utility.yul\":26910:26916   */\n      dup3\n        /* \"#utility.yul\":26899:26908   */\n      dup6\n        /* \"#utility.yul\":26895:26917   */\n      add\n        /* \"#utility.yul\":26863:26923   */\n      tag_197\n      jump\t// in\n    tag_508:\n        /* \"#utility.yul\":26856:26860   */\n      0x20\n        /* \"#utility.yul\":26849:26854   */\n      dup4\n        /* \"#utility.yul\":26845:26861   */\n      add\n        /* \"#utility.yul\":26838:26924   */\n      mstore\n        /* \"#utility.yul\":26771:26935   */\n      pop\n        /* \"#utility.yul\":26328:26942   */\n      swap3\n      swap2\n      pop\n      pop\n      jump\t// out\n        /* \"#utility.yul\":26948:27701   */\n    tag_98:\n        /* \"#utility.yul\":27080:27086   */\n      0x00\n        /* \"#utility.yul\":27088:27094   */\n      dup1\n        /* \"#utility.yul\":27096:27102   */\n      0x00\n        /* \"#utility.yul\":27145:27148   */\n      0xa0\n        /* \"#utility.yul\":27133:27142   */\n      dup5\n        /* \"#utility.yul\":27124:27131   */\n      dup7\n        /* \"#utility.yul\":27120:27143   */\n      sub\n        /* \"#utility.yul\":27116:27149   */\n      slt\n        /* \"#utility.yul\":27113:27233   */\n      iszero\n      tag_510\n      jumpi\n        /* \"#utility.yul\":27152:27231   */\n      tag_511\n      tag_131\n      jump\t// in\n    tag_511:\n        /* \"#utility.yul\":27113:27233   */\n    tag_510:\n        /* \"#utility.yul\":27272:27273   */\n      0x00\n        /* \"#utility.yul\":27297:27383   */\n      tag_512\n        /* \"#utility.yul\":27375:27382   */\n      dup7\n        /* \"#utility.yul\":27366:27372   */\n      dup3\n        /* \"#utility.yul\":27355:27364   */\n      dup8\n        /* \"#utility.yul\":27351:27373   */\n      add\n        /* \"#utility.yul\":27297:27383   */\n      tag_198\n      jump\t// in\n    tag_512:\n        /* \"#utility.yul\":27287:27383   */\n      swap4\n      pop\n        /* \"#utility.yul\":27243:27393   */\n      pop\n        /* \"#utility.yul\":27432:27434   */\n      0x40\n        /* \"#utility.yul\":27458:27544   */\n      tag_513\n        /* \"#utility.yul\":27536:27543   */\n      dup7\n        /* \"#utility.yul\":27527:27533   */\n      dup3\n        /* \"#utility.yul\":27516:27525   */\n      dup8\n        /* \"#utility.yul\":27512:27534   */\n      add\n        /* \"#utility.yul\":27458:27544   */\n      tag_198\n      jump\t// in\n    tag_513:\n        /* \"#utility.yul\":27448:27544   */\n      swap3\n      pop\n        /* \"#utility.yul\":27403:27554   */\n      pop\n        /* \"#utility.yul\":27593:27596   */\n      0x80\n        /* \"#utility.yul\":27620:27684   */\n      tag_514\n        /* \"#utility.yul\":27676:27683   */\n      dup7\n        /* \"#utility.yul\":27667:27673   */\n      dup3\n        /* \"#utility.yul\":27656:27665   */\n      dup8\n        /* \"#utility.yul\":27652:27674   */\n      add\n        /* \"#utility.yul\":27620:27684   */\n      tag_197\n      jump\t// in\n    tag_514:\n        /* \"#utility.yul\":27610:27684   */\n      swap2\n      pop\n        /* \"#utility.yul\":27564:27694   */\n      pop\n        /* \"#utility.yul\":26948:27701   */\n      swap3\n      pop\n      swap3\n      pop\n      swap3\n      jump\t// out\n        /* \"#utility.yul\":27707:28039   */\n    tag_100:\n        /* \"#utility.yul\":27828:27832   */\n      0x00\n        /* \"#utility.yul\":27866:27868   */\n      0x40\n        /* \"#utility.yul\":27855:27864   */\n      dup3\n        /* \"#utility.yul\":27851:27869   */\n      add\n        /* \"#utility.yul\":27843:27869   */\n      swap1\n      pop\n        /* \"#utility.yul\":27879:27950   */\n      tag_516\n        /* \"#utility.yul\":27947:27948   */\n      0x00\n        /* \"#utility.yul\":27936:27945   */\n      dup4\n        /* \"#utility.yul\":27932:27949   */\n      add\n        /* \"#utility.yul\":27923:27929   */\n      dup6\n        /* \"#utility.yul\":27879:27950   */\n      tag_165\n      jump\t// in\n    tag_516:\n        /* \"#utility.yul\":27960:28032   */\n      tag_517\n        /* \"#utility.yul\":28028:28030   */\n      0x20\n        /* \"#utility.yul\":28017:28026   */\n      dup4\n        /* \"#utility.yul\":28013:28031   */\n      add\n        /* \"#utility.yul\":28004:28010   */\n      dup5\n        /* \"#utility.yul\":27960:28032   */\n      tag_176\n      jump\t// in\n    tag_517:\n        /* \"#utility.yul\":27707:28039   */\n      swap4\n      swap3\n      pop\n      pop\n      pop\n      jump\t// out\n        /* \"#utility.yul\":28045:28161   */\n    tag_199:\n        /* \"#utility.yul\":28115:28136   */\n      tag_519\n        /* \"#utility.yul\":28130:28135   */\n      dup2\n        /* \"#utility.yul\":28115:28136   */\n      tag_145\n      jump\t// in\n    tag_519:\n        /* \"#utility.yul\":28108:28113   */\n      dup2\n        /* \"#utility.yul\":28105:28137   */\n      eq\n        /* \"#utility.yul\":28095:28155   */\n      tag_520\n      jumpi\n        /* \"#utility.yul\":28151:28152   */\n      0x00\n        /* \"#utility.yul\":28148:28149   */\n      dup1\n        /* \"#utility.yul\":28141:28153   */\n      revert\n        /* \"#utility.yul\":28095:28155   */\n    tag_520:\n        /* \"#utility.yul\":28045:28161   */\n      pop\n      jump\t// out\n        /* \"#utility.yul\":28167:28304   */\n    tag_200:\n        /* \"#utility.yul\":28221:28226   */\n      0x00\n        /* \"#utility.yul\":28252:28258   */\n      dup2\n        /* \"#utility.yul\":28246:28259   */\n      mload\n        /* \"#utility.yul\":28237:28259   */\n      swap1\n      pop\n        /* \"#utility.yul\":28268:28298   */\n      tag_522\n        /* \"#utility.yul\":28292:28297   */\n      dup2\n        /* \"#utility.yul\":28268:28298   */\n      tag_199\n      jump\t// in\n    tag_522:\n        /* \"#utility.yul\":28167:28304   */\n      swap3\n      swap2\n      pop\n      pop\n      jump\t// out\n        /* \"#utility.yul\":28310:28655   */\n    tag_104:\n        /* \"#utility.yul\":28377:28383   */\n      0x00\n        /* \"#utility.yul\":28426:28428   */\n      0x20\n        /* \"#utility.yul\":28414:28423   */\n      dup3\n        /* \"#utility.yul\":28405:28412   */\n      dup5\n        /* \"#utility.yul\":28401:28424   */\n      sub\n        /* \"#utility.yul\":28397:28429   */\n      slt\n        /* \"#utility.yul\":28394:28513   */\n      iszero\n      tag_524\n      jumpi\n        /* \"#utility.yul\":28432:28511   */\n      tag_525\n      tag_131\n      jump\t// in\n    tag_525:\n        /* \"#utility.yul\":28394:28513   */\n    tag_524:\n        /* \"#utility.yul\":28552:28553   */\n      0x00\n        /* \"#utility.yul\":28577:28638   */\n      tag_526\n        /* \"#utility.yul\":28630:28637   */\n      dup5\n        /* \"#utility.yul\":28621:28627   */\n      dup3\n        /* \"#utility.yul\":28610:28619   */\n      dup6\n        /* \"#utility.yul\":28606:28628   */\n      add\n        /* \"#utility.yul\":28577:28638   */\n      tag_200\n      jump\t// in\n    tag_526:\n        /* \"#utility.yul\":28567:28638   */\n      swap2\n      pop\n        /* \"#utility.yul\":28523:28648   */\n      pop\n        /* \"#utility.yul\":28310:28655   */\n      swap3\n      swap2\n      pop\n      pop\n      jump\t// out\n        /* \"#utility.yul\":28661:29167   */\n    tag_107:\n        /* \"#utility.yul\":28818:28822   */\n      0x00\n        /* \"#utility.yul\":28856:28858   */\n      0x40\n        /* \"#utility.yul\":28845:28854   */\n      dup3\n        /* \"#utility.yul\":28841:28859   */\n      add\n        /* \"#utility.yul\":28833:28859   */\n      swap1\n      pop\n        /* \"#utility.yul\":28905:28914   */\n      dup2\n        /* \"#utility.yul\":28899:28903   */\n      dup2\n        /* \"#utility.yul\":28895:28915   */\n      sub\n        /* \"#utility.yul\":28891:28892   */\n      0x00\n        /* \"#utility.yul\":28880:28889   */\n      dup4\n        /* \"#utility.yul\":28876:28893   */\n      add\n        /* \"#utility.yul\":28869:28916   */\n      mstore\n        /* \"#utility.yul\":28933:29009   */\n      tag_528\n        /* \"#utility.yul\":29004:29008   */\n      dup2\n        /* \"#utility.yul\":28995:29001   */\n      dup6\n        /* \"#utility.yul\":28933:29009   */\n      tag_149\n      jump\t// in\n    tag_528:\n        /* \"#utility.yul\":28925:29009   */\n      swap1\n      pop\n        /* \"#utility.yul\":29056:29065   */\n      dup2\n        /* \"#utility.yul\":29050:29054   */\n      dup2\n        /* \"#utility.yul\":29046:29066   */\n      sub\n        /* \"#utility.yul\":29041:29043   */\n      0x20\n        /* \"#utility.yul\":29030:29039   */\n      dup4\n        /* \"#utility.yul\":29026:29044   */\n      add\n        /* \"#utility.yul\":29019:29067   */\n      mstore\n        /* \"#utility.yul\":29084:29160   */\n      tag_529\n        /* \"#utility.yul\":29155:29159   */\n      dup2\n        /* \"#utility.yul\":29146:29152   */\n      dup5\n        /* \"#utility.yul\":29084:29160   */\n      tag_149\n      jump\t// in\n    tag_529:\n        /* \"#utility.yul\":29076:29160   */\n      swap1\n      pop\n        /* \"#utility.yul\":28661:29167   */\n      swap4\n      swap3\n      pop\n      pop\n      pop\n      jump\t// out\n        /* \"#utility.yul\":29173:29695   */\n    tag_111:\n        /* \"#utility.yul\":29252:29258   */\n      0x00\n        /* \"#utility.yul\":29301:29303   */\n      0x20\n        /* \"#utility.yul\":29289:29298   */\n      dup3\n        /* \"#utility.yul\":29280:29287   */\n      dup5\n        /* \"#utility.yul\":29276:29299   */\n      sub\n        /* \"#utility.yul\":29272:29304   */\n      slt\n        /* \"#utility.yul\":29269:29388   */\n      iszero\n      tag_531\n      jumpi\n        /* \"#utility.yul\":29307:29386   */\n      tag_532\n      tag_131\n      jump\t// in\n    tag_532:\n        /* \"#utility.yul\":29269:29388   */\n    tag_531:\n        /* \"#utility.yul\":29448:29449   */\n      0x00\n        /* \"#utility.yul\":29437:29446   */\n      dup3\n        /* \"#utility.yul\":29433:29450   */\n      add\n        /* \"#utility.yul\":29427:29451   */\n      mload\n        /* \"#utility.yul\":29478:29496   */\n      0xffffffffffffffff\n        /* \"#utility.yul\":29470:29476   */\n      dup2\n        /* \"#utility.yul\":29467:29497   */\n      gt\n        /* \"#utility.yul\":29464:29581   */\n      iszero\n      tag_533\n      jumpi\n        /* \"#utility.yul\":29500:29579   */\n      tag_534\n      tag_132\n      jump\t// in\n    tag_534:\n        /* \"#utility.yul\":29464:29581   */\n    tag_533:\n        /* \"#utility.yul\":29605:29678   */\n      tag_535\n        /* \"#utility.yul\":29670:29677   */\n      dup5\n        /* \"#utility.yul\":29661:29667   */\n      dup3\n        /* \"#utility.yul\":29650:29659   */\n      dup6\n        /* \"#utility.yul\":29646:29668   */\n      add\n        /* \"#utility.yul\":29605:29678   */\n      tag_189\n      jump\t// in\n    tag_535:\n        /* \"#utility.yul\":29595:29678   */\n      swap2\n      pop\n        /* \"#utility.yul\":29398:29688   */\n      pop\n        /* \"#utility.yul\":29173:29695   */\n      swap3\n      swap2\n      pop\n      pop\n      jump\t// out\n        /* \"#utility.yul\":29701:29794   */\n    tag_201:\n        /* \"#utility.yul\":29737:29744   */\n      0x00\n        /* \"#utility.yul\":29777:29787   */\n      0xffffffff\n        /* \"#utility.yul\":29770:29775   */\n      dup3\n        /* \"#utility.yul\":29766:29788   */\n      and\n        /* \"#utility.yul\":29755:29788   */\n      swap1\n      pop\n        /* \"#utility.yul\":29701:29794   */\n      swap2\n      swap1\n      pop\n      jump\t// out\n        /* \"#utility.yul\":29800:29920   */\n    tag_202:\n        /* \"#utility.yul\":29872:29895   */\n      tag_538\n        /* \"#utility.yul\":29889:29894   */\n      dup2\n        /* \"#utility.yul\":29872:29895   */\n      tag_201\n      jump\t// in\n    tag_538:\n        /* \"#utility.yul\":29865:29870   */\n      dup2\n        /* \"#utility.yul\":29862:29896   */\n      eq\n        /* \"#utility.yul\":29852:29914   */\n      tag_539\n      jumpi\n        /* \"#utility.yul\":29910:29911   */\n      0x00\n        /* \"#utility.yul\":29907:29908   */\n      dup1\n        /* \"#utility.yul\":29900:29912   */\n      revert\n        /* \"#utility.yul\":29852:29914   */\n    tag_539:\n        /* \"#utility.yul\":29800:29920   */\n      pop\n      jump\t// out\n        /* \"#utility.yul\":29926:30067   */\n    tag_203:\n        /* \"#utility.yul\":29982:29987   */\n      0x00\n        /* \"#utility.yul\":30013:30019   */\n      dup2\n        /* \"#utility.yul\":30007:30020   */\n      mload\n        /* \"#utility.yul\":29998:30020   */\n      swap1\n      pop\n        /* \"#utility.yul\":30029:30061   */\n      tag_541\n        /* \"#utility.yul\":30055:30060   */\n      dup2\n        /* \"#utility.yul\":30029:30061   */\n      tag_202\n      jump\t// in\n    tag_541:\n        /* \"#utility.yul\":29926:30067   */\n      swap3\n      swap2\n      pop\n      pop\n      jump\t// out\n        /* \"#utility.yul\":30073:30207   */\n    tag_204:\n        /* \"#utility.yul\":30110:30117   */\n      0x00\n        /* \"#utility.yul\":30150:30200   */\n      0xffffffffffffffffffffffffffffffffffffffffffffffff\n        /* \"#utility.yul\":30143:30148   */\n      dup3\n        /* \"#utility.yul\":30139:30201   */\n      and\n        /* \"#utility.yul\":30128:30201   */\n      swap1\n      pop\n        /* \"#utility.yul\":30073:30207   */\n      swap2\n      swap1\n      pop\n      jump\t// out\n        /* \"#utility.yul\":30213:30335   */\n    tag_205:\n        /* \"#utility.yul\":30286:30310   */\n      tag_544\n        /* \"#utility.yul\":30304:30309   */\n      dup2\n        /* \"#utility.yul\":30286:30310   */\n      tag_204\n      jump\t// in\n    tag_544:\n        /* \"#utility.yul\":30279:30284   */\n      dup2\n        /* \"#utility.yul\":30276:30311   */\n      eq\n        /* \"#utility.yul\":30266:30329   */\n      tag_545\n      jumpi\n        /* \"#utility.yul\":30325:30326   */\n      0x00\n        /* \"#utility.yul\":30322:30323   */\n      dup1\n        /* \"#utility.yul\":30315:30327   */\n      revert\n        /* \"#utility.yul\":30266:30329   */\n    tag_545:\n        /* \"#utility.yul\":30213:30335   */\n      pop\n      jump\t// out\n        /* \"#utility.yul\":30341:30484   */\n    tag_206:\n        /* \"#utility.yul\":30398:30403   */\n      0x00\n        /* \"#utility.yul\":30429:30435   */\n      dup2\n        /* \"#utility.yul\":30423:30436   */\n      mload\n        /* \"#utility.yul\":30414:30436   */\n      swap1\n      pop\n        /* \"#utility.yul\":30445:30478   */\n      tag_547\n        /* \"#utility.yul\":30472:30477   */\n      dup2\n        /* \"#utility.yul\":30445:30478   */\n      tag_205\n      jump\t// in\n    tag_547:\n        /* \"#utility.yul\":30341:30484   */\n      swap3\n      swap2\n      pop\n      pop\n      jump\t// out\n        /* \"#utility.yul\":30490:30610   */\n    tag_207:\n        /* \"#utility.yul\":30562:30585   */\n      tag_549\n        /* \"#utility.yul\":30579:30584   */\n      dup2\n        /* \"#utility.yul\":30562:30585   */\n      tag_162\n      jump\t// in\n    tag_549:\n        /* \"#utility.yul\":30555:30560   */\n      dup2\n        /* \"#utility.yul\":30552:30586   */\n      eq\n        /* \"#utility.yul\":30542:30604   */\n      tag_550\n      jumpi\n        /* \"#utility.yul\":30600:30601   */\n      0x00\n        /* \"#utility.yul\":30597:30598   */\n      dup1\n        /* \"#utility.yul\":30590:30602   */\n      revert\n        /* \"#utility.yul\":30542:30604   */\n    tag_550:\n        /* \"#utility.yul\":30490:30610   */\n      pop\n      jump\t// out\n        /* \"#utility.yul\":30616:30757   */\n    tag_208:\n        /* \"#utility.yul\":30672:30677   */\n      0x00\n        /* \"#utility.yul\":30703:30709   */\n      dup2\n        /* \"#utility.yul\":30697:30710   */\n      mload\n        /* \"#utility.yul\":30688:30710   */\n      swap1\n      pop\n        /* \"#utility.yul\":30719:30751   */\n      tag_552\n        /* \"#utility.yul\":30745:30750   */\n      dup2\n        /* \"#utility.yul\":30719:30751   */\n      tag_207\n      jump\t// in\n    tag_552:\n        /* \"#utility.yul\":30616:30757   */\n      swap3\n      swap2\n      pop\n      pop\n      jump\t// out\n        /* \"#utility.yul\":30798:32657   */\n    tag_209:\n        /* \"#utility.yul\":30881:30886   */\n      0x00\n        /* \"#utility.yul\":30925:30931   */\n      0x0120\n        /* \"#utility.yul\":30913:30922   */\n      dup3\n        /* \"#utility.yul\":30908:30911   */\n      dup5\n        /* \"#utility.yul\":30904:30923   */\n      sub\n        /* \"#utility.yul\":30900:30932   */\n      slt\n        /* \"#utility.yul\":30897:31016   */\n      iszero\n      tag_554\n      jumpi\n        /* \"#utility.yul\":30935:31014   */\n      tag_555\n      tag_195\n      jump\t// in\n    tag_555:\n        /* \"#utility.yul\":30897:31016   */\n    tag_554:\n        /* \"#utility.yul\":31034:31057   */\n      tag_556\n        /* \"#utility.yul\":31050:31056   */\n      0x0120\n        /* \"#utility.yul\":31034:31057   */\n      tag_140\n      jump\t// in\n    tag_556:\n        /* \"#utility.yul\":31025:31057   */\n      swap1\n      pop\n        /* \"#utility.yul\":31118:31119   */\n      0x00\n        /* \"#utility.yul\":31158:31218   */\n      tag_557\n        /* \"#utility.yul\":31214:31217   */\n      dup5\n        /* \"#utility.yul\":31205:31211   */\n      dup3\n        /* \"#utility.yul\":31194:31203   */\n      dup6\n        /* \"#utility.yul\":31190:31212   */\n      add\n        /* \"#utility.yul\":31158:31218   */\n      tag_185\n      jump\t// in\n    tag_557:\n        /* \"#utility.yul\":31151:31155   */\n      0x00\n        /* \"#utility.yul\":31144:31149   */\n      dup4\n        /* \"#utility.yul\":31140:31156   */\n      add\n        /* \"#utility.yul\":31133:31219   */\n      mstore\n        /* \"#utility.yul\":31067:31230   */\n      pop\n        /* \"#utility.yul\":31303:31305   */\n      0x20\n        /* \"#utility.yul\":31344:31403   */\n      tag_558\n        /* \"#utility.yul\":31399:31402   */\n      dup5\n        /* \"#utility.yul\":31390:31396   */\n      dup3\n        /* \"#utility.yul\":31379:31388   */\n      dup6\n        /* \"#utility.yul\":31375:31397   */\n      add\n        /* \"#utility.yul\":31344:31403   */\n      tag_203\n      jump\t// in\n    tag_558:\n        /* \"#utility.yul\":31337:31341   */\n      0x20\n        /* \"#utility.yul\":31330:31335   */\n      dup4\n        /* \"#utility.yul\":31326:31342   */\n      add\n        /* \"#utility.yul\":31319:31404   */\n      mstore\n        /* \"#utility.yul\":31240:31415   */\n      pop\n        /* \"#utility.yul\":31491:31493   */\n      0x40\n        /* \"#utility.yul\":31532:31591   */\n      tag_559\n        /* \"#utility.yul\":31587:31590   */\n      dup5\n        /* \"#utility.yul\":31578:31584   */\n      dup3\n        /* \"#utility.yul\":31567:31576   */\n      dup6\n        /* \"#utility.yul\":31563:31585   */\n      add\n        /* \"#utility.yul\":31532:31591   */\n      tag_203\n      jump\t// in\n    tag_559:\n        /* \"#utility.yul\":31525:31529   */\n      0x40\n        /* \"#utility.yul\":31518:31523   */\n      dup4\n        /* \"#utility.yul\":31514:31530   */\n      add\n        /* \"#utility.yul\":31507:31592   */\n      mstore\n        /* \"#utility.yul\":31425:31603   */\n      pop\n        /* \"#utility.yul\":31667:31669   */\n      0x60\n        /* \"#utility.yul\":31708:31768   */\n      tag_560\n        /* \"#utility.yul\":31764:31767   */\n      dup5\n        /* \"#utility.yul\":31755:31761   */\n      dup3\n        /* \"#utility.yul\":31744:31753   */\n      dup6\n        /* \"#utility.yul\":31740:31762   */\n      add\n        /* \"#utility.yul\":31708:31768   */\n      tag_206\n      jump\t// in\n    tag_560:\n        /* \"#utility.yul\":31701:31705   */\n      0x60\n        /* \"#utility.yul\":31694:31699   */\n      dup4\n        /* \"#utility.yul\":31690:31706   */\n      add\n        /* \"#utility.yul\":31683:31769   */\n      mstore\n        /* \"#utility.yul\":31613:31780   */\n      pop\n        /* \"#utility.yul\":31842:31845   */\n      0x80\n        /* \"#utility.yul\":31884:31944   */\n      tag_561\n        /* \"#utility.yul\":31940:31943   */\n      dup5\n        /* \"#utility.yul\":31931:31937   */\n      dup3\n        /* \"#utility.yul\":31920:31929   */\n      dup6\n        /* \"#utility.yul\":31916:31938   */\n      add\n        /* \"#utility.yul\":31884:31944   */\n      tag_206\n      jump\t// in\n    tag_561:\n        /* \"#utility.yul\":31877:31881   */\n      0x80\n        /* \"#utility.yul\":31870:31875   */\n      dup4\n        /* \"#utility.yul\":31866:31882   */\n      add\n        /* \"#utility.yul\":31859:31945   */\n      mstore\n        /* \"#utility.yul\":31790:31956   */\n      pop\n        /* \"#utility.yul\":32020:32023   */\n      0xa0\n        /* \"#utility.yul\":32062:32121   */\n      tag_562\n        /* \"#utility.yul\":32117:32120   */\n      dup5\n        /* \"#utility.yul\":32108:32114   */\n      dup3\n        /* \"#utility.yul\":32097:32106   */\n      dup6\n        /* \"#utility.yul\":32093:32115   */\n      add\n        /* \"#utility.yul\":32062:32121   */\n      tag_203\n      jump\t// in\n    tag_562:\n        /* \"#utility.yul\":32055:32059   */\n      0xa0\n        /* \"#utility.yul\":32048:32053   */\n      dup4\n        /* \"#utility.yul\":32044:32060   */\n      add\n        /* \"#utility.yul\":32037:32122   */\n      mstore\n        /* \"#utility.yul\":31966:32133   */\n      pop\n        /* \"#utility.yul\":32193:32196   */\n      0xc0\n        /* \"#utility.yul\":32235:32294   */\n      tag_563\n        /* \"#utility.yul\":32290:32293   */\n      dup5\n        /* \"#utility.yul\":32281:32287   */\n      dup3\n        /* \"#utility.yul\":32270:32279   */\n      dup6\n        /* \"#utility.yul\":32266:32288   */\n      add\n        /* \"#utility.yul\":32235:32294   */\n      tag_208\n      jump\t// in\n    tag_563:\n        /* \"#utility.yul\":32228:32232   */\n      0xc0\n        /* \"#utility.yul\":32221:32226   */\n      dup4\n        /* \"#utility.yul\":32217:32233   */\n      add\n        /* \"#utility.yul\":32210:32295   */\n      mstore\n        /* \"#utility.yul\":32143:32306   */\n      pop\n        /* \"#utility.yul\":32364:32367   */\n      0xe0\n        /* \"#utility.yul\":32406:32465   */\n      tag_564\n        /* \"#utility.yul\":32461:32464   */\n      dup5\n        /* \"#utility.yul\":32452:32458   */\n      dup3\n        /* \"#utility.yul\":32441:32450   */\n      dup6\n        /* \"#utility.yul\":32437:32459   */\n      add\n        /* \"#utility.yul\":32406:32465   */\n      tag_208\n      jump\t// in\n    tag_564:\n        /* \"#utility.yul\":32399:32403   */\n      0xe0\n        /* \"#utility.yul\":32392:32397   */\n      dup4\n        /* \"#utility.yul\":32388:32404   */\n      add\n        /* \"#utility.yul\":32381:32466   */\n      mstore\n        /* \"#utility.yul\":32316:32477   */\n      pop\n        /* \"#utility.yul\":32535:32538   */\n      0x0100\n        /* \"#utility.yul\":32579:32638   */\n      tag_565\n        /* \"#utility.yul\":32634:32637   */\n      dup5\n        /* \"#utility.yul\":32625:32631   */\n      dup3\n        /* \"#utility.yul\":32614:32623   */\n      dup6\n        /* \"#utility.yul\":32610:32632   */\n      add\n        /* \"#utility.yul\":32579:32638   */\n      tag_208\n      jump\t// in\n    tag_565:\n        /* \"#utility.yul\":32570:32576   */\n      0x0100\n        /* \"#utility.yul\":32563:32568   */\n      dup4\n        /* \"#utility.yul\":32559:32577   */\n      add\n        /* \"#utility.yul\":32552:32639   */\n      mstore\n        /* \"#utility.yul\":32487:32650   */\n      pop\n        /* \"#utility.yul\":30798:32657   */\n      swap3\n      swap2\n      pop\n      pop\n      jump\t// out\n        /* \"#utility.yul\":32663:33061   */\n    tag_113:\n        /* \"#utility.yul\":32756:32762   */\n      0x00\n        /* \"#utility.yul\":32805:32808   */\n      0x0120\n        /* \"#utility.yul\":32793:32802   */\n      dup3\n        /* \"#utility.yul\":32784:32791   */\n      dup5\n        /* \"#utility.yul\":32780:32803   */\n      sub\n        /* \"#utility.yul\":32776:32809   */\n      slt\n        /* \"#utility.yul\":32773:32893   */\n      iszero\n      tag_567\n      jumpi\n        /* \"#utility.yul\":32812:32891   */\n      tag_568\n      tag_131\n      jump\t// in\n    tag_568:\n        /* \"#utility.yul\":32773:32893   */\n    tag_567:\n        /* \"#utility.yul\":32932:32933   */\n      0x00\n        /* \"#utility.yul\":32957:33044   */\n      tag_569\n        /* \"#utility.yul\":33036:33043   */\n      dup5\n        /* \"#utility.yul\":33027:33033   */\n      dup3\n        /* \"#utility.yul\":33016:33025   */\n      dup6\n        /* \"#utility.yul\":33012:33034   */\n      add\n        /* \"#utility.yul\":32957:33044   */\n      tag_209\n      jump\t// in\n    tag_569:\n        /* \"#utility.yul\":32947:33044   */\n      swap2\n      pop\n        /* \"#utility.yul\":32903:33054   */\n      pop\n        /* \"#utility.yul\":32663:33061   */\n      swap3\n      swap2\n      pop\n      pop\n      jump\t// out\n        /* \"#utility.yul\":33067:33260   */\n    tag_210:\n        /* \"#utility.yul\":33175:33186   */\n      0x00\n        /* \"#utility.yul\":33209:33215   */\n      dup3\n        /* \"#utility.yul\":33204:33207   */\n      dup3\n        /* \"#utility.yul\":33197:33216   */\n      mstore\n        /* \"#utility.yul\":33249:33253   */\n      0x20\n        /* \"#utility.yul\":33244:33247   */\n      dup3\n        /* \"#utility.yul\":33240:33254   */\n      add\n        /* \"#utility.yul\":33225:33254   */\n      swap1\n      pop\n        /* \"#utility.yul\":33067:33260   */\n      swap3\n      swap2\n      pop\n      pop\n      jump\t// out\n        /* \"#utility.yul\":33266:33379   */\n    tag_211:\n        /* \"#utility.yul\":33346:33350   */\n      0x00\n        /* \"#utility.yul\":33369:33372   */\n      dup2\n        /* \"#utility.yul\":33361:33372   */\n      swap1\n      pop\n        /* \"#utility.yul\":33266:33379   */\n      swap2\n      swap1\n      pop\n      jump\t// out\n        /* \"#utility.yul\":33385:33543   */\n    tag_212:\n        /* \"#utility.yul\":33458:33469   */\n      0x00\n        /* \"#utility.yul\":33492:33498   */\n      dup3\n        /* \"#utility.yul\":33487:33490   */\n      dup3\n        /* \"#utility.yul\":33480:33499   */\n      mstore\n        /* \"#utility.yul\":33532:33536   */\n      0x20\n        /* \"#utility.yul\":33527:33530   */\n      dup3\n        /* \"#utility.yul\":33523:33537   */\n      add\n        /* \"#utility.yul\":33508:33537   */\n      swap1\n      pop\n        /* \"#utility.yul\":33385:33543   */\n      swap3\n      swap2\n      pop\n      pop\n      jump\t// out\n        /* \"#utility.yul\":33571:33865   */\n    tag_213:\n        /* \"#utility.yul\":33657:33660   */\n      0x00\n        /* \"#utility.yul\":33678:33738   */\n      tag_574\n        /* \"#utility.yul\":33731:33737   */\n      dup4\n        /* \"#utility.yul\":33726:33729   */\n      dup6\n        /* \"#utility.yul\":33678:33738   */\n      tag_212\n      jump\t// in\n    tag_574:\n        /* \"#utility.yul\":33671:33738   */\n      swap4\n      pop\n        /* \"#utility.yul\":33748:33804   */\n      tag_575\n        /* \"#utility.yul\":33797:33803   */\n      dup4\n        /* \"#utility.yul\":33792:33795   */\n      dup6\n        /* \"#utility.yul\":33785:33790   */\n      dup5\n        /* \"#utility.yul\":33748:33804   */\n      tag_142\n      jump\t// in\n    tag_575:\n        /* \"#utility.yul\":33829:33858   */\n      tag_576\n        /* \"#utility.yul\":33851:33857   */\n      dup4\n        /* \"#utility.yul\":33829:33858   */\n      tag_128\n      jump\t// in\n    tag_576:\n        /* \"#utility.yul\":33824:33827   */\n      dup5\n        /* \"#utility.yul\":33820:33859   */\n      add\n        /* \"#utility.yul\":33813:33859   */\n      swap1\n      pop\n        /* \"#utility.yul\":33571:33865   */\n      swap4\n      swap3\n      pop\n      pop\n      pop\n      jump\t// out\n        /* \"#utility.yul\":33871:34083   */\n    tag_214:\n        /* \"#utility.yul\":33968:33978   */\n      0x00\n        /* \"#utility.yul\":34003:34077   */\n      tag_578\n        /* \"#utility.yul\":34073:34076   */\n      dup5\n        /* \"#utility.yul\":34065:34071   */\n      dup5\n        /* \"#utility.yul\":34057:34063   */\n      dup5\n        /* \"#utility.yul\":34003:34077   */\n      tag_213\n      jump\t// in\n    tag_578:\n        /* \"#utility.yul\":33989:34077   */\n      swap1\n      pop\n        /* \"#utility.yul\":33871:34083   */\n      swap4\n      swap3\n      pop\n      pop\n      pop\n      jump\t// out\n        /* \"#utility.yul\":34089:34206   */\n    tag_215:\n        /* \"#utility.yul\":34198:34199   */\n      0x00\n        /* \"#utility.yul\":34195:34196   */\n      dup1\n        /* \"#utility.yul\":34188:34200   */\n      revert\n        /* \"#utility.yul\":34212:34329   */\n    tag_216:\n        /* \"#utility.yul\":34321:34322   */\n      0x00\n        /* \"#utility.yul\":34318:34319   */\n      dup1\n        /* \"#utility.yul\":34311:34323   */\n      revert\n        /* \"#utility.yul\":34335:34452   */\n    tag_217:\n        /* \"#utility.yul\":34444:34445   */\n      0x00\n        /* \"#utility.yul\":34441:34442   */\n      dup1\n        /* \"#utility.yul\":34434:34446   */\n      revert\n        /* \"#utility.yul\":34458:35169   */\n    tag_218:\n        /* \"#utility.yul\":34522:34527   */\n      0x00\n        /* \"#utility.yul\":34529:34535   */\n      dup1\n        /* \"#utility.yul\":34585:34588   */\n      dup4\n        /* \"#utility.yul\":34572:34589   */\n      calldataload\n        /* \"#utility.yul\":34677:34678   */\n      0x01\n        /* \"#utility.yul\":34671:34675   */\n      0x20\n        /* \"#utility.yul\":34667:34679   */\n      sub\n        /* \"#utility.yul\":34656:34664   */\n      dup5\n        /* \"#utility.yul\":34640:34654   */\n      calldatasize\n        /* \"#utility.yul\":34636:34665   */\n      sub\n        /* \"#utility.yul\":34632:34680   */\n      sub\n        /* \"#utility.yul\":34612:34630   */\n      dup2\n        /* \"#utility.yul\":34608:34681   */\n      slt\n        /* \"#utility.yul\":34598:34766   */\n      tag_583\n      jumpi\n        /* \"#utility.yul\":34685:34764   */\n      tag_584\n      tag_217\n      jump\t// in\n    tag_584:\n        /* \"#utility.yul\":34598:34766   */\n    tag_583:\n        /* \"#utility.yul\":34808:34816   */\n      dup4\n        /* \"#utility.yul\":34788:34806   */\n      dup2\n        /* \"#utility.yul\":34784:34817   */\n      add\n        /* \"#utility.yul\":34775:34817   */\n      swap3\n      pop\n        /* \"#utility.yul\":34850:34855   */\n      dup3\n        /* \"#utility.yul\":34837:34856   */\n      calldataload\n        /* \"#utility.yul\":34827:34856   */\n      swap2\n      pop\n        /* \"#utility.yul\":34885:34889   */\n      0x20\n        /* \"#utility.yul\":34878:34883   */\n      dup4\n        /* \"#utility.yul\":34874:34890   */\n      add\n        /* \"#utility.yul\":34865:34890   */\n      swap3\n      pop\n        /* \"#utility.yul\":34913:34931   */\n      0xffffffffffffffff\n        /* \"#utility.yul\":34905:34911   */\n      dup3\n        /* \"#utility.yul\":34902:34932   */\n      gt\n        /* \"#utility.yul\":34899:35016   */\n      iszero\n      tag_585\n      jumpi\n        /* \"#utility.yul\":34935:35014   */\n      tag_586\n      tag_215\n      jump\t// in\n    tag_586:\n        /* \"#utility.yul\":34899:35016   */\n    tag_585:\n        /* \"#utility.yul\":35071:35075   */\n      0x01\n        /* \"#utility.yul\":35063:35069   */\n      dup3\n        /* \"#utility.yul\":35059:35076   */\n      mul\n        /* \"#utility.yul\":35043:35057   */\n      calldatasize\n        /* \"#utility.yul\":35039:35077   */\n      sub\n        /* \"#utility.yul\":35032:35037   */\n      dup4\n        /* \"#utility.yul\":35028:35078   */\n      sgt\n        /* \"#utility.yul\":35025:35162   */\n      iszero\n      tag_587\n      jumpi\n        /* \"#utility.yul\":35081:35160   */\n      tag_588\n      tag_216\n      jump\t// in\n    tag_588:\n        /* \"#utility.yul\":35025:35162   */\n    tag_587:\n        /* \"#utility.yul\":34536:35169   */\n      pop\n        /* \"#utility.yul\":34458:35169   */\n      swap3\n      pop\n      swap3\n      swap1\n      pop\n      jump\t// out\n        /* \"#utility.yul\":35175:35301   */\n    tag_219:\n        /* \"#utility.yul\":35258:35262   */\n      0x00\n        /* \"#utility.yul\":35290:35294   */\n      0x20\n        /* \"#utility.yul\":35285:35288   */\n      dup3\n        /* \"#utility.yul\":35281:35295   */\n      add\n        /* \"#utility.yul\":35273:35295   */\n      swap1\n      pop\n        /* \"#utility.yul\":35175:35301   */\n      swap2\n      swap1\n      pop\n      jump\t// out\n        /* \"#utility.yul\":35333:36323   */\n    tag_220:\n        /* \"#utility.yul\":35482:35485   */\n      0x00\n        /* \"#utility.yul\":35505:35600   */\n      tag_591\n        /* \"#utility.yul\":35593:35599   */\n      dup4\n        /* \"#utility.yul\":35588:35591   */\n      dup6\n        /* \"#utility.yul\":35505:35600   */\n      tag_210\n      jump\t// in\n    tag_591:\n        /* \"#utility.yul\":35498:35600   */\n      swap4\n      pop\n        /* \"#utility.yul\":35626:35629   */\n      dup4\n        /* \"#utility.yul\":35671:35675   */\n      0x20\n        /* \"#utility.yul\":35663:35669   */\n      dup5\n        /* \"#utility.yul\":35659:35676   */\n      mul\n        /* \"#utility.yul\":35654:35657   */\n      dup6\n        /* \"#utility.yul\":35650:35677   */\n      add\n        /* \"#utility.yul\":35701:35770   */\n      tag_592\n        /* \"#utility.yul\":35764:35769   */\n      dup5\n        /* \"#utility.yul\":35701:35770   */\n      tag_211\n      jump\t// in\n    tag_592:\n        /* \"#utility.yul\":35793:35800   */\n      dup1\n        /* \"#utility.yul\":35824:35825   */\n      0x00\n        /* \"#utility.yul\":35809:36278   */\n    tag_593:\n        /* \"#utility.yul\":35834:35840   */\n      dup8\n        /* \"#utility.yul\":35831:35832   */\n      dup2\n        /* \"#utility.yul\":35828:35841   */\n      lt\n        /* \"#utility.yul\":35809:36278   */\n      iszero\n      tag_595\n      jumpi\n        /* \"#utility.yul\":35905:35914   */\n      dup5\n        /* \"#utility.yul\":35899:35903   */\n      dup5\n        /* \"#utility.yul\":35895:35915   */\n      sub\n        /* \"#utility.yul\":35890:35893   */\n      dup10\n        /* \"#utility.yul\":35883:35916   */\n      mstore\n        /* \"#utility.yul\":35965:36018   */\n      tag_596\n        /* \"#utility.yul\":36011:36017   */\n      dup3\n        /* \"#utility.yul\":36002:36009   */\n      dup5\n        /* \"#utility.yul\":35965:36018   */\n      tag_218\n      jump\t// in\n    tag_596:\n        /* \"#utility.yul\":36039:36138   */\n      tag_597\n        /* \"#utility.yul\":36133:36137   */\n      dup7\n        /* \"#utility.yul\":36118:36131   */\n      dup3\n        /* \"#utility.yul\":36103:36116   */\n      dup5\n        /* \"#utility.yul\":36039:36138   */\n      tag_214\n      jump\t// in\n    tag_597:\n        /* \"#utility.yul\":36031:36138   */\n      swap6\n      pop\n        /* \"#utility.yul\":36161:36234   */\n      tag_598\n        /* \"#utility.yul\":36227:36233   */\n      dup5\n        /* \"#utility.yul\":36161:36234   */\n      tag_219\n      jump\t// in\n    tag_598:\n        /* \"#utility.yul\":36151:36234   */\n      swap4\n      pop\n        /* \"#utility.yul\":36263:36267   */\n      0x20\n        /* \"#utility.yul\":36258:36261   */\n      dup12\n        /* \"#utility.yul\":36254:36268   */\n      add\n        /* \"#utility.yul\":36247:36268   */\n      swap11\n      pop\n        /* \"#utility.yul\":35869:36278   */\n      pop\n      pop\n        /* \"#utility.yul\":35856:35857   */\n      0x01\n        /* \"#utility.yul\":35853:35854   */\n      dup2\n        /* \"#utility.yul\":35849:35858   */\n      add\n        /* \"#utility.yul\":35844:35858   */\n      swap1\n      pop\n        /* \"#utility.yul\":35809:36278   */\n      jump(tag_593)\n    tag_595:\n        /* \"#utility.yul\":35813:35827   */\n      pop\n        /* \"#utility.yul\":36294:36298   */\n      dup3\n        /* \"#utility.yul\":36287:36298   */\n      swap8\n      pop\n        /* \"#utility.yul\":36314:36317   */\n      dup8\n        /* \"#utility.yul\":36307:36317   */\n      swap5\n      pop\n        /* \"#utility.yul\":35487:36323   */\n      pop\n      pop\n      pop\n      pop\n        /* \"#utility.yul\":35333:36323   */\n      swap4\n      swap3\n      pop\n      pop\n      pop\n      jump\t// out\n        /* \"#utility.yul\":36351:36665   */\n    tag_221:\n        /* \"#utility.yul\":36447:36450   */\n      0x00\n        /* \"#utility.yul\":36468:36538   */\n      tag_600\n        /* \"#utility.yul\":36531:36537   */\n      dup4\n        /* \"#utility.yul\":36526:36529   */\n      dup6\n        /* \"#utility.yul\":36468:36538   */\n      tag_148\n      jump\t// in\n    tag_600:\n        /* \"#utility.yul\":36461:36538   */\n      swap4\n      pop\n        /* \"#utility.yul\":36548:36604   */\n      tag_601\n        /* \"#utility.yul\":36597:36603   */\n      dup4\n        /* \"#utility.yul\":36592:36595   */\n      dup6\n        /* \"#utility.yul\":36585:36590   */\n      dup5\n        /* \"#utility.yul\":36548:36604   */\n      tag_142\n      jump\t// in\n    tag_601:\n        /* \"#utility.yul\":36629:36658   */\n      tag_602\n        /* \"#utility.yul\":36651:36657   */\n      dup4\n        /* \"#utility.yul\":36629:36658   */\n      tag_128\n      jump\t// in\n    tag_602:\n        /* \"#utility.yul\":36624:36627   */\n      dup5\n        /* \"#utility.yul\":36620:36659   */\n      add\n        /* \"#utility.yul\":36613:36659   */\n      swap1\n      pop\n        /* \"#utility.yul\":36351:36665   */\n      swap4\n      swap3\n      pop\n      pop\n      pop\n      jump\t// out\n        /* \"#utility.yul\":36671:37321   */\n    tag_116:\n        /* \"#utility.yul\":36900:36904   */\n      0x00\n        /* \"#utility.yul\":36938:36940   */\n      0x40\n        /* \"#utility.yul\":36927:36936   */\n      dup3\n        /* \"#utility.yul\":36923:36941   */\n      add\n        /* \"#utility.yul\":36915:36941   */\n      swap1\n      pop\n        /* \"#utility.yul\":36987:36996   */\n      dup2\n        /* \"#utility.yul\":36981:36985   */\n      dup2\n        /* \"#utility.yul\":36977:36997   */\n      sub\n        /* \"#utility.yul\":36973:36974   */\n      0x00\n        /* \"#utility.yul\":36962:36971   */\n      dup4\n        /* \"#utility.yul\":36958:36975   */\n      add\n        /* \"#utility.yul\":36951:36998   */\n      mstore\n        /* \"#utility.yul\":37015:37153   */\n      tag_604\n        /* \"#utility.yul\":37148:37152   */\n      dup2\n        /* \"#utility.yul\":37139:37145   */\n      dup7\n        /* \"#utility.yul\":37131:37137   */\n      dup9\n        /* \"#utility.yul\":37015:37153   */\n      tag_220\n      jump\t// in\n    tag_604:\n        /* \"#utility.yul\":37007:37153   */\n      swap1\n      pop\n        /* \"#utility.yul\":37200:37209   */\n      dup2\n        /* \"#utility.yul\":37194:37198   */\n      dup2\n        /* \"#utility.yul\":37190:37210   */\n      sub\n        /* \"#utility.yul\":37185:37187   */\n      0x20\n        /* \"#utility.yul\":37174:37183   */\n      dup4\n        /* \"#utility.yul\":37170:37188   */\n      add\n        /* \"#utility.yul\":37163:37211   */\n      mstore\n        /* \"#utility.yul\":37228:37314   */\n      tag_605\n        /* \"#utility.yul\":37309:37313   */\n      dup2\n        /* \"#utility.yul\":37300:37306   */\n      dup5\n        /* \"#utility.yul\":37292:37298   */\n      dup7\n        /* \"#utility.yul\":37228:37314   */\n      tag_221\n      jump\t// in\n    tag_605:\n        /* \"#utility.yul\":37220:37314   */\n      swap1\n      pop\n        /* \"#utility.yul\":36671:37321   */\n      swap6\n      swap5\n      pop\n      pop\n      pop\n      pop\n      pop\n      jump\t// out\n\n    auxdata: 0xa2646970667358221220c2337ac063d331e9dde19c3be1590645fb0e3b53e9d61238ec29a4425b61a09064736f6c63430008130033\n}\n",
				"bytecode": {
					"linkReferences": {},
					"object": "60806040526040518060200160405280604051806080016040528060428152602001620021f46042913981525060039060016200003e929190620000b9565b503480156200004c57600080fd5b506040516200223638038062002236833981810160405281019062000072919062000210565b806000806101000a81548173ffffffffffffffffffffffffffffffffffffffff021916908373ffffffffffffffffffffffffffffffffffffffff16021790555050620005a3565b82805482825590600052602060002090810192821562000106579160200282015b8281111562000105578251829081620000f49190620004bc565b5091602001919060010190620000da565b5b50905062000115919062000119565b5090565b5b808211156200013d576000818162000133919062000141565b506001016200011a565b5090565b5080546200014f90620002ab565b6000825580601f1062000163575062000184565b601f01602090049060005260206000209081019062000183919062000187565b5b50565b5b80821115620001a257600081600090555060010162000188565b5090565b600080fd5b600073ffffffffffffffffffffffffffffffffffffffff82169050919050565b6000620001d882620001ab565b9050919050565b620001ea81620001cb565b8114620001f657600080fd5b50565b6000815190506200020a81620001df565b92915050565b600060208284031215620002295762000228620001a6565b5b60006200023984828501620001f9565b91505092915050565b600081519050919050565b7f4e487b7100000000000000000000000000000000000000000000000000000000600052604160045260246000fd5b7f4e487b7100000000000000000000000000000000000000000000000000000000600052602260045260246000fd5b60006002820490506001821680620002c457607f821691505b602082108103620002da57620002d96200027c565b5b50919050565b60008190508160005260206000209050919050565b60006020601f8301049050919050565b600082821b905092915050565b600060088302620003447fffffffffffffffffffffffffffffffffffffffffffffffffffffffffffffffff8262000305565b62000350868362000305565b95508019841693508086168417925050509392505050565b6000819050919050565b6000819050919050565b60006200039d62000397620003918462000368565b62000372565b62000368565b9050919050565b6000819050919050565b620003b9836200037c565b620003d1620003c882620003a4565b84845462000312565b825550505050565b600090565b620003e8620003d9565b620003f5818484620003ae565b505050565b5b818110156200041d5762000411600082620003de565b600181019050620003fb565b5050565b601f8211156200046c576200043681620002e0565b6200044184620002f5565b8101602085101562000451578190505b620004696200046085620002f5565b830182620003fa565b50505b505050565b600082821c905092915050565b6000620004916000198460080262000471565b1980831691505092915050565b6000620004ac83836200047e565b9150826002028217905092915050565b620004c78262000242565b67ffffffffffffffff811115620004e357620004e26200024d565b5b620004ef8254620002ab565b620004fc82828562000421565b600060209050601f8311600181146200053457600084156200051f578287015190505b6200052b85826200049e565b8655506200059b565b601f1984166200054486620002e0565b60005b828110156200056e5784890151825560018201915060208501945060208101905062000547565b868310156200058e57848901516200058a601f8916826200047e565b8355505b6001600288020188555050505b505050505050565b611c4180620005b36000396000f3fe6080604052600436106100955760003560e01c80634585e33b116100595780634585e33b146101955780634b56a42e146101be578063b7f433d1146101fc578063e13b822d14610239578063eb1edd611461026457610096565b806308c9e24e146100985780630fb172fb146100c35780631b83ca1e146101015780632b7ac3f31461012c57806340691db41461015757610096565b5b005b3480156100a457600080fd5b506100ad61028f565b6040516100ba9190610a13565b60405180910390f35b3480156100cf57600080fd5b506100ea60048036038101906100e59190610bb4565b6102c8565b6040516100f8929190610c80565b60405180910390f35b34801561010d57600080fd5b5061011661030f565b6040516101239190610a13565b60405180910390f35b34801561013857600080fd5b50610141610348565b60405161014e9190610d2f565b60405180910390f35b34801561016357600080fd5b5061017e60048036038101906101799190610d6f565b61036c565b60405161018c929190610c80565b60405180910390f35b3480156101a157600080fd5b506101bc60048036038101906101b79190610e47565b610422565b005b3480156101ca57600080fd5b506101e560048036038101906101e09190610eea565b610865565b6040516101f3929190610c80565b60405180910390f35b34801561020857600080fd5b50610223600480360381019061021e9190610f6b565b61089e565b6040516102309190610a13565b60405180910390f35b34801561024557600080fd5b5061024e61094a565b60405161025b9190610fb4565b60405180910390f35b34801561027057600080fd5b5061027961095d565b6040516102869190610ff0565b60405180910390f35b6040518060400160405280600781526020017f666565644944730000000000000000000000000000000000000000000000000081525081565b6000606060016040518060400160405280600181526020017f3000000000000000000000000000000000000000000000000000000000000000815250915091509250929050565b6040518060400160405280600981526020017f74696d657374616d70000000000000000000000000000000000000000000000081525081565b60008054906101000a900473ffffffffffffffffffffffffffffffffffffffff1681565b600060606040518060400160405280600781526020017f666565644944730000000000000000000000000000000000000000000000000081525060036040518060400160405280600981526020017f74696d657374616d70000000000000000000000000000000000000000000000081525086602001356040517ff055e4a20000000000000000000000000000000000000000000000000000000081526004016104199493929190611210565b60405180910390fd5b6000808383810190610434919061135e565b9150915060008260008151811061044e5761044d6113d6565b5b6020026020010151905060008180602001905181019061046e919061155c565b91505060008060009054906101000a900473ffffffffffffffffffffffffffffffffffffffff1673ffffffffffffffffffffffffffffffffffffffff166338416b5b6040518163ffffffff1660e01b8152600401602060405180830381865afa1580156104df573d6000803e3d6000fd5b505050506040513d601f19601f8201168201806040525081019061050391906115f6565b905060008173ffffffffffffffffffffffffffffffffffffffff16633aa5ac076040518163ffffffff1660e01b8152600401602060405180830381865afa158015610552573d6000803e3d6000fd5b505050506040513d601f19601f82011682018060405250810190610576919061164f565b905060008273ffffffffffffffffffffffffffffffffffffffff1663ea4b861b6040518163ffffffff1660e01b8152600401602060405180830381865afa1580156105c5573d6000803e3d6000fd5b505050506040513d601f19601f820116820180604052508101906105e9919061164f565b905060008373ffffffffffffffffffffffffffffffffffffffff1663e03dab1a3087856040518463ffffffff1660e01b815260040161062a9392919061167c565b60a0604051808303816000875af1158015610649573d6000803e3d6000fd5b505050506040513d601f19601f8201168201806040525081019061066d9190611724565b505090508173ffffffffffffffffffffffffffffffffffffffff1663095ea7b38483602001516040518363ffffffff1660e01b81526004016106b0929190611777565b6020604051808303816000875af11580156106cf573d6000803e3d6000fd5b505050506040513d601f19601f820116820180604052508101906106f391906117cc565b5060008060009054906101000a900473ffffffffffffffffffffffffffffffffffffffff1673ffffffffffffffffffffffffffffffffffffffff1663f7e83aee88856040516020016107459190610ff0565b6040516020818303038152906040526040518363ffffffff1660e01b81526004016107719291906117f9565b6000604051808303816000875af1158015610790573d6000803e3d6000fd5b505050506040513d6000823e3d601f19601f820116820180604052508101906107b99190611830565b90506000818060200190518101906107d19190611a11565b90508060c0015160170b7f6ccdfe05a72266f3fa83f39de58fc57462b379bef18aabfe30d5527d0d8d3cd160405160405180910390a28060c00151600260006101000a81548177ffffffffffffffffffffffffffffffffffffffffffffffff021916908360170b77ffffffffffffffffffffffffffffffffffffffffffffffff160217905550505050505050505050505050565b600060606001868686866040516020016108829493929190611bd0565b6040516020818303038152906040529150915094509492505050565b600381815481106108ae57600080fd5b9060005260206000200160009150905080546108c99061106b565b80601f01602080910402602001604051908101604052809291908181526020018280546108f59061106b565b80156109425780601f1061091757610100808354040283529160200191610942565b820191906000526020600020905b81548152906001019060200180831161092557829003601f168201915b505050505081565b600260009054906101000a900460170b81565b600160009054906101000a900473ffffffffffffffffffffffffffffffffffffffff1681565b600081519050919050565b600082825260208201905092915050565b60005b838110156109bd5780820151818401526020810190506109a2565b60008484015250505050565b6000601f19601f8301169050919050565b60006109e582610983565b6109ef818561098e565b93506109ff81856020860161099f565b610a08816109c9565b840191505092915050565b60006020820190508181036000830152610a2d81846109da565b905092915050565b6000604051905090565b600080fd5b600080fd5b6000819050919050565b610a5c81610a49565b8114610a6757600080fd5b50565b600081359050610a7981610a53565b92915050565b600080fd5b600080fd5b7f4e487b7100000000000000000000000000000000000000000000000000000000600052604160045260246000fd5b610ac1826109c9565b810181811067ffffffffffffffff82111715610ae057610adf610a89565b5b80604052505050565b6000610af3610a35565b9050610aff8282610ab8565b919050565b600067ffffffffffffffff821115610b1f57610b1e610a89565b5b610b28826109c9565b9050602081019050919050565b82818337600083830152505050565b6000610b57610b5284610b04565b610ae9565b905082815260208101848484011115610b7357610b72610a84565b5b610b7e848285610b35565b509392505050565b600082601f830112610b9b57610b9a610a7f565b5b8135610bab848260208601610b44565b91505092915050565b60008060408385031215610bcb57610bca610a3f565b5b6000610bd985828601610a6a565b925050602083013567ffffffffffffffff811115610bfa57610bf9610a44565b5b610c0685828601610b86565b9150509250929050565b60008115159050919050565b610c2581610c10565b82525050565b600081519050919050565b600082825260208201905092915050565b6000610c5282610c2b565b610c5c8185610c36565b9350610c6c81856020860161099f565b610c75816109c9565b840191505092915050565b6000604082019050610c956000830185610c1c565b8181036020830152610ca78184610c47565b90509392505050565b600073ffffffffffffffffffffffffffffffffffffffff82169050919050565b6000819050919050565b6000610cf5610cf0610ceb84610cb0565b610cd0565b610cb0565b9050919050565b6000610d0782610cda565b9050919050565b6000610d1982610cfc565b9050919050565b610d2981610d0e565b82525050565b6000602082019050610d446000830184610d20565b92915050565b600080fd5b60006101008284031215610d6657610d65610d4a565b5b81905092915050565b60008060408385031215610d8657610d85610a3f565b5b600083013567ffffffffffffffff811115610da457610da3610a44565b5b610db085828601610d4f565b925050602083013567ffffffffffffffff811115610dd157610dd0610a44565b5b610ddd85828601610b86565b9150509250929050565b600080fd5b600080fd5b60008083601f840112610e0757610e06610a7f565b5b8235905067ffffffffffffffff811115610e2457610e23610de7565b5b602083019150836001820283011115610e4057610e3f610dec565b5b9250929050565b60008060208385031215610e5e57610e5d610a3f565b5b600083013567ffffffffffffffff811115610e7c57610e7b610a44565b5b610e8885828601610df1565b92509250509250929050565b60008083601f840112610eaa57610ea9610a7f565b5b8235905067ffffffffffffffff811115610ec757610ec6610de7565b5b602083019150836020820283011115610ee357610ee2610dec565b5b9250929050565b60008060008060408587031215610f0457610f03610a3f565b5b600085013567ffffffffffffffff811115610f2257610f21610a44565b5b610f2e87828801610e94565b9450945050602085013567ffffffffffffffff811115610f5157610f50610a44565b5b610f5d87828801610df1565b925092505092959194509250565b600060208284031215610f8157610f80610a3f565b5b6000610f8f84828501610a6a565b91505092915050565b60008160170b9050919050565b610fae81610f98565b82525050565b6000602082019050610fc96000830184610fa5565b92915050565b6000610fda82610cb0565b9050919050565b610fea81610fcf565b82525050565b60006020820190506110056000830184610fe1565b92915050565b600081549050919050565b600082825260208201905092915050565b60008190508160005260206000209050919050565b7f4e487b7100000000000000000000000000000000000000000000000000000000600052602260045260246000fd5b6000600282049050600182168061108357607f821691505b6020821081036110965761109561103c565b5b50919050565b600082825260208201905092915050565b60008190508160005260206000209050919050565b600081546110cf8161106b565b6110d9818661109c565b945060018216600081146110f4576001811461110a5761113d565b60ff19831686528115156020028601935061113d565b611113856110ad565b60005b8381101561113557815481890152600182019150602081019050611116565b808801955050505b50505092915050565b600061115283836110c2565b905092915050565b6000600182019050919050565b60006111728261100b565b61117c8185611016565b93508360208202850161118e85611027565b8060005b858110156111c9578484038952816111aa8582611146565b94506111b58361115a565b925060208a01995050600181019050611192565b50829750879550505050505092915050565b6111e481610a49565b82525050565b50565b60006111fa600083610c36565b9150611205826111ea565b600082019050919050565b600060a082019050818103600083015261122a81876109da565b9050818103602083015261123e8186611167565b9050818103604083015261125281856109da565b905061126160608301846111db565b8181036080830152611272816111ed565b905095945050505050565b600067ffffffffffffffff82111561129857611297610a89565b5b602082029050602081019050919050565b60006112bc6112b78461127d565b610ae9565b905080838252602082019050602084028301858111156112df576112de610dec565b5b835b8181101561132657803567ffffffffffffffff81111561130457611303610a7f565b5b8086016113118982610b86565b855260208501945050506020810190506112e1565b5050509392505050565b600082601f83011261134557611344610a7f565b5b81356113558482602086016112a9565b91505092915050565b6000806040838503121561137557611374610a3f565b5b600083013567ffffffffffffffff81111561139357611392610a44565b5b61139f85828601611330565b925050602083013567ffffffffffffffff8111156113c0576113bf610a44565b5b6113cc85828601610b86565b9150509250929050565b7f4e487b7100000000000000000000000000000000000000000000000000000000600052603260045260246000fd5b600067ffffffffffffffff8211156114205761141f610a89565b5b602082029050919050565b6000819050919050565b61143e8161142b565b811461144957600080fd5b50565b60008151905061145b81611435565b92915050565b600061147461146f84611405565b610ae9565b9050806020840283018581111561148e5761148d610dec565b5b835b818110156114b757806114a3888261144c565b845260208401935050602081019050611490565b5050509392505050565b600082601f8301126114d6576114d5610a7f565b5b60036114e3848285611461565b91505092915050565b60006114ff6114fa84610b04565b610ae9565b90508281526020810184848401111561151b5761151a610a84565b5b61152684828561099f565b509392505050565b600082601f83011261154357611542610a7f565b5b81516115538482602086016114ec565b91505092915050565b6000806080838503121561157357611572610a3f565b5b6000611581858286016114c1565b925050606083015167ffffffffffffffff8111156115a2576115a1610a44565b5b6115ae8582860161152e565b9150509250929050565b60006115c382610fcf565b9050919050565b6115d3816115b8565b81146115de57600080fd5b50565b6000815190506115f0816115ca565b92915050565b60006020828403121561160c5761160b610a3f565b5b600061161a848285016115e1565b91505092915050565b61162c81610fcf565b811461163757600080fd5b50565b60008151905061164981611623565b92915050565b60006020828403121561166557611664610a3f565b5b60006116738482850161163a565b91505092915050565b60006060820190506116916000830186610fe1565b81810360208301526116a38185610c47565b90506116b26040830184610fe1565b949350505050565b600080fd5b6000815190506116ce81610a53565b92915050565b6000604082840312156116ea576116e96116ba565b5b6116f46040610ae9565b905060006117048482850161163a565b6000830152506020611718848285016116bf565b60208301525092915050565b600080600060a0848603121561173d5761173c610a3f565b5b600061174b868287016116d4565b935050604061175c868287016116d4565b925050608061176d868287016116bf565b9150509250925092565b600060408201905061178c6000830185610fe1565b61179960208301846111db565b9392505050565b6117a981610c10565b81146117b457600080fd5b50565b6000815190506117c6816117a0565b92915050565b6000602082840312156117e2576117e1610a3f565b5b60006117f0848285016117b7565b91505092915050565b600060408201905081810360008301526118138185610c47565b905081810360208301526118278184610c47565b90509392505050565b60006020828403121561184657611845610a3f565b5b600082015167ffffffffffffffff81111561186457611863610a44565b5b6118708482850161152e565b91505092915050565b600063ffffffff82169050919050565b61189281611879565b811461189d57600080fd5b50565b6000815190506118af81611889565b92915050565b600077ffffffffffffffffffffffffffffffffffffffffffffffff82169050919050565b6118e2816118b5565b81146118ed57600080fd5b50565b6000815190506118ff816118d9565b92915050565b61190e81610f98565b811461191957600080fd5b50565b60008151905061192b81611905565b92915050565b60006101208284031215611948576119476116ba565b5b611953610120610ae9565b905060006119638482850161144c565b6000830152506020611977848285016118a0565b602083015250604061198b848285016118a0565b604083015250606061199f848285016118f0565b60608301525060806119b3848285016118f0565b60808301525060a06119c7848285016118a0565b60a08301525060c06119db8482850161191c565b60c08301525060e06119ef8482850161191c565b60e083015250610100611a048482850161191c565b6101008301525092915050565b60006101208284031215611a2857611a27610a3f565b5b6000611a3684828501611931565b91505092915050565b600082825260208201905092915050565b6000819050919050565b600082825260208201905092915050565b6000611a778385611a5a565b9350611a84838584610b35565b611a8d836109c9565b840190509392505050565b6000611aa5848484611a6b565b90509392505050565b600080fd5b600080fd5b600080fd5b60008083356001602003843603038112611ada57611ad9611ab8565b5b83810192508235915060208301925067ffffffffffffffff821115611b0257611b01611aae565b5b600182023603831315611b1857611b17611ab3565b5b509250929050565b6000602082019050919050565b6000611b398385611a3f565b935083602084028501611b4b84611a50565b8060005b87811015611b91578484038952611b668284611abd565b611b71868284611a98565b9550611b7c84611b20565b935060208b019a505050600181019050611b4f565b50829750879450505050509392505050565b6000611baf8385610c36565b9350611bbc838584610b35565b611bc5836109c9565b840190509392505050565b60006040820190508181036000830152611beb818688611b2d565b90508181036020830152611c00818486611ba3565b90509594505050505056fea2646970667358221220c2337ac063d331e9dde19c3be1590645fb0e3b53e9d61238ec29a4425b61a09064736f6c63430008130033307830303033353938343361353433656532666534313464633134633765373932306566313066343337323939306237396436333631636463306464316261373832",
					"opcodes": "PUSH1 0x80 PUSH1 0x40 MSTORE PUSH1 0x40 MLOAD DUP1 PUSH1 0x20 ADD PUSH1 0x40 MSTORE DUP1 PUSH1 0x40 MLOAD DUP1 PUSH1 0x80 ADD PUSH1 0x40 MSTORE DUP1 PUSH1 0x42 DUP2 MSTORE PUSH1 0x20 ADD PUSH3 0x21F4 PUSH1 0x42 SWAP2 CODECOPY DUP2 MSTORE POP PUSH1 0x3 SWAP1 PUSH1 0x1 PUSH3 0x3E SWAP3 SWAP2 SWAP1 PUSH3 0xB9 JUMP JUMPDEST POP CALLVALUE DUP1 ISZERO PUSH3 0x4C JUMPI PUSH1 0x0 DUP1 REVERT JUMPDEST POP PUSH1 0x40 MLOAD PUSH3 0x2236 CODESIZE SUB DUP1 PUSH3 0x2236 DUP4 CODECOPY DUP2 DUP2 ADD PUSH1 0x40 MSTORE DUP2 ADD SWAP1 PUSH3 0x72 SWAP2 SWAP1 PUSH3 0x210 JUMP JUMPDEST DUP1 PUSH1 0x0 DUP1 PUSH2 0x100 EXP DUP2 SLOAD DUP2 PUSH20 0xFFFFFFFFFFFFFFFFFFFFFFFFFFFFFFFFFFFFFFFF MUL NOT AND SWAP1 DUP4 PUSH20 0xFFFFFFFFFFFFFFFFFFFFFFFFFFFFFFFFFFFFFFFF AND MUL OR SWAP1 SSTORE POP POP PUSH3 0x5A3 JUMP JUMPDEST DUP3 DUP1 SLOAD DUP3 DUP3 SSTORE SWAP1 PUSH1 0x0 MSTORE PUSH1 0x20 PUSH1 0x0 KECCAK256 SWAP1 DUP2 ADD SWAP3 DUP3 ISZERO PUSH3 0x106 JUMPI SWAP2 PUSH1 0x20 MUL DUP3 ADD JUMPDEST DUP3 DUP2 GT ISZERO PUSH3 0x105 JUMPI DUP3 MLOAD DUP3 SWAP1 DUP2 PUSH3 0xF4 SWAP2 SWAP1 PUSH3 0x4BC JUMP JUMPDEST POP SWAP2 PUSH1 0x20 ADD SWAP2 SWAP1 PUSH1 0x1 ADD SWAP1 PUSH3 0xDA JUMP JUMPDEST JUMPDEST POP SWAP1 POP PUSH3 0x115 SWAP2 SWAP1 PUSH3 0x119 JUMP JUMPDEST POP SWAP1 JUMP JUMPDEST JUMPDEST DUP1 DUP3 GT ISZERO PUSH3 0x13D JUMPI PUSH1 0x0 DUP2 DUP2 PUSH3 0x133 SWAP2 SWAP1 PUSH3 0x141 JUMP JUMPDEST POP PUSH1 0x1 ADD PUSH3 0x11A JUMP JUMPDEST POP SWAP1 JUMP JUMPDEST POP DUP1 SLOAD PUSH3 0x14F SWAP1 PUSH3 0x2AB JUMP JUMPDEST PUSH1 0x0 DUP3 SSTORE DUP1 PUSH1 0x1F LT PUSH3 0x163 JUMPI POP PUSH3 0x184 JUMP JUMPDEST PUSH1 0x1F ADD PUSH1 0x20 SWAP1 DIV SWAP1 PUSH1 0x0 MSTORE PUSH1 0x20 PUSH1 0x0 KECCAK256 SWAP1 DUP2 ADD SWAP1 PUSH3 0x183 SWAP2 SWAP1 PUSH3 0x187 JUMP JUMPDEST JUMPDEST POP JUMP JUMPDEST JUMPDEST DUP1 DUP3 GT ISZERO PUSH3 0x1A2 JUMPI PUSH1 0x0 DUP2 PUSH1 0x0 SWAP1 SSTORE POP PUSH1 0x1 ADD PUSH3 0x188 JUMP JUMPDEST POP SWAP1 JUMP JUMPDEST PUSH1 0x0 DUP1 REVERT JUMPDEST PUSH1 0x0 PUSH20 0xFFFFFFFFFFFFFFFFFFFFFFFFFFFFFFFFFFFFFFFF DUP3 AND SWAP1 POP SWAP2 SWAP1 POP JUMP JUMPDEST PUSH1 0x0 PUSH3 0x1D8 DUP3 PUSH3 0x1AB JUMP JUMPDEST SWAP1 POP SWAP2 SWAP1 POP JUMP JUMPDEST PUSH3 0x1EA DUP2 PUSH3 0x1CB JUMP JUMPDEST DUP2 EQ PUSH3 0x1F6 JUMPI PUSH1 0x0 DUP1 REVERT JUMPDEST POP JUMP JUMPDEST PUSH1 0x0 DUP2 MLOAD SWAP1 POP PUSH3 0x20A DUP2 PUSH3 0x1DF JUMP JUMPDEST SWAP3 SWAP2 POP POP JUMP JUMPDEST PUSH1 0x0 PUSH1 0x20 DUP3 DUP5 SUB SLT ISZERO PUSH3 0x229 JUMPI PUSH3 0x228 PUSH3 0x1A6 JUMP JUMPDEST JUMPDEST PUSH1 0x0 PUSH3 0x239 DUP5 DUP3 DUP6 ADD PUSH3 0x1F9 JUMP JUMPDEST SWAP2 POP POP SWAP3 SWAP2 POP POP JUMP JUMPDEST PUSH1 0x0 DUP2 MLOAD SWAP1 POP SWAP2 SWAP1 POP JUMP JUMPDEST PUSH32 0x4E487B7100000000000000000000000000000000000000000000000000000000 PUSH1 0x0 MSTORE PUSH1 0x41 PUSH1 0x4 MSTORE PUSH1 0x24 PUSH1 0x0 REVERT JUMPDEST PUSH32 0x4E487B7100000000000000000000000000000000000000000000000000000000 PUSH1 0x0 MSTORE PUSH1 0x22 PUSH1 0x4 MSTORE PUSH1 0x24 PUSH1 0x0 REVERT JUMPDEST PUSH1 0x0 PUSH1 0x2 DUP3 DIV SWAP1 POP PUSH1 0x1 DUP3 AND DUP1 PUSH3 0x2C4 JUMPI PUSH1 0x7F DUP3 AND SWAP2 POP JUMPDEST PUSH1 0x20 DUP3 LT DUP2 SUB PUSH3 0x2DA JUMPI PUSH3 0x2D9 PUSH3 0x27C JUMP JUMPDEST JUMPDEST POP SWAP2 SWAP1 POP JUMP JUMPDEST PUSH1 0x0 DUP2 SWAP1 POP DUP2 PUSH1 0x0 MSTORE PUSH1 0x20 PUSH1 0x0 KECCAK256 SWAP1 POP SWAP2 SWAP1 POP JUMP JUMPDEST PUSH1 0x0 PUSH1 0x20 PUSH1 0x1F DUP4 ADD DIV SWAP1 POP SWAP2 SWAP1 POP JUMP JUMPDEST PUSH1 0x0 DUP3 DUP3 SHL SWAP1 POP SWAP3 SWAP2 POP POP JUMP JUMPDEST PUSH1 0x0 PUSH1 0x8 DUP4 MUL PUSH3 0x344 PUSH32 0xFFFFFFFFFFFFFFFFFFFFFFFFFFFFFFFFFFFFFFFFFFFFFFFFFFFFFFFFFFFFFFFF DUP3 PUSH3 0x305 JUMP JUMPDEST PUSH3 0x350 DUP7 DUP4 PUSH3 0x305 JUMP JUMPDEST SWAP6 POP DUP1 NOT DUP5 AND SWAP4 POP DUP1 DUP7 AND DUP5 OR SWAP3 POP POP POP SWAP4 SWAP3 POP POP POP JUMP JUMPDEST PUSH1 0x0 DUP2 SWAP1 POP SWAP2 SWAP1 POP JUMP JUMPDEST PUSH1 0x0 DUP2 SWAP1 POP SWAP2 SWAP1 POP JUMP JUMPDEST PUSH1 0x0 PUSH3 0x39D PUSH3 0x397 PUSH3 0x391 DUP5 PUSH3 0x368 JUMP JUMPDEST PUSH3 0x372 JUMP JUMPDEST PUSH3 0x368 JUMP JUMPDEST SWAP1 POP SWAP2 SWAP1 POP JUMP JUMPDEST PUSH1 0x0 DUP2 SWAP1 POP SWAP2 SWAP1 POP JUMP JUMPDEST PUSH3 0x3B9 DUP4 PUSH3 0x37C JUMP JUMPDEST PUSH3 0x3D1 PUSH3 0x3C8 DUP3 PUSH3 0x3A4 JUMP JUMPDEST DUP5 DUP5 SLOAD PUSH3 0x312 JUMP JUMPDEST DUP3 SSTORE POP POP POP POP JUMP JUMPDEST PUSH1 0x0 SWAP1 JUMP JUMPDEST PUSH3 0x3E8 PUSH3 0x3D9 JUMP JUMPDEST PUSH3 0x3F5 DUP2 DUP5 DUP5 PUSH3 0x3AE JUMP JUMPDEST POP POP POP JUMP JUMPDEST JUMPDEST DUP2 DUP2 LT ISZERO PUSH3 0x41D JUMPI PUSH3 0x411 PUSH1 0x0 DUP3 PUSH3 0x3DE JUMP JUMPDEST PUSH1 0x1 DUP2 ADD SWAP1 POP PUSH3 0x3FB JUMP JUMPDEST POP POP JUMP JUMPDEST PUSH1 0x1F DUP3 GT ISZERO PUSH3 0x46C JUMPI PUSH3 0x436 DUP2 PUSH3 0x2E0 JUMP JUMPDEST PUSH3 0x441 DUP5 PUSH3 0x2F5 JUMP JUMPDEST DUP2 ADD PUSH1 0x20 DUP6 LT ISZERO PUSH3 0x451 JUMPI DUP2 SWAP1 POP JUMPDEST PUSH3 0x469 PUSH3 0x460 DUP6 PUSH3 0x2F5 JUMP JUMPDEST DUP4 ADD DUP3 PUSH3 0x3FA JUMP JUMPDEST POP POP JUMPDEST POP POP POP JUMP JUMPDEST PUSH1 0x0 DUP3 DUP3 SHR SWAP1 POP SWAP3 SWAP2 POP POP JUMP JUMPDEST PUSH1 0x0 PUSH3 0x491 PUSH1 0x0 NOT DUP5 PUSH1 0x8 MUL PUSH3 0x471 JUMP JUMPDEST NOT DUP1 DUP4 AND SWAP2 POP POP SWAP3 SWAP2 POP POP JUMP JUMPDEST PUSH1 0x0 PUSH3 0x4AC DUP4 DUP4 PUSH3 0x47E JUMP JUMPDEST SWAP2 POP DUP3 PUSH1 0x2 MUL DUP3 OR SWAP1 POP SWAP3 SWAP2 POP POP JUMP JUMPDEST PUSH3 0x4C7 DUP3 PUSH3 0x242 JUMP JUMPDEST PUSH8 0xFFFFFFFFFFFFFFFF DUP2 GT ISZERO PUSH3 0x4E3 JUMPI PUSH3 0x4E2 PUSH3 0x24D JUMP JUMPDEST JUMPDEST PUSH3 0x4EF DUP3 SLOAD PUSH3 0x2AB JUMP JUMPDEST PUSH3 0x4FC DUP3 DUP3 DUP6 PUSH3 0x421 JUMP JUMPDEST PUSH1 0x0 PUSH1 0x20 SWAP1 POP PUSH1 0x1F DUP4 GT PUSH1 0x1 DUP2 EQ PUSH3 0x534 JUMPI PUSH1 0x0 DUP5 ISZERO PUSH3 0x51F JUMPI DUP3 DUP8 ADD MLOAD SWAP1 POP JUMPDEST PUSH3 0x52B DUP6 DUP3 PUSH3 0x49E JUMP JUMPDEST DUP7 SSTORE POP PUSH3 0x59B JUMP JUMPDEST PUSH1 0x1F NOT DUP5 AND PUSH3 0x544 DUP7 PUSH3 0x2E0 JUMP JUMPDEST PUSH1 0x0 JUMPDEST DUP3 DUP2 LT ISZERO PUSH3 0x56E JUMPI DUP5 DUP10 ADD MLOAD DUP3 SSTORE PUSH1 0x1 DUP3 ADD SWAP2 POP PUSH1 0x20 DUP6 ADD SWAP5 POP PUSH1 0x20 DUP2 ADD SWAP1 POP PUSH3 0x547 JUMP JUMPDEST DUP7 DUP4 LT ISZERO PUSH3 0x58E JUMPI DUP5 DUP10 ADD MLOAD PUSH3 0x58A PUSH1 0x1F DUP10 AND DUP3 PUSH3 0x47E JUMP JUMPDEST DUP4 SSTORE POP JUMPDEST PUSH1 0x1 PUSH1 0x2 DUP9 MUL ADD DUP9 SSTORE POP POP POP JUMPDEST POP POP POP POP POP POP JUMP JUMPDEST PUSH2 0x1C41 DUP1 PUSH3 0x5B3 PUSH1 0x0 CODECOPY PUSH1 0x0 RETURN INVALID PUSH1 0x80 PUSH1 0x40 MSTORE PUSH1 0x4 CALLDATASIZE LT PUSH2 0x95 JUMPI PUSH1 0x0 CALLDATALOAD PUSH1 0xE0 SHR DUP1 PUSH4 0x4585E33B GT PUSH2 0x59 JUMPI DUP1 PUSH4 0x4585E33B EQ PUSH2 0x195 JUMPI DUP1 PUSH4 0x4B56A42E EQ PUSH2 0x1BE JUMPI DUP1 PUSH4 0xB7F433D1 EQ PUSH2 0x1FC JUMPI DUP1 PUSH4 0xE13B822D EQ PUSH2 0x239 JUMPI DUP1 PUSH4 0xEB1EDD61 EQ PUSH2 0x264 JUMPI PUSH2 0x96 JUMP JUMPDEST DUP1 PUSH4 0x8C9E24E EQ PUSH2 0x98 JUMPI DUP1 PUSH4 0xFB172FB EQ PUSH2 0xC3 JUMPI DUP1 PUSH4 0x1B83CA1E EQ PUSH2 0x101 JUMPI DUP1 PUSH4 0x2B7AC3F3 EQ PUSH2 0x12C JUMPI DUP1 PUSH4 0x40691DB4 EQ PUSH2 0x157 JUMPI PUSH2 0x96 JUMP JUMPDEST JUMPDEST STOP JUMPDEST CALLVALUE DUP1 ISZERO PUSH2 0xA4 JUMPI PUSH1 0x0 DUP1 REVERT JUMPDEST POP PUSH2 0xAD PUSH2 0x28F JUMP JUMPDEST PUSH1 0x40 MLOAD PUSH2 0xBA SWAP2 SWAP1 PUSH2 0xA13 JUMP JUMPDEST PUSH1 0x40 MLOAD DUP1 SWAP2 SUB SWAP1 RETURN JUMPDEST CALLVALUE DUP1 ISZERO PUSH2 0xCF JUMPI PUSH1 0x0 DUP1 REVERT JUMPDEST POP PUSH2 0xEA PUSH1 0x4 DUP1 CALLDATASIZE SUB DUP2 ADD SWAP1 PUSH2 0xE5 SWAP2 SWAP1 PUSH2 0xBB4 JUMP JUMPDEST PUSH2 0x2C8 JUMP JUMPDEST PUSH1 0x40 MLOAD PUSH2 0xF8 SWAP3 SWAP2 SWAP1 PUSH2 0xC80 JUMP JUMPDEST PUSH1 0x40 MLOAD DUP1 SWAP2 SUB SWAP1 RETURN JUMPDEST CALLVALUE DUP1 ISZERO PUSH2 0x10D JUMPI PUSH1 0x0 DUP1 REVERT JUMPDEST POP PUSH2 0x116 PUSH2 0x30F JUMP JUMPDEST PUSH1 0x40 MLOAD PUSH2 0x123 SWAP2 SWAP1 PUSH2 0xA13 JUMP JUMPDEST PUSH1 0x40 MLOAD DUP1 SWAP2 SUB SWAP1 RETURN JUMPDEST CALLVALUE DUP1 ISZERO PUSH2 0x138 JUMPI PUSH1 0x0 DUP1 REVERT JUMPDEST POP PUSH2 0x141 PUSH2 0x348 JUMP JUMPDEST PUSH1 0x40 MLOAD PUSH2 0x14E SWAP2 SWAP1 PUSH2 0xD2F JUMP JUMPDEST PUSH1 0x40 MLOAD DUP1 SWAP2 SUB SWAP1 RETURN JUMPDEST CALLVALUE DUP1 ISZERO PUSH2 0x163 JUMPI PUSH1 0x0 DUP1 REVERT JUMPDEST POP PUSH2 0x17E PUSH1 0x4 DUP1 CALLDATASIZE SUB DUP2 ADD SWAP1 PUSH2 0x179 SWAP2 SWAP1 PUSH2 0xD6F JUMP JUMPDEST PUSH2 0x36C JUMP JUMPDEST PUSH1 0x40 MLOAD PUSH2 0x18C SWAP3 SWAP2 SWAP1 PUSH2 0xC80 JUMP JUMPDEST PUSH1 0x40 MLOAD DUP1 SWAP2 SUB SWAP1 RETURN JUMPDEST CALLVALUE DUP1 ISZERO PUSH2 0x1A1 JUMPI PUSH1 0x0 DUP1 REVERT JUMPDEST POP PUSH2 0x1BC PUSH1 0x4 DUP1 CALLDATASIZE SUB DUP2 ADD SWAP1 PUSH2 0x1B7 SWAP2 SWAP1 PUSH2 0xE47 JUMP JUMPDEST PUSH2 0x422 JUMP JUMPDEST STOP JUMPDEST CALLVALUE DUP1 ISZERO PUSH2 0x1CA JUMPI PUSH1 0x0 DUP1 REVERT JUMPDEST POP PUSH2 0x1E5 PUSH1 0x4 DUP1 CALLDATASIZE SUB DUP2 ADD SWAP1 PUSH2 0x1E0 SWAP2 SWAP1 PUSH2 0xEEA JUMP JUMPDEST PUSH2 0x865 JUMP JUMPDEST PUSH1 0x40 MLOAD PUSH2 0x1F3 SWAP3 SWAP2 SWAP1 PUSH2 0xC80 JUMP JUMPDEST PUSH1 0x40 MLOAD DUP1 SWAP2 SUB SWAP1 RETURN JUMPDEST CALLVALUE DUP1 ISZERO PUSH2 0x208 JUMPI PUSH1 0x0 DUP1 REVERT JUMPDEST POP PUSH2 0x223 PUSH1 0x4 DUP1 CALLDATASIZE SUB DUP2 ADD SWAP1 PUSH2 0x21E SWAP2 SWAP1 PUSH2 0xF6B JUMP JUMPDEST PUSH2 0x89E JUMP JUMPDEST PUSH1 0x40 MLOAD PUSH2 0x230 SWAP2 SWAP1 PUSH2 0xA13 JUMP JUMPDEST PUSH1 0x40 MLOAD DUP1 SWAP2 SUB SWAP1 RETURN JUMPDEST CALLVALUE DUP1 ISZERO PUSH2 0x245 JUMPI PUSH1 0x0 DUP1 REVERT JUMPDEST POP PUSH2 0x24E PUSH2 0x94A JUMP JUMPDEST PUSH1 0x40 MLOAD PUSH2 0x25B SWAP2 SWAP1 PUSH2 0xFB4 JUMP JUMPDEST PUSH1 0x40 MLOAD DUP1 SWAP2 SUB SWAP1 RETURN JUMPDEST CALLVALUE DUP1 ISZERO PUSH2 0x270 JUMPI PUSH1 0x0 DUP1 REVERT JUMPDEST POP PUSH2 0x279 PUSH2 0x95D JUMP JUMPDEST PUSH1 0x40 MLOAD PUSH2 0x286 SWAP2 SWAP1 PUSH2 0xFF0 JUMP JUMPDEST PUSH1 0x40 MLOAD DUP1 SWAP2 SUB SWAP1 RETURN JUMPDEST PUSH1 0x40 MLOAD DUP1 PUSH1 0x40 ADD PUSH1 0x40 MSTORE DUP1 PUSH1 0x7 DUP2 MSTORE PUSH1 0x20 ADD PUSH32 0x6665656449447300000000000000000000000000000000000000000000000000 DUP2 MSTORE POP DUP2 JUMP JUMPDEST PUSH1 0x0 PUSH1 0x60 PUSH1 0x1 PUSH1 0x40 MLOAD DUP1 PUSH1 0x40 ADD PUSH1 0x40 MSTORE DUP1 PUSH1 0x1 DUP2 MSTORE PUSH1 0x20 ADD PUSH32 0x3000000000000000000000000000000000000000000000000000000000000000 DUP2 MSTORE POP SWAP2 POP SWAP2 POP SWAP3 POP SWAP3 SWAP1 POP JUMP JUMPDEST PUSH1 0x40 MLOAD DUP1 PUSH1 0x40 ADD PUSH1 0x40 MSTORE DUP1 PUSH1 0x9 DUP2 MSTORE PUSH1 0x20 ADD PUSH32 0x74696D657374616D700000000000000000000000000000000000000000000000 DUP2 MSTORE POP DUP2 JUMP JUMPDEST PUSH1 0x0 DUP1 SLOAD SWAP1 PUSH2 0x100 EXP SWAP1 DIV PUSH20 0xFFFFFFFFFFFFFFFFFFFFFFFFFFFFFFFFFFFFFFFF AND DUP2 JUMP JUMPDEST PUSH1 0x0 PUSH1 0x60 PUSH1 0x40 MLOAD DUP1 PUSH1 0x40 ADD PUSH1 0x40 MSTORE DUP1 PUSH1 0x7 DUP2 MSTORE PUSH1 0x20 ADD PUSH32 0x6665656449447300000000000000000000000000000000000000000000000000 DUP2 MSTORE POP PUSH1 0x3 PUSH1 0x40 MLOAD DUP1 PUSH1 0x40 ADD PUSH1 0x40 MSTORE DUP1 PUSH1 0x9 DUP2 MSTORE PUSH1 0x20 ADD PUSH32 0x74696D657374616D700000000000000000000000000000000000000000000000 DUP2 MSTORE POP DUP7 PUSH1 0x20 ADD CALLDATALOAD PUSH1 0x40 MLOAD PUSH32 0xF055E4A200000000000000000000000000000000000000000000000000000000 DUP2 MSTORE PUSH1 0x4 ADD PUSH2 0x419 SWAP5 SWAP4 SWAP3 SWAP2 SWAP1 PUSH2 0x1210 JUMP JUMPDEST PUSH1 0x40 MLOAD DUP1 SWAP2 SUB SWAP1 REVERT JUMPDEST PUSH1 0x0 DUP1 DUP4 DUP4 DUP2 ADD SWAP1 PUSH2 0x434 SWAP2 SWAP1 PUSH2 0x135E JUMP JUMPDEST SWAP2 POP SWAP2 POP PUSH1 0x0 DUP3 PUSH1 0x0 DUP2 MLOAD DUP2 LT PUSH2 0x44E JUMPI PUSH2 0x44D PUSH2 0x13D6 JUMP JUMPDEST JUMPDEST PUSH1 0x20 MUL PUSH1 0x20 ADD ADD MLOAD SWAP1 POP PUSH1 0x0 DUP2 DUP1 PUSH1 0x20 ADD SWAP1 MLOAD DUP2 ADD SWAP1 PUSH2 0x46E SWAP2 SWAP1 PUSH2 0x155C JUMP JUMPDEST SWAP2 POP POP PUSH1 0x0 DUP1 PUSH1 0x0 SWAP1 SLOAD SWAP1 PUSH2 0x100 EXP SWAP1 DIV PUSH20 0xFFFFFFFFFFFFFFFFFFFFFFFFFFFFFFFFFFFFFFFF AND PUSH20 0xFFFFFFFFFFFFFFFFFFFFFFFFFFFFFFFFFFFFFFFF AND PUSH4 0x38416B5B PUSH1 0x40 MLOAD DUP2 PUSH4 0xFFFFFFFF AND PUSH1 0xE0 SHL DUP2 MSTORE PUSH1 0x4 ADD PUSH1 0x20 PUSH1 0x40 MLOAD DUP1 DUP4 SUB DUP2 DUP7 GAS STATICCALL ISZERO DUP1 ISZERO PUSH2 0x4DF JUMPI RETURNDATASIZE PUSH1 0x0 DUP1 RETURNDATACOPY RETURNDATASIZE PUSH1 0x0 REVERT JUMPDEST POP POP POP POP PUSH1 0x40 MLOAD RETURNDATASIZE PUSH1 0x1F NOT PUSH1 0x1F DUP3 ADD AND DUP3 ADD DUP1 PUSH1 0x40 MSTORE POP DUP2 ADD SWAP1 PUSH2 0x503 SWAP2 SWAP1 PUSH2 0x15F6 JUMP JUMPDEST SWAP1 POP PUSH1 0x0 DUP2 PUSH20 0xFFFFFFFFFFFFFFFFFFFFFFFFFFFFFFFFFFFFFFFF AND PUSH4 0x3AA5AC07 PUSH1 0x40 MLOAD DUP2 PUSH4 0xFFFFFFFF AND PUSH1 0xE0 SHL DUP2 MSTORE PUSH1 0x4 ADD PUSH1 0x20 PUSH1 0x40 MLOAD DUP1 DUP4 SUB DUP2 DUP7 GAS STATICCALL ISZERO DUP1 ISZERO PUSH2 0x552 JUMPI RETURNDATASIZE PUSH1 0x0 DUP1 RETURNDATACOPY RETURNDATASIZE PUSH1 0x0 REVERT JUMPDEST POP POP POP POP PUSH1 0x40 MLOAD RETURNDATASIZE PUSH1 0x1F NOT PUSH1 0x1F DUP3 ADD AND DUP3 ADD DUP1 PUSH1 0x40 MSTORE POP DUP2 ADD SWAP1 PUSH2 0x576 SWAP2 SWAP1 PUSH2 0x164F JUMP JUMPDEST SWAP1 POP PUSH1 0x0 DUP3 PUSH20 0xFFFFFFFFFFFFFFFFFFFFFFFFFFFFFFFFFFFFFFFF AND PUSH4 0xEA4B861B PUSH1 0x40 MLOAD DUP2 PUSH4 0xFFFFFFFF AND PUSH1 0xE0 SHL DUP2 MSTORE PUSH1 0x4 ADD PUSH1 0x20 PUSH1 0x40 MLOAD DUP1 DUP4 SUB DUP2 DUP7 GAS STATICCALL ISZERO DUP1 ISZERO PUSH2 0x5C5 JUMPI RETURNDATASIZE PUSH1 0x0 DUP1 RETURNDATACOPY RETURNDATASIZE PUSH1 0x0 REVERT JUMPDEST POP POP POP POP PUSH1 0x40 MLOAD RETURNDATASIZE PUSH1 0x1F NOT PUSH1 0x1F DUP3 ADD AND DUP3 ADD DUP1 PUSH1 0x40 MSTORE POP DUP2 ADD SWAP1 PUSH2 0x5E9 SWAP2 SWAP1 PUSH2 0x164F JUMP JUMPDEST SWAP1 POP PUSH1 0x0 DUP4 PUSH20 0xFFFFFFFFFFFFFFFFFFFFFFFFFFFFFFFFFFFFFFFF AND PUSH4 0xE03DAB1A ADDRESS DUP8 DUP6 PUSH1 0x40 MLOAD DUP5 PUSH4 0xFFFFFFFF AND PUSH1 0xE0 SHL DUP2 MSTORE PUSH1 0x4 ADD PUSH2 0x62A SWAP4 SWAP3 SWAP2 SWAP1 PUSH2 0x167C JUMP JUMPDEST PUSH1 0xA0 PUSH1 0x40 MLOAD DUP1 DUP4 SUB DUP2 PUSH1 0x0 DUP8 GAS CALL ISZERO DUP1 ISZERO PUSH2 0x649 JUMPI RETURNDATASIZE PUSH1 0x0 DUP1 RETURNDATACOPY RETURNDATASIZE PUSH1 0x0 REVERT JUMPDEST POP POP POP POP PUSH1 0x40 MLOAD RETURNDATASIZE PUSH1 0x1F NOT PUSH1 0x1F DUP3 ADD AND DUP3 ADD DUP1 PUSH1 0x40 MSTORE POP DUP2 ADD SWAP1 PUSH2 0x66D SWAP2 SWAP1 PUSH2 0x1724 JUMP JUMPDEST POP POP SWAP1 POP DUP2 PUSH20 0xFFFFFFFFFFFFFFFFFFFFFFFFFFFFFFFFFFFFFFFF AND PUSH4 0x95EA7B3 DUP5 DUP4 PUSH1 0x20 ADD MLOAD PUSH1 0x40 MLOAD DUP4 PUSH4 0xFFFFFFFF AND PUSH1 0xE0 SHL DUP2 MSTORE PUSH1 0x4 ADD PUSH2 0x6B0 SWAP3 SWAP2 SWAP1 PUSH2 0x1777 JUMP JUMPDEST PUSH1 0x20 PUSH1 0x40 MLOAD DUP1 DUP4 SUB DUP2 PUSH1 0x0 DUP8 GAS CALL ISZERO DUP1 ISZERO PUSH2 0x6CF JUMPI RETURNDATASIZE PUSH1 0x0 DUP1 RETURNDATACOPY RETURNDATASIZE PUSH1 0x0 REVERT JUMPDEST POP POP POP POP PUSH1 0x40 MLOAD RETURNDATASIZE PUSH1 0x1F NOT PUSH1 0x1F DUP3 ADD AND DUP3 ADD DUP1 PUSH1 0x40 MSTORE POP DUP2 ADD SWAP1 PUSH2 0x6F3 SWAP2 SWAP1 PUSH2 0x17CC JUMP JUMPDEST POP PUSH1 0x0 DUP1 PUSH1 0x0 SWAP1 SLOAD SWAP1 PUSH2 0x100 EXP SWAP1 DIV PUSH20 0xFFFFFFFFFFFFFFFFFFFFFFFFFFFFFFFFFFFFFFFF AND PUSH20 0xFFFFFFFFFFFFFFFFFFFFFFFFFFFFFFFFFFFFFFFF AND PUSH4 0xF7E83AEE DUP9 DUP6 PUSH1 0x40 MLOAD PUSH1 0x20 ADD PUSH2 0x745 SWAP2 SWAP1 PUSH2 0xFF0 JUMP JUMPDEST PUSH1 0x40 MLOAD PUSH1 0x20 DUP2 DUP4 SUB SUB DUP2 MSTORE SWAP1 PUSH1 0x40 MSTORE PUSH1 0x40 MLOAD DUP4 PUSH4 0xFFFFFFFF AND PUSH1 0xE0 SHL DUP2 MSTORE PUSH1 0x4 ADD PUSH2 0x771 SWAP3 SWAP2 SWAP1 PUSH2 0x17F9 JUMP JUMPDEST PUSH1 0x0 PUSH1 0x40 MLOAD DUP1 DUP4 SUB DUP2 PUSH1 0x0 DUP8 GAS CALL ISZERO DUP1 ISZERO PUSH2 0x790 JUMPI RETURNDATASIZE PUSH1 0x0 DUP1 RETURNDATACOPY RETURNDATASIZE PUSH1 0x0 REVERT JUMPDEST POP POP POP POP PUSH1 0x40 MLOAD RETURNDATASIZE PUSH1 0x0 DUP3 RETURNDATACOPY RETURNDATASIZE PUSH1 0x1F NOT PUSH1 0x1F DUP3 ADD AND DUP3 ADD DUP1 PUSH1 0x40 MSTORE POP DUP2 ADD SWAP1 PUSH2 0x7B9 SWAP2 SWAP1 PUSH2 0x1830 JUMP JUMPDEST SWAP1 POP PUSH1 0x0 DUP2 DUP1 PUSH1 0x20 ADD SWAP1 MLOAD DUP2 ADD SWAP1 PUSH2 0x7D1 SWAP2 SWAP1 PUSH2 0x1A11 JUMP JUMPDEST SWAP1 POP DUP1 PUSH1 0xC0 ADD MLOAD PUSH1 0x17 SIGNEXTEND PUSH32 0x6CCDFE05A72266F3FA83F39DE58FC57462B379BEF18AABFE30D5527D0D8D3CD1 PUSH1 0x40 MLOAD PUSH1 0x40 MLOAD DUP1 SWAP2 SUB SWAP1 LOG2 DUP1 PUSH1 0xC0 ADD MLOAD PUSH1 0x2 PUSH1 0x0 PUSH2 0x100 EXP DUP2 SLOAD DUP2 PUSH24 0xFFFFFFFFFFFFFFFFFFFFFFFFFFFFFFFFFFFFFFFFFFFFFFFF MUL NOT AND SWAP1 DUP4 PUSH1 0x17 SIGNEXTEND PUSH24 0xFFFFFFFFFFFFFFFFFFFFFFFFFFFFFFFFFFFFFFFFFFFFFFFF AND MUL OR SWAP1 SSTORE POP POP POP POP POP POP POP POP POP POP POP POP POP JUMP JUMPDEST PUSH1 0x0 PUSH1 0x60 PUSH1 0x1 DUP7 DUP7 DUP7 DUP7 PUSH1 0x40 MLOAD PUSH1 0x20 ADD PUSH2 0x882 SWAP5 SWAP4 SWAP3 SWAP2 SWAP1 PUSH2 0x1BD0 JUMP JUMPDEST PUSH1 0x40 MLOAD PUSH1 0x20 DUP2 DUP4 SUB SUB DUP2 MSTORE SWAP1 PUSH1 0x40 MSTORE SWAP2 POP SWAP2 POP SWAP5 POP SWAP5 SWAP3 POP POP POP JUMP JUMPDEST PUSH1 0x3 DUP2 DUP2 SLOAD DUP2 LT PUSH2 0x8AE JUMPI PUSH1 0x0 DUP1 REVERT JUMPDEST SWAP1 PUSH1 0x0 MSTORE PUSH1 0x20 PUSH1 0x0 KECCAK256 ADD PUSH1 0x0 SWAP2 POP SWAP1 POP DUP1 SLOAD PUSH2 0x8C9 SWAP1 PUSH2 0x106B JUMP JUMPDEST DUP1 PUSH1 0x1F ADD PUSH1 0x20 DUP1 SWAP2 DIV MUL PUSH1 0x20 ADD PUSH1 0x40 MLOAD SWAP1 DUP2 ADD PUSH1 0x40 MSTORE DUP1 SWAP3 SWAP2 SWAP1 DUP2 DUP2 MSTORE PUSH1 0x20 ADD DUP3 DUP1 SLOAD PUSH2 0x8F5 SWAP1 PUSH2 0x106B JUMP JUMPDEST DUP1 ISZERO PUSH2 0x942 JUMPI DUP1 PUSH1 0x1F LT PUSH2 0x917 JUMPI PUSH2 0x100 DUP1 DUP4 SLOAD DIV MUL DUP4 MSTORE SWAP2 PUSH1 0x20 ADD SWAP2 PUSH2 0x942 JUMP JUMPDEST DUP3 ADD SWAP2 SWAP1 PUSH1 0x0 MSTORE PUSH1 0x20 PUSH1 0x0 KECCAK256 SWAP1 JUMPDEST DUP2 SLOAD DUP2 MSTORE SWAP1 PUSH1 0x1 ADD SWAP1 PUSH1 0x20 ADD DUP1 DUP4 GT PUSH2 0x925 JUMPI DUP3 SWAP1 SUB PUSH1 0x1F AND DUP3 ADD SWAP2 JUMPDEST POP POP POP POP POP DUP2 JUMP JUMPDEST PUSH1 0x2 PUSH1 0x0 SWAP1 SLOAD SWAP1 PUSH2 0x100 EXP SWAP1 DIV PUSH1 0x17 SIGNEXTEND DUP2 JUMP JUMPDEST PUSH1 0x1 PUSH1 0x0 SWAP1 SLOAD SWAP1 PUSH2 0x100 EXP SWAP1 DIV PUSH20 0xFFFFFFFFFFFFFFFFFFFFFFFFFFFFFFFFFFFFFFFF AND DUP2 JUMP JUMPDEST PUSH1 0x0 DUP2 MLOAD SWAP1 POP SWAP2 SWAP1 POP JUMP JUMPDEST PUSH1 0x0 DUP3 DUP3 MSTORE PUSH1 0x20 DUP3 ADD SWAP1 POP SWAP3 SWAP2 POP POP JUMP JUMPDEST PUSH1 0x0 JUMPDEST DUP4 DUP2 LT ISZERO PUSH2 0x9BD JUMPI DUP1 DUP3 ADD MLOAD DUP2 DUP5 ADD MSTORE PUSH1 0x20 DUP2 ADD SWAP1 POP PUSH2 0x9A2 JUMP JUMPDEST PUSH1 0x0 DUP5 DUP5 ADD MSTORE POP POP POP POP JUMP JUMPDEST PUSH1 0x0 PUSH1 0x1F NOT PUSH1 0x1F DUP4 ADD AND SWAP1 POP SWAP2 SWAP1 POP JUMP JUMPDEST PUSH1 0x0 PUSH2 0x9E5 DUP3 PUSH2 0x983 JUMP JUMPDEST PUSH2 0x9EF DUP2 DUP6 PUSH2 0x98E JUMP JUMPDEST SWAP4 POP PUSH2 0x9FF DUP2 DUP6 PUSH1 0x20 DUP7 ADD PUSH2 0x99F JUMP JUMPDEST PUSH2 0xA08 DUP2 PUSH2 0x9C9 JUMP JUMPDEST DUP5 ADD SWAP2 POP POP SWAP3 SWAP2 POP POP JUMP JUMPDEST PUSH1 0x0 PUSH1 0x20 DUP3 ADD SWAP1 POP DUP2 DUP2 SUB PUSH1 0x0 DUP4 ADD MSTORE PUSH2 0xA2D DUP2 DUP5 PUSH2 0x9DA JUMP JUMPDEST SWAP1 POP SWAP3 SWAP2 POP POP JUMP JUMPDEST PUSH1 0x0 PUSH1 0x40 MLOAD SWAP1 POP SWAP1 JUMP JUMPDEST PUSH1 0x0 DUP1 REVERT JUMPDEST PUSH1 0x0 DUP1 REVERT JUMPDEST PUSH1 0x0 DUP2 SWAP1 POP SWAP2 SWAP1 POP JUMP JUMPDEST PUSH2 0xA5C DUP2 PUSH2 0xA49 JUMP JUMPDEST DUP2 EQ PUSH2 0xA67 JUMPI PUSH1 0x0 DUP1 REVERT JUMPDEST POP JUMP JUMPDEST PUSH1 0x0 DUP2 CALLDATALOAD SWAP1 POP PUSH2 0xA79 DUP2 PUSH2 0xA53 JUMP JUMPDEST SWAP3 SWAP2 POP POP JUMP JUMPDEST PUSH1 0x0 DUP1 REVERT JUMPDEST PUSH1 0x0 DUP1 REVERT JUMPDEST PUSH32 0x4E487B7100000000000000000000000000000000000000000000000000000000 PUSH1 0x0 MSTORE PUSH1 0x41 PUSH1 0x4 MSTORE PUSH1 0x24 PUSH1 0x0 REVERT JUMPDEST PUSH2 0xAC1 DUP3 PUSH2 0x9C9 JUMP JUMPDEST DUP2 ADD DUP2 DUP2 LT PUSH8 0xFFFFFFFFFFFFFFFF DUP3 GT OR ISZERO PUSH2 0xAE0 JUMPI PUSH2 0xADF PUSH2 0xA89 JUMP JUMPDEST JUMPDEST DUP1 PUSH1 0x40 MSTORE POP POP POP JUMP JUMPDEST PUSH1 0x0 PUSH2 0xAF3 PUSH2 0xA35 JUMP JUMPDEST SWAP1 POP PUSH2 0xAFF DUP3 DUP3 PUSH2 0xAB8 JUMP JUMPDEST SWAP2 SWAP1 POP JUMP JUMPDEST PUSH1 0x0 PUSH8 0xFFFFFFFFFFFFFFFF DUP3 GT ISZERO PUSH2 0xB1F JUMPI PUSH2 0xB1E PUSH2 0xA89 JUMP JUMPDEST JUMPDEST PUSH2 0xB28 DUP3 PUSH2 0x9C9 JUMP JUMPDEST SWAP1 POP PUSH1 0x20 DUP2 ADD SWAP1 POP SWAP2 SWAP1 POP JUMP JUMPDEST DUP3 DUP2 DUP4 CALLDATACOPY PUSH1 0x0 DUP4 DUP4 ADD MSTORE POP POP POP JUMP JUMPDEST PUSH1 0x0 PUSH2 0xB57 PUSH2 0xB52 DUP5 PUSH2 0xB04 JUMP JUMPDEST PUSH2 0xAE9 JUMP JUMPDEST SWAP1 POP DUP3 DUP2 MSTORE PUSH1 0x20 DUP2 ADD DUP5 DUP5 DUP5 ADD GT ISZERO PUSH2 0xB73 JUMPI PUSH2 0xB72 PUSH2 0xA84 JUMP JUMPDEST JUMPDEST PUSH2 0xB7E DUP5 DUP3 DUP6 PUSH2 0xB35 JUMP JUMPDEST POP SWAP4 SWAP3 POP POP POP JUMP JUMPDEST PUSH1 0x0 DUP3 PUSH1 0x1F DUP4 ADD SLT PUSH2 0xB9B JUMPI PUSH2 0xB9A PUSH2 0xA7F JUMP JUMPDEST JUMPDEST DUP2 CALLDATALOAD PUSH2 0xBAB DUP5 DUP3 PUSH1 0x20 DUP7 ADD PUSH2 0xB44 JUMP JUMPDEST SWAP2 POP POP SWAP3 SWAP2 POP POP JUMP JUMPDEST PUSH1 0x0 DUP1 PUSH1 0x40 DUP4 DUP6 SUB SLT ISZERO PUSH2 0xBCB JUMPI PUSH2 0xBCA PUSH2 0xA3F JUMP JUMPDEST JUMPDEST PUSH1 0x0 PUSH2 0xBD9 DUP6 DUP3 DUP7 ADD PUSH2 0xA6A JUMP JUMPDEST SWAP3 POP POP PUSH1 0x20 DUP4 ADD CALLDATALOAD PUSH8 0xFFFFFFFFFFFFFFFF DUP2 GT ISZERO PUSH2 0xBFA JUMPI PUSH2 0xBF9 PUSH2 0xA44 JUMP JUMPDEST JUMPDEST PUSH2 0xC06 DUP6 DUP3 DUP7 ADD PUSH2 0xB86 JUMP JUMPDEST SWAP2 POP POP SWAP3 POP SWAP3 SWAP1 POP JUMP JUMPDEST PUSH1 0x0 DUP2 ISZERO ISZERO SWAP1 POP SWAP2 SWAP1 POP JUMP JUMPDEST PUSH2 0xC25 DUP2 PUSH2 0xC10 JUMP JUMPDEST DUP3 MSTORE POP POP JUMP JUMPDEST PUSH1 0x0 DUP2 MLOAD SWAP1 POP SWAP2 SWAP1 POP JUMP JUMPDEST PUSH1 0x0 DUP3 DUP3 MSTORE PUSH1 0x20 DUP3 ADD SWAP1 POP SWAP3 SWAP2 POP POP JUMP JUMPDEST PUSH1 0x0 PUSH2 0xC52 DUP3 PUSH2 0xC2B JUMP JUMPDEST PUSH2 0xC5C DUP2 DUP6 PUSH2 0xC36 JUMP JUMPDEST SWAP4 POP PUSH2 0xC6C DUP2 DUP6 PUSH1 0x20 DUP7 ADD PUSH2 0x99F JUMP JUMPDEST PUSH2 0xC75 DUP2 PUSH2 0x9C9 JUMP JUMPDEST DUP5 ADD SWAP2 POP POP SWAP3 SWAP2 POP POP JUMP JUMPDEST PUSH1 0x0 PUSH1 0x40 DUP3 ADD SWAP1 POP PUSH2 0xC95 PUSH1 0x0 DUP4 ADD DUP6 PUSH2 0xC1C JUMP JUMPDEST DUP2 DUP2 SUB PUSH1 0x20 DUP4 ADD MSTORE PUSH2 0xCA7 DUP2 DUP5 PUSH2 0xC47 JUMP JUMPDEST SWAP1 POP SWAP4 SWAP3 POP POP POP JUMP JUMPDEST PUSH1 0x0 PUSH20 0xFFFFFFFFFFFFFFFFFFFFFFFFFFFFFFFFFFFFFFFF DUP3 AND SWAP1 POP SWAP2 SWAP1 POP JUMP JUMPDEST PUSH1 0x0 DUP2 SWAP1 POP SWAP2 SWAP1 POP JUMP JUMPDEST PUSH1 0x0 PUSH2 0xCF5 PUSH2 0xCF0 PUSH2 0xCEB DUP5 PUSH2 0xCB0 JUMP JUMPDEST PUSH2 0xCD0 JUMP JUMPDEST PUSH2 0xCB0 JUMP JUMPDEST SWAP1 POP SWAP2 SWAP1 POP JUMP JUMPDEST PUSH1 0x0 PUSH2 0xD07 DUP3 PUSH2 0xCDA JUMP JUMPDEST SWAP1 POP SWAP2 SWAP1 POP JUMP JUMPDEST PUSH1 0x0 PUSH2 0xD19 DUP3 PUSH2 0xCFC JUMP JUMPDEST SWAP1 POP SWAP2 SWAP1 POP JUMP JUMPDEST PUSH2 0xD29 DUP2 PUSH2 0xD0E JUMP JUMPDEST DUP3 MSTORE POP POP JUMP JUMPDEST PUSH1 0x0 PUSH1 0x20 DUP3 ADD SWAP1 POP PUSH2 0xD44 PUSH1 0x0 DUP4 ADD DUP5 PUSH2 0xD20 JUMP JUMPDEST SWAP3 SWAP2 POP POP JUMP JUMPDEST PUSH1 0x0 DUP1 REVERT JUMPDEST PUSH1 0x0 PUSH2 0x100 DUP3 DUP5 SUB SLT ISZERO PUSH2 0xD66 JUMPI PUSH2 0xD65 PUSH2 0xD4A JUMP JUMPDEST JUMPDEST DUP2 SWAP1 POP SWAP3 SWAP2 POP POP JUMP JUMPDEST PUSH1 0x0 DUP1 PUSH1 0x40 DUP4 DUP6 SUB SLT ISZERO PUSH2 0xD86 JUMPI PUSH2 0xD85 PUSH2 0xA3F JUMP JUMPDEST JUMPDEST PUSH1 0x0 DUP4 ADD CALLDATALOAD PUSH8 0xFFFFFFFFFFFFFFFF DUP2 GT ISZERO PUSH2 0xDA4 JUMPI PUSH2 0xDA3 PUSH2 0xA44 JUMP JUMPDEST JUMPDEST PUSH2 0xDB0 DUP6 DUP3 DUP7 ADD PUSH2 0xD4F JUMP JUMPDEST SWAP3 POP POP PUSH1 0x20 DUP4 ADD CALLDATALOAD PUSH8 0xFFFFFFFFFFFFFFFF DUP2 GT ISZERO PUSH2 0xDD1 JUMPI PUSH2 0xDD0 PUSH2 0xA44 JUMP JUMPDEST JUMPDEST PUSH2 0xDDD DUP6 DUP3 DUP7 ADD PUSH2 0xB86 JUMP JUMPDEST SWAP2 POP POP SWAP3 POP SWAP3 SWAP1 POP JUMP JUMPDEST PUSH1 0x0 DUP1 REVERT JUMPDEST PUSH1 0x0 DUP1 REVERT JUMPDEST PUSH1 0x0 DUP1 DUP4 PUSH1 0x1F DUP5 ADD SLT PUSH2 0xE07 JUMPI PUSH2 0xE06 PUSH2 0xA7F JUMP JUMPDEST JUMPDEST DUP3 CALLDATALOAD SWAP1 POP PUSH8 0xFFFFFFFFFFFFFFFF DUP2 GT ISZERO PUSH2 0xE24 JUMPI PUSH2 0xE23 PUSH2 0xDE7 JUMP JUMPDEST JUMPDEST PUSH1 0x20 DUP4 ADD SWAP2 POP DUP4 PUSH1 0x1 DUP3 MUL DUP4 ADD GT ISZERO PUSH2 0xE40 JUMPI PUSH2 0xE3F PUSH2 0xDEC JUMP JUMPDEST JUMPDEST SWAP3 POP SWAP3 SWAP1 POP JUMP JUMPDEST PUSH1 0x0 DUP1 PUSH1 0x20 DUP4 DUP6 SUB SLT ISZERO PUSH2 0xE5E JUMPI PUSH2 0xE5D PUSH2 0xA3F JUMP JUMPDEST JUMPDEST PUSH1 0x0 DUP4 ADD CALLDATALOAD PUSH8 0xFFFFFFFFFFFFFFFF DUP2 GT ISZERO PUSH2 0xE7C JUMPI PUSH2 0xE7B PUSH2 0xA44 JUMP JUMPDEST JUMPDEST PUSH2 0xE88 DUP6 DUP3 DUP7 ADD PUSH2 0xDF1 JUMP JUMPDEST SWAP3 POP SWAP3 POP POP SWAP3 POP SWAP3 SWAP1 POP JUMP JUMPDEST PUSH1 0x0 DUP1 DUP4 PUSH1 0x1F DUP5 ADD SLT PUSH2 0xEAA JUMPI PUSH2 0xEA9 PUSH2 0xA7F JUMP JUMPDEST JUMPDEST DUP3 CALLDATALOAD SWAP1 POP PUSH8 0xFFFFFFFFFFFFFFFF DUP2 GT ISZERO PUSH2 0xEC7 JUMPI PUSH2 0xEC6 PUSH2 0xDE7 JUMP JUMPDEST JUMPDEST PUSH1 0x20 DUP4 ADD SWAP2 POP DUP4 PUSH1 0x20 DUP3 MUL DUP4 ADD GT ISZERO PUSH2 0xEE3 JUMPI PUSH2 0xEE2 PUSH2 0xDEC JUMP JUMPDEST JUMPDEST SWAP3 POP SWAP3 SWAP1 POP JUMP JUMPDEST PUSH1 0x0 DUP1 PUSH1 0x0 DUP1 PUSH1 0x40 DUP6 DUP8 SUB SLT ISZERO PUSH2 0xF04 JUMPI PUSH2 0xF03 PUSH2 0xA3F JUMP JUMPDEST JUMPDEST PUSH1 0x0 DUP6 ADD CALLDATALOAD PUSH8 0xFFFFFFFFFFFFFFFF DUP2 GT ISZERO PUSH2 0xF22 JUMPI PUSH2 0xF21 PUSH2 0xA44 JUMP JUMPDEST JUMPDEST PUSH2 0xF2E DUP8 DUP3 DUP9 ADD PUSH2 0xE94 JUMP JUMPDEST SWAP5 POP SWAP5 POP POP PUSH1 0x20 DUP6 ADD CALLDATALOAD PUSH8 0xFFFFFFFFFFFFFFFF DUP2 GT ISZERO PUSH2 0xF51 JUMPI PUSH2 0xF50 PUSH2 0xA44 JUMP JUMPDEST JUMPDEST PUSH2 0xF5D DUP8 DUP3 DUP9 ADD PUSH2 0xDF1 JUMP JUMPDEST SWAP3 POP SWAP3 POP POP SWAP3 SWAP6 SWAP2 SWAP5 POP SWAP3 POP JUMP JUMPDEST PUSH1 0x0 PUSH1 0x20 DUP3 DUP5 SUB SLT ISZERO PUSH2 0xF81 JUMPI PUSH2 0xF80 PUSH2 0xA3F JUMP JUMPDEST JUMPDEST PUSH1 0x0 PUSH2 0xF8F DUP5 DUP3 DUP6 ADD PUSH2 0xA6A JUMP JUMPDEST SWAP2 POP POP SWAP3 SWAP2 POP POP JUMP JUMPDEST PUSH1 0x0 DUP2 PUSH1 0x17 SIGNEXTEND SWAP1 POP SWAP2 SWAP1 POP JUMP JUMPDEST PUSH2 0xFAE DUP2 PUSH2 0xF98 JUMP JUMPDEST DUP3 MSTORE POP POP JUMP JUMPDEST PUSH1 0x0 PUSH1 0x20 DUP3 ADD SWAP1 POP PUSH2 0xFC9 PUSH1 0x0 DUP4 ADD DUP5 PUSH2 0xFA5 JUMP JUMPDEST SWAP3 SWAP2 POP POP JUMP JUMPDEST PUSH1 0x0 PUSH2 0xFDA DUP3 PUSH2 0xCB0 JUMP JUMPDEST SWAP1 POP SWAP2 SWAP1 POP JUMP JUMPDEST PUSH2 0xFEA DUP2 PUSH2 0xFCF JUMP JUMPDEST DUP3 MSTORE POP POP JUMP JUMPDEST PUSH1 0x0 PUSH1 0x20 DUP3 ADD SWAP1 POP PUSH2 0x1005 PUSH1 0x0 DUP4 ADD DUP5 PUSH2 0xFE1 JUMP JUMPDEST SWAP3 SWAP2 POP POP JUMP JUMPDEST PUSH1 0x0 DUP2 SLOAD SWAP1 POP SWAP2 SWAP1 POP JUMP JUMPDEST PUSH1 0x0 DUP3 DUP3 MSTORE PUSH1 0x20 DUP3 ADD SWAP1 POP SWAP3 SWAP2 POP POP JUMP JUMPDEST PUSH1 0x0 DUP2 SWAP1 POP DUP2 PUSH1 0x0 MSTORE PUSH1 0x20 PUSH1 0x0 KECCAK256 SWAP1 POP SWAP2 SWAP1 POP JUMP JUMPDEST PUSH32 0x4E487B7100000000000000000000000000000000000000000000000000000000 PUSH1 0x0 MSTORE PUSH1 0x22 PUSH1 0x4 MSTORE PUSH1 0x24 PUSH1 0x0 REVERT JUMPDEST PUSH1 0x0 PUSH1 0x2 DUP3 DIV SWAP1 POP PUSH1 0x1 DUP3 AND DUP1 PUSH2 0x1083 JUMPI PUSH1 0x7F DUP3 AND SWAP2 POP JUMPDEST PUSH1 0x20 DUP3 LT DUP2 SUB PUSH2 0x1096 JUMPI PUSH2 0x1095 PUSH2 0x103C JUMP JUMPDEST JUMPDEST POP SWAP2 SWAP1 POP JUMP JUMPDEST PUSH1 0x0 DUP3 DUP3 MSTORE PUSH1 0x20 DUP3 ADD SWAP1 POP SWAP3 SWAP2 POP POP JUMP JUMPDEST PUSH1 0x0 DUP2 SWAP1 POP DUP2 PUSH1 0x0 MSTORE PUSH1 0x20 PUSH1 0x0 KECCAK256 SWAP1 POP SWAP2 SWAP1 POP JUMP JUMPDEST PUSH1 0x0 DUP2 SLOAD PUSH2 0x10CF DUP2 PUSH2 0x106B JUMP JUMPDEST PUSH2 0x10D9 DUP2 DUP7 PUSH2 0x109C JUMP JUMPDEST SWAP5 POP PUSH1 0x1 DUP3 AND PUSH1 0x0 DUP2 EQ PUSH2 0x10F4 JUMPI PUSH1 0x1 DUP2 EQ PUSH2 0x110A JUMPI PUSH2 0x113D JUMP JUMPDEST PUSH1 0xFF NOT DUP4 AND DUP7 MSTORE DUP2 ISZERO ISZERO PUSH1 0x20 MUL DUP7 ADD SWAP4 POP PUSH2 0x113D JUMP JUMPDEST PUSH2 0x1113 DUP6 PUSH2 0x10AD JUMP JUMPDEST PUSH1 0x0 JUMPDEST DUP4 DUP2 LT ISZERO PUSH2 0x1135 JUMPI DUP2 SLOAD DUP2 DUP10 ADD MSTORE PUSH1 0x1 DUP3 ADD SWAP2 POP PUSH1 0x20 DUP2 ADD SWAP1 POP PUSH2 0x1116 JUMP JUMPDEST DUP1 DUP9 ADD SWAP6 POP POP POP JUMPDEST POP POP POP SWAP3 SWAP2 POP POP JUMP JUMPDEST PUSH1 0x0 PUSH2 0x1152 DUP4 DUP4 PUSH2 0x10C2 JUMP JUMPDEST SWAP1 POP SWAP3 SWAP2 POP POP JUMP JUMPDEST PUSH1 0x0 PUSH1 0x1 DUP3 ADD SWAP1 POP SWAP2 SWAP1 POP JUMP JUMPDEST PUSH1 0x0 PUSH2 0x1172 DUP3 PUSH2 0x100B JUMP JUMPDEST PUSH2 0x117C DUP2 DUP6 PUSH2 0x1016 JUMP JUMPDEST SWAP4 POP DUP4 PUSH1 0x20 DUP3 MUL DUP6 ADD PUSH2 0x118E DUP6 PUSH2 0x1027 JUMP JUMPDEST DUP1 PUSH1 0x0 JUMPDEST DUP6 DUP2 LT ISZERO PUSH2 0x11C9 JUMPI DUP5 DUP5 SUB DUP10 MSTORE DUP2 PUSH2 0x11AA DUP6 DUP3 PUSH2 0x1146 JUMP JUMPDEST SWAP5 POP PUSH2 0x11B5 DUP4 PUSH2 0x115A JUMP JUMPDEST SWAP3 POP PUSH1 0x20 DUP11 ADD SWAP10 POP POP PUSH1 0x1 DUP2 ADD SWAP1 POP PUSH2 0x1192 JUMP JUMPDEST POP DUP3 SWAP8 POP DUP8 SWAP6 POP POP POP POP POP POP SWAP3 SWAP2 POP POP JUMP JUMPDEST PUSH2 0x11E4 DUP2 PUSH2 0xA49 JUMP JUMPDEST DUP3 MSTORE POP POP JUMP JUMPDEST POP JUMP JUMPDEST PUSH1 0x0 PUSH2 0x11FA PUSH1 0x0 DUP4 PUSH2 0xC36 JUMP JUMPDEST SWAP2 POP PUSH2 0x1205 DUP3 PUSH2 0x11EA JUMP JUMPDEST PUSH1 0x0 DUP3 ADD SWAP1 POP SWAP2 SWAP1 POP JUMP JUMPDEST PUSH1 0x0 PUSH1 0xA0 DUP3 ADD SWAP1 POP DUP2 DUP2 SUB PUSH1 0x0 DUP4 ADD MSTORE PUSH2 0x122A DUP2 DUP8 PUSH2 0x9DA JUMP JUMPDEST SWAP1 POP DUP2 DUP2 SUB PUSH1 0x20 DUP4 ADD MSTORE PUSH2 0x123E DUP2 DUP7 PUSH2 0x1167 JUMP JUMPDEST SWAP1 POP DUP2 DUP2 SUB PUSH1 0x40 DUP4 ADD MSTORE PUSH2 0x1252 DUP2 DUP6 PUSH2 0x9DA JUMP JUMPDEST SWAP1 POP PUSH2 0x1261 PUSH1 0x60 DUP4 ADD DUP5 PUSH2 0x11DB JUMP JUMPDEST DUP2 DUP2 SUB PUSH1 0x80 DUP4 ADD MSTORE PUSH2 0x1272 DUP2 PUSH2 0x11ED JUMP JUMPDEST SWAP1 POP SWAP6 SWAP5 POP POP POP POP POP JUMP JUMPDEST PUSH1 0x0 PUSH8 0xFFFFFFFFFFFFFFFF DUP3 GT ISZERO PUSH2 0x1298 JUMPI PUSH2 0x1297 PUSH2 0xA89 JUMP JUMPDEST JUMPDEST PUSH1 0x20 DUP3 MUL SWAP1 POP PUSH1 0x20 DUP2 ADD SWAP1 POP SWAP2 SWAP1 POP JUMP JUMPDEST PUSH1 0x0 PUSH2 0x12BC PUSH2 0x12B7 DUP5 PUSH2 0x127D JUMP JUMPDEST PUSH2 0xAE9 JUMP JUMPDEST SWAP1 POP DUP1 DUP4 DUP3 MSTORE PUSH1 0x20 DUP3 ADD SWAP1 POP PUSH1 0x20 DUP5 MUL DUP4 ADD DUP6 DUP2 GT ISZERO PUSH2 0x12DF JUMPI PUSH2 0x12DE PUSH2 0xDEC JUMP JUMPDEST JUMPDEST DUP4 JUMPDEST DUP2 DUP2 LT ISZERO PUSH2 0x1326 JUMPI DUP1 CALLDATALOAD PUSH8 0xFFFFFFFFFFFFFFFF DUP2 GT ISZERO PUSH2 0x1304 JUMPI PUSH2 0x1303 PUSH2 0xA7F JUMP JUMPDEST JUMPDEST DUP1 DUP7 ADD PUSH2 0x1311 DUP10 DUP3 PUSH2 0xB86 JUMP JUMPDEST DUP6 MSTORE PUSH1 0x20 DUP6 ADD SWAP5 POP POP POP PUSH1 0x20 DUP2 ADD SWAP1 POP PUSH2 0x12E1 JUMP JUMPDEST POP POP POP SWAP4 SWAP3 POP POP POP JUMP JUMPDEST PUSH1 0x0 DUP3 PUSH1 0x1F DUP4 ADD SLT PUSH2 0x1345 JUMPI PUSH2 0x1344 PUSH2 0xA7F JUMP JUMPDEST JUMPDEST DUP2 CALLDATALOAD PUSH2 0x1355 DUP5 DUP3 PUSH1 0x20 DUP7 ADD PUSH2 0x12A9 JUMP JUMPDEST SWAP2 POP POP SWAP3 SWAP2 POP POP JUMP JUMPDEST PUSH1 0x0 DUP1 PUSH1 0x40 DUP4 DUP6 SUB SLT ISZERO PUSH2 0x1375 JUMPI PUSH2 0x1374 PUSH2 0xA3F JUMP JUMPDEST JUMPDEST PUSH1 0x0 DUP4 ADD CALLDATALOAD PUSH8 0xFFFFFFFFFFFFFFFF DUP2 GT ISZERO PUSH2 0x1393 JUMPI PUSH2 0x1392 PUSH2 0xA44 JUMP JUMPDEST JUMPDEST PUSH2 0x139F DUP6 DUP3 DUP7 ADD PUSH2 0x1330 JUMP JUMPDEST SWAP3 POP POP PUSH1 0x20 DUP4 ADD CALLDATALOAD PUSH8 0xFFFFFFFFFFFFFFFF DUP2 GT ISZERO PUSH2 0x13C0 JUMPI PUSH2 0x13BF PUSH2 0xA44 JUMP JUMPDEST JUMPDEST PUSH2 0x13CC DUP6 DUP3 DUP7 ADD PUSH2 0xB86 JUMP JUMPDEST SWAP2 POP POP SWAP3 POP SWAP3 SWAP1 POP JUMP JUMPDEST PUSH32 0x4E487B7100000000000000000000000000000000000000000000000000000000 PUSH1 0x0 MSTORE PUSH1 0x32 PUSH1 0x4 MSTORE PUSH1 0x24 PUSH1 0x0 REVERT JUMPDEST PUSH1 0x0 PUSH8 0xFFFFFFFFFFFFFFFF DUP3 GT ISZERO PUSH2 0x1420 JUMPI PUSH2 0x141F PUSH2 0xA89 JUMP JUMPDEST JUMPDEST PUSH1 0x20 DUP3 MUL SWAP1 POP SWAP2 SWAP1 POP JUMP JUMPDEST PUSH1 0x0 DUP2 SWAP1 POP SWAP2 SWAP1 POP JUMP JUMPDEST PUSH2 0x143E DUP2 PUSH2 0x142B JUMP JUMPDEST DUP2 EQ PUSH2 0x1449 JUMPI PUSH1 0x0 DUP1 REVERT JUMPDEST POP JUMP JUMPDEST PUSH1 0x0 DUP2 MLOAD SWAP1 POP PUSH2 0x145B DUP2 PUSH2 0x1435 JUMP JUMPDEST SWAP3 SWAP2 POP POP JUMP JUMPDEST PUSH1 0x0 PUSH2 0x1474 PUSH2 0x146F DUP5 PUSH2 0x1405 JUMP JUMPDEST PUSH2 0xAE9 JUMP JUMPDEST SWAP1 POP DUP1 PUSH1 0x20 DUP5 MUL DUP4 ADD DUP6 DUP2 GT ISZERO PUSH2 0x148E JUMPI PUSH2 0x148D PUSH2 0xDEC JUMP JUMPDEST JUMPDEST DUP4 JUMPDEST DUP2 DUP2 LT ISZERO PUSH2 0x14B7 JUMPI DUP1 PUSH2 0x14A3 DUP9 DUP3 PUSH2 0x144C JUMP JUMPDEST DUP5 MSTORE PUSH1 0x20 DUP5 ADD SWAP4 POP POP PUSH1 0x20 DUP2 ADD SWAP1 POP PUSH2 0x1490 JUMP JUMPDEST POP POP POP SWAP4 SWAP3 POP POP POP JUMP JUMPDEST PUSH1 0x0 DUP3 PUSH1 0x1F DUP4 ADD SLT PUSH2 0x14D6 JUMPI PUSH2 0x14D5 PUSH2 0xA7F JUMP JUMPDEST JUMPDEST PUSH1 0x3 PUSH2 0x14E3 DUP5 DUP3 DUP6 PUSH2 0x1461 JUMP JUMPDEST SWAP2 POP POP SWAP3 SWAP2 POP POP JUMP JUMPDEST PUSH1 0x0 PUSH2 0x14FF PUSH2 0x14FA DUP5 PUSH2 0xB04 JUMP JUMPDEST PUSH2 0xAE9 JUMP JUMPDEST SWAP1 POP DUP3 DUP2 MSTORE PUSH1 0x20 DUP2 ADD DUP5 DUP5 DUP5 ADD GT ISZERO PUSH2 0x151B JUMPI PUSH2 0x151A PUSH2 0xA84 JUMP JUMPDEST JUMPDEST PUSH2 0x1526 DUP5 DUP3 DUP6 PUSH2 0x99F JUMP JUMPDEST POP SWAP4 SWAP3 POP POP POP JUMP JUMPDEST PUSH1 0x0 DUP3 PUSH1 0x1F DUP4 ADD SLT PUSH2 0x1543 JUMPI PUSH2 0x1542 PUSH2 0xA7F JUMP JUMPDEST JUMPDEST DUP2 MLOAD PUSH2 0x1553 DUP5 DUP3 PUSH1 0x20 DUP7 ADD PUSH2 0x14EC JUMP JUMPDEST SWAP2 POP POP SWAP3 SWAP2 POP POP JUMP JUMPDEST PUSH1 0x0 DUP1 PUSH1 0x80 DUP4 DUP6 SUB SLT ISZERO PUSH2 0x1573 JUMPI PUSH2 0x1572 PUSH2 0xA3F JUMP JUMPDEST JUMPDEST PUSH1 0x0 PUSH2 0x1581 DUP6 DUP3 DUP7 ADD PUSH2 0x14C1 JUMP JUMPDEST SWAP3 POP POP PUSH1 0x60 DUP4 ADD MLOAD PUSH8 0xFFFFFFFFFFFFFFFF DUP2 GT ISZERO PUSH2 0x15A2 JUMPI PUSH2 0x15A1 PUSH2 0xA44 JUMP JUMPDEST JUMPDEST PUSH2 0x15AE DUP6 DUP3 DUP7 ADD PUSH2 0x152E JUMP JUMPDEST SWAP2 POP POP SWAP3 POP SWAP3 SWAP1 POP JUMP JUMPDEST PUSH1 0x0 PUSH2 0x15C3 DUP3 PUSH2 0xFCF JUMP JUMPDEST SWAP1 POP SWAP2 SWAP1 POP JUMP JUMPDEST PUSH2 0x15D3 DUP2 PUSH2 0x15B8 JUMP JUMPDEST DUP2 EQ PUSH2 0x15DE JUMPI PUSH1 0x0 DUP1 REVERT JUMPDEST POP JUMP JUMPDEST PUSH1 0x0 DUP2 MLOAD SWAP1 POP PUSH2 0x15F0 DUP2 PUSH2 0x15CA JUMP JUMPDEST SWAP3 SWAP2 POP POP JUMP JUMPDEST PUSH1 0x0 PUSH1 0x20 DUP3 DUP5 SUB SLT ISZERO PUSH2 0x160C JUMPI PUSH2 0x160B PUSH2 0xA3F JUMP JUMPDEST JUMPDEST PUSH1 0x0 PUSH2 0x161A DUP5 DUP3 DUP6 ADD PUSH2 0x15E1 JUMP JUMPDEST SWAP2 POP POP SWAP3 SWAP2 POP POP JUMP JUMPDEST PUSH2 0x162C DUP2 PUSH2 0xFCF JUMP JUMPDEST DUP2 EQ PUSH2 0x1637 JUMPI PUSH1 0x0 DUP1 REVERT JUMPDEST POP JUMP JUMPDEST PUSH1 0x0 DUP2 MLOAD SWAP1 POP PUSH2 0x1649 DUP2 PUSH2 0x1623 JUMP JUMPDEST SWAP3 SWAP2 POP POP JUMP JUMPDEST PUSH1 0x0 PUSH1 0x20 DUP3 DUP5 SUB SLT ISZERO PUSH2 0x1665 JUMPI PUSH2 0x1664 PUSH2 0xA3F JUMP JUMPDEST JUMPDEST PUSH1 0x0 PUSH2 0x1673 DUP5 DUP3 DUP6 ADD PUSH2 0x163A JUMP JUMPDEST SWAP2 POP POP SWAP3 SWAP2 POP POP JUMP JUMPDEST PUSH1 0x0 PUSH1 0x60 DUP3 ADD SWAP1 POP PUSH2 0x1691 PUSH1 0x0 DUP4 ADD DUP7 PUSH2 0xFE1 JUMP JUMPDEST DUP2 DUP2 SUB PUSH1 0x20 DUP4 ADD MSTORE PUSH2 0x16A3 DUP2 DUP6 PUSH2 0xC47 JUMP JUMPDEST SWAP1 POP PUSH2 0x16B2 PUSH1 0x40 DUP4 ADD DUP5 PUSH2 0xFE1 JUMP JUMPDEST SWAP5 SWAP4 POP POP POP POP JUMP JUMPDEST PUSH1 0x0 DUP1 REVERT JUMPDEST PUSH1 0x0 DUP2 MLOAD SWAP1 POP PUSH2 0x16CE DUP2 PUSH2 0xA53 JUMP JUMPDEST SWAP3 SWAP2 POP POP JUMP JUMPDEST PUSH1 0x0 PUSH1 0x40 DUP3 DUP5 SUB SLT ISZERO PUSH2 0x16EA JUMPI PUSH2 0x16E9 PUSH2 0x16BA JUMP JUMPDEST JUMPDEST PUSH2 0x16F4 PUSH1 0x40 PUSH2 0xAE9 JUMP JUMPDEST SWAP1 POP PUSH1 0x0 PUSH2 0x1704 DUP5 DUP3 DUP6 ADD PUSH2 0x163A JUMP JUMPDEST PUSH1 0x0 DUP4 ADD MSTORE POP PUSH1 0x20 PUSH2 0x1718 DUP5 DUP3 DUP6 ADD PUSH2 0x16BF JUMP JUMPDEST PUSH1 0x20 DUP4 ADD MSTORE POP SWAP3 SWAP2 POP POP JUMP JUMPDEST PUSH1 0x0 DUP1 PUSH1 0x0 PUSH1 0xA0 DUP5 DUP7 SUB SLT ISZERO PUSH2 0x173D JUMPI PUSH2 0x173C PUSH2 0xA3F JUMP JUMPDEST JUMPDEST PUSH1 0x0 PUSH2 0x174B DUP7 DUP3 DUP8 ADD PUSH2 0x16D4 JUMP JUMPDEST SWAP4 POP POP PUSH1 0x40 PUSH2 0x175C DUP7 DUP3 DUP8 ADD PUSH2 0x16D4 JUMP JUMPDEST SWAP3 POP POP PUSH1 0x80 PUSH2 0x176D DUP7 DUP3 DUP8 ADD PUSH2 0x16BF JUMP JUMPDEST SWAP2 POP POP SWAP3 POP SWAP3 POP SWAP3 JUMP JUMPDEST PUSH1 0x0 PUSH1 0x40 DUP3 ADD SWAP1 POP PUSH2 0x178C PUSH1 0x0 DUP4 ADD DUP6 PUSH2 0xFE1 JUMP JUMPDEST PUSH2 0x1799 PUSH1 0x20 DUP4 ADD DUP5 PUSH2 0x11DB JUMP JUMPDEST SWAP4 SWAP3 POP POP POP JUMP JUMPDEST PUSH2 0x17A9 DUP2 PUSH2 0xC10 JUMP JUMPDEST DUP2 EQ PUSH2 0x17B4 JUMPI PUSH1 0x0 DUP1 REVERT JUMPDEST POP JUMP JUMPDEST PUSH1 0x0 DUP2 MLOAD SWAP1 POP PUSH2 0x17C6 DUP2 PUSH2 0x17A0 JUMP JUMPDEST SWAP3 SWAP2 POP POP JUMP JUMPDEST PUSH1 0x0 PUSH1 0x20 DUP3 DUP5 SUB SLT ISZERO PUSH2 0x17E2 JUMPI PUSH2 0x17E1 PUSH2 0xA3F JUMP JUMPDEST JUMPDEST PUSH1 0x0 PUSH2 0x17F0 DUP5 DUP3 DUP6 ADD PUSH2 0x17B7 JUMP JUMPDEST SWAP2 POP POP SWAP3 SWAP2 POP POP JUMP JUMPDEST PUSH1 0x0 PUSH1 0x40 DUP3 ADD SWAP1 POP DUP2 DUP2 SUB PUSH1 0x0 DUP4 ADD MSTORE PUSH2 0x1813 DUP2 DUP6 PUSH2 0xC47 JUMP JUMPDEST SWAP1 POP DUP2 DUP2 SUB PUSH1 0x20 DUP4 ADD MSTORE PUSH2 0x1827 DUP2 DUP5 PUSH2 0xC47 JUMP JUMPDEST SWAP1 POP SWAP4 SWAP3 POP POP POP JUMP JUMPDEST PUSH1 0x0 PUSH1 0x20 DUP3 DUP5 SUB SLT ISZERO PUSH2 0x1846 JUMPI PUSH2 0x1845 PUSH2 0xA3F JUMP JUMPDEST JUMPDEST PUSH1 0x0 DUP3 ADD MLOAD PUSH8 0xFFFFFFFFFFFFFFFF DUP2 GT ISZERO PUSH2 0x1864 JUMPI PUSH2 0x1863 PUSH2 0xA44 JUMP JUMPDEST JUMPDEST PUSH2 0x1870 DUP5 DUP3 DUP6 ADD PUSH2 0x152E JUMP JUMPDEST SWAP2 POP POP SWAP3 SWAP2 POP POP JUMP JUMPDEST PUSH1 0x0 PUSH4 0xFFFFFFFF DUP3 AND SWAP1 POP SWAP2 SWAP1 POP JUMP JUMPDEST PUSH2 0x1892 DUP2 PUSH2 0x1879 JUMP JUMPDEST DUP2 EQ PUSH2 0x189D JUMPI PUSH1 0x0 DUP1 REVERT JUMPDEST POP JUMP JUMPDEST PUSH1 0x0 DUP2 MLOAD SWAP1 POP PUSH2 0x18AF DUP2 PUSH2 0x1889 JUMP JUMPDEST SWAP3 SWAP2 POP POP JUMP JUMPDEST PUSH1 0x0 PUSH24 0xFFFFFFFFFFFFFFFFFFFFFFFFFFFFFFFFFFFFFFFFFFFFFFFF DUP3 AND SWAP1 POP SWAP2 SWAP1 POP JUMP JUMPDEST PUSH2 0x18E2 DUP2 PUSH2 0x18B5 JUMP JUMPDEST DUP2 EQ PUSH2 0x18ED JUMPI PUSH1 0x0 DUP1 REVERT JUMPDEST POP JUMP JUMPDEST PUSH1 0x0 DUP2 MLOAD SWAP1 POP PUSH2 0x18FF DUP2 PUSH2 0x18D9 JUMP JUMPDEST SWAP3 SWAP2 POP POP JUMP JUMPDEST PUSH2 0x190E DUP2 PUSH2 0xF98 JUMP JUMPDEST DUP2 EQ PUSH2 0x1919 JUMPI PUSH1 0x0 DUP1 REVERT JUMPDEST POP JUMP JUMPDEST PUSH1 0x0 DUP2 MLOAD SWAP1 POP PUSH2 0x192B DUP2 PUSH2 0x1905 JUMP JUMPDEST SWAP3 SWAP2 POP POP JUMP JUMPDEST PUSH1 0x0 PUSH2 0x120 DUP3 DUP5 SUB SLT ISZERO PUSH2 0x1948 JUMPI PUSH2 0x1947 PUSH2 0x16BA JUMP JUMPDEST JUMPDEST PUSH2 0x1953 PUSH2 0x120 PUSH2 0xAE9 JUMP JUMPDEST SWAP1 POP PUSH1 0x0 PUSH2 0x1963 DUP5 DUP3 DUP6 ADD PUSH2 0x144C JUMP JUMPDEST PUSH1 0x0 DUP4 ADD MSTORE POP PUSH1 0x20 PUSH2 0x1977 DUP5 DUP3 DUP6 ADD PUSH2 0x18A0 JUMP JUMPDEST PUSH1 0x20 DUP4 ADD MSTORE POP PUSH1 0x40 PUSH2 0x198B DUP5 DUP3 DUP6 ADD PUSH2 0x18A0 JUMP JUMPDEST PUSH1 0x40 DUP4 ADD MSTORE POP PUSH1 0x60 PUSH2 0x199F DUP5 DUP3 DUP6 ADD PUSH2 0x18F0 JUMP JUMPDEST PUSH1 0x60 DUP4 ADD MSTORE POP PUSH1 0x80 PUSH2 0x19B3 DUP5 DUP3 DUP6 ADD PUSH2 0x18F0 JUMP JUMPDEST PUSH1 0x80 DUP4 ADD MSTORE POP PUSH1 0xA0 PUSH2 0x19C7 DUP5 DUP3 DUP6 ADD PUSH2 0x18A0 JUMP JUMPDEST PUSH1 0xA0 DUP4 ADD MSTORE POP PUSH1 0xC0 PUSH2 0x19DB DUP5 DUP3 DUP6 ADD PUSH2 0x191C JUMP JUMPDEST PUSH1 0xC0 DUP4 ADD MSTORE POP PUSH1 0xE0 PUSH2 0x19EF DUP5 DUP3 DUP6 ADD PUSH2 0x191C JUMP JUMPDEST PUSH1 0xE0 DUP4 ADD MSTORE POP PUSH2 0x100 PUSH2 0x1A04 DUP5 DUP3 DUP6 ADD PUSH2 0x191C JUMP JUMPDEST PUSH2 0x100 DUP4 ADD MSTORE POP SWAP3 SWAP2 POP POP JUMP JUMPDEST PUSH1 0x0 PUSH2 0x120 DUP3 DUP5 SUB SLT ISZERO PUSH2 0x1A28 JUMPI PUSH2 0x1A27 PUSH2 0xA3F JUMP JUMPDEST JUMPDEST PUSH1 0x0 PUSH2 0x1A36 DUP5 DUP3 DUP6 ADD PUSH2 0x1931 JUMP JUMPDEST SWAP2 POP POP SWAP3 SWAP2 POP POP JUMP JUMPDEST PUSH1 0x0 DUP3 DUP3 MSTORE PUSH1 0x20 DUP3 ADD SWAP1 POP SWAP3 SWAP2 POP POP JUMP JUMPDEST PUSH1 0x0 DUP2 SWAP1 POP SWAP2 SWAP1 POP JUMP JUMPDEST PUSH1 0x0 DUP3 DUP3 MSTORE PUSH1 0x20 DUP3 ADD SWAP1 POP SWAP3 SWAP2 POP POP JUMP JUMPDEST PUSH1 0x0 PUSH2 0x1A77 DUP4 DUP6 PUSH2 0x1A5A JUMP JUMPDEST SWAP4 POP PUSH2 0x1A84 DUP4 DUP6 DUP5 PUSH2 0xB35 JUMP JUMPDEST PUSH2 0x1A8D DUP4 PUSH2 0x9C9 JUMP JUMPDEST DUP5 ADD SWAP1 POP SWAP4 SWAP3 POP POP POP JUMP JUMPDEST PUSH1 0x0 PUSH2 0x1AA5 DUP5 DUP5 DUP5 PUSH2 0x1A6B JUMP JUMPDEST SWAP1 POP SWAP4 SWAP3 POP POP POP JUMP JUMPDEST PUSH1 0x0 DUP1 REVERT JUMPDEST PUSH1 0x0 DUP1 REVERT JUMPDEST PUSH1 0x0 DUP1 REVERT JUMPDEST PUSH1 0x0 DUP1 DUP4 CALLDATALOAD PUSH1 0x1 PUSH1 0x20 SUB DUP5 CALLDATASIZE SUB SUB DUP2 SLT PUSH2 0x1ADA JUMPI PUSH2 0x1AD9 PUSH2 0x1AB8 JUMP JUMPDEST JUMPDEST DUP4 DUP2 ADD SWAP3 POP DUP3 CALLDATALOAD SWAP2 POP PUSH1 0x20 DUP4 ADD SWAP3 POP PUSH8 0xFFFFFFFFFFFFFFFF DUP3 GT ISZERO PUSH2 0x1B02 JUMPI PUSH2 0x1B01 PUSH2 0x1AAE JUMP JUMPDEST JUMPDEST PUSH1 0x1 DUP3 MUL CALLDATASIZE SUB DUP4 SGT ISZERO PUSH2 0x1B18 JUMPI PUSH2 0x1B17 PUSH2 0x1AB3 JUMP JUMPDEST JUMPDEST POP SWAP3 POP SWAP3 SWAP1 POP JUMP JUMPDEST PUSH1 0x0 PUSH1 0x20 DUP3 ADD SWAP1 POP SWAP2 SWAP1 POP JUMP JUMPDEST PUSH1 0x0 PUSH2 0x1B39 DUP4 DUP6 PUSH2 0x1A3F JUMP JUMPDEST SWAP4 POP DUP4 PUSH1 0x20 DUP5 MUL DUP6 ADD PUSH2 0x1B4B DUP5 PUSH2 0x1A50 JUMP JUMPDEST DUP1 PUSH1 0x0 JUMPDEST DUP8 DUP2 LT ISZERO PUSH2 0x1B91 JUMPI DUP5 DUP5 SUB DUP10 MSTORE PUSH2 0x1B66 DUP3 DUP5 PUSH2 0x1ABD JUMP JUMPDEST PUSH2 0x1B71 DUP7 DUP3 DUP5 PUSH2 0x1A98 JUMP JUMPDEST SWAP6 POP PUSH2 0x1B7C DUP5 PUSH2 0x1B20 JUMP JUMPDEST SWAP4 POP PUSH1 0x20 DUP12 ADD SWAP11 POP POP POP PUSH1 0x1 DUP2 ADD SWAP1 POP PUSH2 0x1B4F JUMP JUMPDEST POP DUP3 SWAP8 POP DUP8 SWAP5 POP POP POP POP POP SWAP4 SWAP3 POP POP POP JUMP JUMPDEST PUSH1 0x0 PUSH2 0x1BAF DUP4 DUP6 PUSH2 0xC36 JUMP JUMPDEST SWAP4 POP PUSH2 0x1BBC DUP4 DUP6 DUP5 PUSH2 0xB35 JUMP JUMPDEST PUSH2 0x1BC5 DUP4 PUSH2 0x9C9 JUMP JUMPDEST DUP5 ADD SWAP1 POP SWAP4 SWAP3 POP POP POP JUMP JUMPDEST PUSH1 0x0 PUSH1 0x40 DUP3 ADD SWAP1 POP DUP2 DUP2 SUB PUSH1 0x0 DUP4 ADD MSTORE PUSH2 0x1BEB DUP2 DUP7 DUP9 PUSH2 0x1B2D JUMP JUMPDEST SWAP1 POP DUP2 DUP2 SUB PUSH1 0x20 DUP4 ADD MSTORE PUSH2 0x1C00 DUP2 DUP5 DUP7 PUSH2 0x1BA3 JUMP JUMPDEST SWAP1 POP SWAP6 SWAP5 POP POP POP POP POP JUMP INVALID LOG2 PUSH5 0x6970667358 0x22 SLT KECCAK256 0xC2 CALLER PUSH27 0xC063D331E9DDE19C3BE1590645FB0E3B53E9D61238EC29A4425B61 LOG0 SWAP1 PUSH5 0x736F6C6343 STOP ADDMOD SGT STOP CALLER ADDRESS PUSH25 0x30303033353938343361353433656532666534313464633134 PUSH4 0x37653739 ORIGIN ADDRESS PUSH6 0x663130663433 CALLDATACOPY ORIGIN CODECOPY CODECOPY ADDRESS PUSH3 0x373964 CALLDATASIZE CALLER CALLDATASIZE BALANCE PUSH4 0x64633064 PUSH5 0x3162613738 ORIGIN "
				},
				"gasEstimates": {
					"creation": {
						"codeDepositCost": "1446600",
						"executionCost": "infinite",
						"totalCost": "infinite"
					},
					"external": {
						"": "196",
						"DATASTREAMS_FEEDLABEL()": "infinite",
						"DATASTREAMS_QUERYLABEL()": "infinite",
						"FEE_ADDRESS()": "2602",
						"checkCallback(bytes[],bytes)": "infinite",
						"checkErrorHandler(uint256,bytes)": "infinite",
						"checkLog((uint256,uint256,bytes32,uint256,bytes32,address,bytes32[],bytes),bytes)": "infinite",
						"feedIds(uint256)": "infinite",
						"last_retrieved_price()": "2541",
						"performUpkeep(bytes)": "infinite",
						"verifier()": "infinite"
					}
				},
				"methodIdentifiers": {
					"DATASTREAMS_FEEDLABEL()": "08c9e24e",
					"DATASTREAMS_QUERYLABEL()": "1b83ca1e",
					"FEE_ADDRESS()": "eb1edd61",
					"checkCallback(bytes[],bytes)": "4b56a42e",
					"checkErrorHandler(uint256,bytes)": "0fb172fb",
					"checkLog((uint256,uint256,bytes32,uint256,bytes32,address,bytes32[],bytes),bytes)": "40691db4",
					"feedIds(uint256)": "b7f433d1",
					"last_retrieved_price()": "e13b822d",
					"performUpkeep(bytes)": "4585e33b",
					"verifier()": "2b7ac3f3"
				}
			},
			"storageLayout": {
				"storage": [
					{
						"astId": 464,
						"contract": "GettingStarted/StreamsUpkeep.sol:StreamsUpkeep",
						"label": "verifier",
						"offset": 0,
						"slot": "0",
						"type": "t_contract(IVerifierProxy)397"
					},
					{
						"astId": 466,
						"contract": "GettingStarted/StreamsUpkeep.sol:StreamsUpkeep",
						"label": "FEE_ADDRESS",
						"offset": 0,
						"slot": "1",
						"type": "t_address"
					},
					{
						"astId": 474,
						"contract": "GettingStarted/StreamsUpkeep.sol:StreamsUpkeep",
						"label": "last_retrieved_price",
						"offset": 0,
						"slot": "2",
						"type": "t_int192"
					},
					{
						"astId": 479,
						"contract": "GettingStarted/StreamsUpkeep.sol:StreamsUpkeep",
						"label": "feedIds",
						"offset": 0,
						"slot": "3",
						"type": "t_array(t_string_storage)dyn_storage"
					}
				],
				"types": {
					"t_address": {
						"encoding": "inplace",
						"label": "address",
						"numberOfBytes": "20"
					},
					"t_array(t_string_storage)dyn_storage": {
						"base": "t_string_storage",
						"encoding": "dynamic_array",
						"label": "string[]",
						"numberOfBytes": "32"
					},
					"t_contract(IVerifierProxy)397": {
						"encoding": "inplace",
						"label": "contract IVerifierProxy",
						"numberOfBytes": "20"
					},
					"t_int192": {
						"encoding": "inplace",
						"label": "int192",
						"numberOfBytes": "24"
					},
					"t_string_storage": {
						"encoding": "bytes",
						"label": "string",
						"numberOfBytes": "32"
					}
				}
			},
			"userdoc": {
				"kind": "user",
				"methods": {
					"checkCallback(bytes[],bytes)": {
						"notice": "any contract which wants to utilize StreamsLookup feature needs to implement this interface as well as the automation compatible interface."
					},
					"checkErrorHandler(uint256,bytes)": {
						"notice": "this is a new, optional function in streams lookup. It is meant to surface streams lookup errors."
					},
					"performUpkeep(bytes)": {
						"notice": "method that is actually executed by the keepers, via the registry. The data returned by the checkUpkeep simulation will be passed into this method to actually be executed."
					}
				},
				"version": 1
			}
		}
	}
}